*********************************
*      HEADER DESCRIPTION       *
*********************************
Customer: LinksField
Quantity: 1000
Type: ISO
Batch: 00003
Profile: 01.00
Graph_Profile: 01
*
SMSC: 550402101000
*
SPN: LinksField
PNN: LinksField
*
Address1:  LF BRASIL
Address2: Av. das Na珲es Unidas, 14401, Torre Tarum?- 2810
Address3: Vl. Gertrudes - S鉶 Paulo
Address4: Brazil
*********************************
*        INPUT VARIABLES        *
*********************************
Var_In_List: ICCID/IMSI
ICCID: 8955400000000300050
IMSI: 724400008000050
*********************************
*       OUTPUT VARIABLES        *
*********************************
Var_Out : ICCID/IMSI/PIN1/PIN2/PUK1/PUK2/Ki/ADM1/ADM2/ACC
89554000000003000502 724400008000050 1234 1234 87654321 34567890 85771DE78473906765BBF74A9992B77C 15357918 18753312 0020
89554000000003000510 724400008000051 1234 1234 87654321 34567890 BD6F5FB33E66076982BA91128BA43452 15357918 18753312 0020
89554000000003000528 724400008000052 1234 1234 87654321 34567890 7B972EEE25BFC2D072A87943A3A0C76B 15357918 18753312 0020
89554000000003000536 724400008000053 1234 1234 87654321 34567890 A7F3010B4395260F76D396CF38C1ECB2 15357918 18753312 0020
89554000000003000544 724400008000054 1234 1234 87654321 34567890 90965B4E6E186FCEE5E5BEC99DB472C2 15357918 18753312 0020
89554000000003000551 724400008000055 1234 1234 87654321 34567890 386D4F22AC34A150D44F2AF0FA69782E 15357918 18753312 0020
89554000000003000569 724400008000056 1234 1234 87654321 34567890 340E5474667A0B03FC10462279F8A5A8 15357918 18753312 0020
89554000000003000577 724400008000057 1234 1234 87654321 34567890 FB7AF897E5B649E02A8E53C3944A9117 15357918 18753312 0020
89554000000003000585 724400008000058 1234 1234 87654321 34567890 F501C427AD43716E8513B6BD7966657E 15357918 18753312 0020
89554000000003000593 724400008000059 1234 1234 87654321 34567890 C3D99A8CC517B875059F3D14204F6255 15357918 18753312 0020
89554000000003000601 724400008000060 1234 1234 87654321 34567890 22187450AB518F3A8041027E085A99B8 15357918 18753312 0020
89554000000003000619 724400008000061 1234 1234 87654321 34567890 9756508BA69C1AA74DD08AB71054CAA8 15357918 18753312 0020
89554000000003000627 724400008000062 1234 1234 87654321 34567890 35083AFB1B5EC5FA7BC756E521C28C92 15357918 18753312 0020
89554000000003000635 724400008000063 1234 1234 87654321 34567890 251733B648E99BFE63AE0B0A1635B704 15357918 18753312 0020
89554000000003000643 724400008000064 1234 1234 87654321 34567890 4778BF355024AC05CBA20A2B89676BC4 15357918 18753312 0020
89554000000003000650 724400008000065 1234 1234 87654321 34567890 EF50BBB44F51B75069F072A94151526F 15357918 18753312 0020
89554000000003000668 724400008000066 1234 1234 87654321 34567890 F686EF127F4E89F738F76E7A2DE36CC6 15357918 18753312 0020
89554000000003000676 724400008000067 1234 1234 87654321 34567890 E67D757B17B444B9E62E1ACDE233FE05 15357918 18753312 0020
89554000000003000684 724400008000068 1234 1234 87654321 34567890 328AC44A5DDEDC50A322B5B717EA50B4 15357918 18753312 0020
89554000000003000692 724400008000069 1234 1234 87654321 34567890 5D8A19C0249615D9C023F03F996E5CA9 15357918 18753312 0020
89554000000003000700 724400008000070 1234 1234 87654321 34567890 288ED3B4CCA0C4AA5D11F29BF8DD6355 15357918 18753312 0020
89554000000003000718 724400008000071 1234 1234 87654321 34567890 7E3BE0F842918F02BC393622D64E8010 15357918 18753312 0020
89554000000003000726 724400008000072 1234 1234 87654321 34567890 672E5D34FC8B5B809D31C4EBFE2EA4FC 15357918 18753312 0020
89554000000003000734 724400008000073 1234 1234 87654321 34567890 881A306C4F1706A067CAA5284A20ED11 15357918 18753312 0020
89554000000003000742 724400008000074 1234 1234 87654321 34567890 96854397358666C84CDAF1BC4623432D 15357918 18753312 0020
89554000000003000759 724400008000075 1234 1234 87654321 34567890 4DEA78C1CA8E5F106EB090A5BED2BC5C 15357918 18753312 0020
89554000000003000767 724400008000076 1234 1234 87654321 34567890 9C306CC2CE4D50461B8F2FDB13790F3C 15357918 18753312 0020
89554000000003000775 724400008000077 1234 1234 87654321 34567890 522A589405F7DFDA0BFB99DBA33E1141 15357918 18753312 0020
89554000000003000783 724400008000078 1234 1234 87654321 34567890 6ABE1570ABE01A78E3B5EF58F2CF5979 15357918 18753312 0020
89554000000003000791 724400008000079 1234 1234 87654321 34567890 90D34CBAB397272CCAA864C4F8CB2CA3 15357918 18753312 0020
89554000000003000809 724400008000080 1234 1234 87654321 34567890 5441BC28A69CD042E8ED35052F28EDDC 15357918 18753312 0020
89554000000003000817 724400008000081 1234 1234 87654321 34567890 F69DB61C5329A1C5E37E8C7B9F74435A 15357918 18753312 0020
89554000000003000825 724400008000082 1234 1234 87654321 34567890 6B6A996A76743D60102D29BFE141FDF6 15357918 18753312 0020
89554000000003000833 724400008000083 1234 1234 87654321 34567890 F59941DF78CBDC74F056A0A062F68FEF 15357918 18753312 0020
89554000000003000841 724400008000084 1234 1234 87654321 34567890 50AB03B8EEA41662319B186723E25573 15357918 18753312 0020
89554000000003000858 724400008000085 1234 1234 87654321 34567890 E30A97C45AB4BC40695C6C54338D0E92 15357918 18753312 0020
89554000000003000866 724400008000086 1234 1234 87654321 34567890 A29CB75DE2AC563189ECC01BF3433879 15357918 18753312 0020
89554000000003000874 724400008000087 1234 1234 87654321 34567890 D91648A46F6EE36C608F26034D113682 15357918 18753312 0020
89554000000003000882 724400008000088 1234 1234 87654321 34567890 9D366B471E44C2C86E89E9843BD5B94A 15357918 18753312 0020
89554000000003000890 724400008000089 1234 1234 87654321 34567890 24D3C0DC6EBDA98ECBFA5B7FCBBEC75A 15357918 18753312 0020
89554000000003000908 724400008000090 1234 1234 87654321 34567890 1A30A87CF3EEE88C127E1C15994328C8 15357918 18753312 0020
89554000000003000916 724400008000091 1234 1234 87654321 34567890 572EC463C1C84E4E6F80EFBCD10809DB 15357918 18753312 0020
89554000000003000924 724400008000092 1234 1234 87654321 34567890 AD0AD9BCA79FBBA601C467138FE8D58B 15357918 18753312 0020
89554000000003000932 724400008000093 1234 1234 87654321 34567890 D86E52A5635648642AAE738F6622C776 15357918 18753312 0020
89554000000003000940 724400008000094 1234 1234 87654321 34567890 088EB4FFFC07697C16FB306612C67BA8 15357918 18753312 0020
89554000000003000957 724400008000095 1234 1234 87654321 34567890 E93EECA7F7E708DAF70CA8B628858B16 15357918 18753312 0020
89554000000003000965 724400008000096 1234 1234 87654321 34567890 0653A7FEA6666BD582A9F237ED013D68 15357918 18753312 0020
89554000000003000973 724400008000097 1234 1234 87654321 34567890 6756D6F375FCBDB604CD4FB0EB266F45 15357918 18753312 0020
89554000000003000981 724400008000098 1234 1234 87654321 34567890 D6D99FD6C2B9339E2C4618E1D7EF84F1 15357918 18753312 0020
89554000000003000999 724400008000099 1234 1234 87654321 34567890 C3F7E80DFCE3CF934F5DCC57C4EDFA31 15357918 18753312 0020
89554000000003001005 724400008000100 1234 1234 87654321 34567890 8D5A0A92A41769F1F61701F910FA5041 15357918 18753312 0020
89554000000003001013 724400008000101 1234 1234 87654321 34567890 76FEA2004CD7FE6E91AF53EEBF2699AB 15357918 18753312 0020
89554000000003001021 724400008000102 1234 1234 87654321 34567890 01DED27769580752E0B6EB2B6C748ACC 15357918 18753312 0020
89554000000003001039 724400008000103 1234 1234 87654321 34567890 3C926C0E258FF3E11BA4E002715CA0A0 15357918 18753312 0020
89554000000003001047 724400008000104 1234 1234 87654321 34567890 4B1D5607AFA3149105029B4C688C48FA 15357918 18753312 0020
89554000000003001054 724400008000105 1234 1234 87654321 34567890 7342A4734DCB63B774F570A01BB7311A 15357918 18753312 0020
89554000000003001062 724400008000106 1234 1234 87654321 34567890 D83EAAF5633B097E836E3DDB702BFE1A 15357918 18753312 0020
89554000000003001070 724400008000107 1234 1234 87654321 34567890 30507B462B1AA581EEF268F965432F77 15357918 18753312 0020
89554000000003001088 724400008000108 1234 1234 87654321 34567890 A432000AA23DC612BA568B6404DC64C1 15357918 18753312 0020
89554000000003001096 724400008000109 1234 1234 87654321 34567890 1FF68F580C9C9480AA7C4006494B027F 15357918 18753312 0020
89554000000003001104 724400008000110 1234 1234 87654321 34567890 F7721C42C5C4A99B92E4A3E56E3D7987 15357918 18753312 0020
89554000000003001112 724400008000111 1234 1234 87654321 34567890 64179026DDCA1F62304BBD61B7C1192A 15357918 18753312 0020
89554000000003001120 724400008000112 1234 1234 87654321 34567890 95C482422C62D421CC2BB51A707B277B 15357918 18753312 0020
89554000000003001138 724400008000113 1234 1234 87654321 34567890 3B81F7BE02DCBB574BB7DE3BD1526D88 15357918 18753312 0020
89554000000003001146 724400008000114 1234 1234 87654321 34567890 9FE5FDF9642B443895D2162E6AA8CCAC 15357918 18753312 0020
89554000000003001153 724400008000115 1234 1234 87654321 34567890 7FDAA36DFC71A550E25DDE11C09D33BC 15357918 18753312 0020
89554000000003001161 724400008000116 1234 1234 87654321 34567890 8D7535BEB7808C0DDB42C413CCBB6F23 15357918 18753312 0020
89554000000003001179 724400008000117 1234 1234 87654321 34567890 AEBCCC9FF2416EE42B01E1FC3A1892E8 15357918 18753312 0020
89554000000003001187 724400008000118 1234 1234 87654321 34567890 F327C24C28489DAA8273756D11D42BB9 15357918 18753312 0020
89554000000003001195 724400008000119 1234 1234 87654321 34567890 915D9D89E66FCABAD24293E08CFB4510 15357918 18753312 0020
89554000000003001203 724400008000120 1234 1234 87654321 34567890 67685A1775C71E90ADABD31B308B7A48 15357918 18753312 0020
89554000000003001211 724400008000121 1234 1234 87654321 34567890 5CC502306CDF95EAEDAF8F53AB9E8136 15357918 18753312 0020
89554000000003001229 724400008000122 1234 1234 87654321 34567890 CDB3072A139A79E12384A154FF00705C 15357918 18753312 0020
89554000000003001237 724400008000123 1234 1234 87654321 34567890 07899104B20A6993BAD39391AEB05CDA 15357918 18753312 0020
89554000000003001245 724400008000124 1234 1234 87654321 34567890 5C283AEA3F5CCE1B37E869E6DBA8B53D 15357918 18753312 0020
89554000000003001252 724400008000125 1234 1234 87654321 34567890 C7727D13ADE16D6F3205AC97F4078D05 15357918 18753312 0020
89554000000003001260 724400008000126 1234 1234 87654321 34567890 B0565281415BFB8144C5150A6BE44425 15357918 18753312 0020
89554000000003001278 724400008000127 1234 1234 87654321 34567890 03DA35BB3034A807165673C7E8D0D446 15357918 18753312 0020
89554000000003001286 724400008000128 1234 1234 87654321 34567890 55F30B41F28AE2B9D68CB89F25A3679F 15357918 18753312 0020
89554000000003001294 724400008000129 1234 1234 87654321 34567890 ACCCCC1FFD54FE65AF7CE6A417CE8A51 15357918 18753312 0020
89554000000003001302 724400008000130 1234 1234 87654321 34567890 7E0F00A77396746D2F5AC3CDE6082843 15357918 18753312 0020
89554000000003001310 724400008000131 1234 1234 87654321 34567890 D7928164CEF88D9D0AF7331716FADF38 15357918 18753312 0020
89554000000003001328 724400008000132 1234 1234 87654321 34567890 F8F3DE8FBA5962CC39791D60ADA8224E 15357918 18753312 0020
89554000000003001336 724400008000133 1234 1234 87654321 34567890 BC309D6AD269F03ED0348608385655EE 15357918 18753312 0020
89554000000003001344 724400008000134 1234 1234 87654321 34567890 60F2E5BA4B574655DF32F64BC94AC780 15357918 18753312 0020
89554000000003001351 724400008000135 1234 1234 87654321 34567890 731082B392F51EDA0FC413BA61BDF9FE 15357918 18753312 0020
89554000000003001369 724400008000136 1234 1234 87654321 34567890 D96105CA3C60ED6FA49241C2E24C7708 15357918 18753312 0020
89554000000003001377 724400008000137 1234 1234 87654321 34567890 FD641E0DDFC4908B9890A99C9205E533 15357918 18753312 0020
89554000000003001385 724400008000138 1234 1234 87654321 34567890 45BA79A73B7333833F32CDACA4D762C2 15357918 18753312 0020
89554000000003001393 724400008000139 1234 1234 87654321 34567890 ACAB71464C2253AF98D286346FEC46F1 15357918 18753312 0020
89554000000003001401 724400008000140 1234 1234 87654321 34567890 849F37807FBCFEF736A63067E1727A0D 15357918 18753312 0020
89554000000003001419 724400008000141 1234 1234 87654321 34567890 DB2138D6866B1D90D461EADA190A1E4C 15357918 18753312 0020
89554000000003001427 724400008000142 1234 1234 87654321 34567890 84F5BCD2B33C4FD8129A2EAA8DBFD3D1 15357918 18753312 0020
89554000000003001435 724400008000143 1234 1234 87654321 34567890 58B00B5C71B61915EE506AA72BC1C898 15357918 18753312 0020
89554000000003001443 724400008000144 1234 1234 87654321 34567890 5FAB889B48F78E404EE599A2B3890934 15357918 18753312 0020
89554000000003001450 724400008000145 1234 1234 87654321 34567890 98117E2F27669DECAC5C95040ED2428E 15357918 18753312 0020
89554000000003001468 724400008000146 1234 1234 87654321 34567890 48DDE58E87156064A4E2670400A2A640 15357918 18753312 0020
89554000000003001476 724400008000147 1234 1234 87654321 34567890 6D4FDB17CE32861B2BEE4DF2DCFFC706 15357918 18753312 0020
89554000000003001484 724400008000148 1234 1234 87654321 34567890 68957F330A91807D87C6287558D0E73B 15357918 18753312 0020
89554000000003001492 724400008000149 1234 1234 87654321 34567890 B6E1B0D9DADA839041F33642270F5F73 15357918 18753312 0020
89554000000003001500 724400008000150 1234 1234 87654321 34567890 67AD9890E069D330D5F469F3BDAB5FF6 15357918 18753312 0020
89554000000003001518 724400008000151 1234 1234 87654321 34567890 0ED7F2212DCBE3E8964DB4A44DF76E7B 15357918 18753312 0020
89554000000003001526 724400008000152 1234 1234 87654321 34567890 9E04A423379C2353B69560FFA7153CFB 15357918 18753312 0020
89554000000003001534 724400008000153 1234 1234 87654321 34567890 1C1DEE7784B1719EB8DE09806DEDAF65 15357918 18753312 0020
89554000000003001542 724400008000154 1234 1234 87654321 34567890 BAC96674A00BDEF2DF849303FD620051 15357918 18753312 0020
89554000000003001559 724400008000155 1234 1234 87654321 34567890 AC9555B47B5A21C599A323D62CAE0F5B 15357918 18753312 0020
89554000000003001567 724400008000156 1234 1234 87654321 34567890 26085E4F4F1BE32A5328F464D406188B 15357918 18753312 0020
89554000000003001575 724400008000157 1234 1234 87654321 34567890 631F4B1DF5D69CCA9A540594F8B4D86E 15357918 18753312 0020
89554000000003001583 724400008000158 1234 1234 87654321 34567890 75A19AFBD97E7B1BC00F174ABAC01180 15357918 18753312 0020
89554000000003001591 724400008000159 1234 1234 87654321 34567890 1491BF706C2DDCDE805CD40CD53094C8 15357918 18753312 0020
89554000000003001609 724400008000160 1234 1234 87654321 34567890 5E2F2333742800A7B71E93FDFA45148E 15357918 18753312 0020
89554000000003001617 724400008000161 1234 1234 87654321 34567890 BBEE850080F01FA049F9DA24A7FCCF37 15357918 18753312 0020
89554000000003001625 724400008000162 1234 1234 87654321 34567890 74D40616B1DA83ED3FC735B5528635D0 15357918 18753312 0020
89554000000003001633 724400008000163 1234 1234 87654321 34567890 F9BA47A19C40A66E577EA06CF8F10760 15357918 18753312 0020
89554000000003001641 724400008000164 1234 1234 87654321 34567890 6BE4427F8B1F7907B1BAB37EF5C59AD8 15357918 18753312 0020
89554000000003001658 724400008000165 1234 1234 87654321 34567890 0F00C2AAD74DE0B14B18FFE6440DB718 15357918 18753312 0020
89554000000003001666 724400008000166 1234 1234 87654321 34567890 49ECD8AAB0338DB4D52621C05B4A8CE8 15357918 18753312 0020
89554000000003001674 724400008000167 1234 1234 87654321 34567890 281C99D0FA028FDB14E773A6D2917722 15357918 18753312 0020
89554000000003001682 724400008000168 1234 1234 87654321 34567890 2408D9F3DD8821260305A3C0A7E95F8A 15357918 18753312 0020
89554000000003001690 724400008000169 1234 1234 87654321 34567890 AF02E7063189CF9261E77374A2DF4CEF 15357918 18753312 0020
89554000000003001708 724400008000170 1234 1234 87654321 34567890 888838A3A00B3AFCA88DD8FAAC642CC3 15357918 18753312 0020
89554000000003001716 724400008000171 1234 1234 87654321 34567890 C3012989AB6C1D0A70B471C568C3AD43 15357918 18753312 0020
89554000000003001724 724400008000172 1234 1234 87654321 34567890 9F014B28519A1921A4C0C48430D50E3C 15357918 18753312 0020
89554000000003001732 724400008000173 1234 1234 87654321 34567890 B76FF990882C9FD50EFDBF590261D7F7 15357918 18753312 0020
89554000000003001740 724400008000174 1234 1234 87654321 34567890 F04D38B24E2A891C63135F49C57AA6E9 15357918 18753312 0020
89554000000003001757 724400008000175 1234 1234 87654321 34567890 250913659707A0BCEFE5E980A3649422 15357918 18753312 0020
89554000000003001765 724400008000176 1234 1234 87654321 34567890 6A7205C93DD3748F398D146E45E2A9EE 15357918 18753312 0020
89554000000003001773 724400008000177 1234 1234 87654321 34567890 E257E64E7DCB6A7163938860FAD68F5C 15357918 18753312 0020
89554000000003001781 724400008000178 1234 1234 87654321 34567890 845EDFFFBDF432A8B1263215BEAA955E 15357918 18753312 0020
89554000000003001799 724400008000179 1234 1234 87654321 34567890 BCA9303FB38FF23CE802C884D41B9C20 15357918 18753312 0020
89554000000003001807 724400008000180 1234 1234 87654321 34567890 4E65BBA3DF559033D01BF6841F327E55 15357918 18753312 0020
89554000000003001815 724400008000181 1234 1234 87654321 34567890 410234F437426AE0AC1D2A5D20669453 15357918 18753312 0020
89554000000003001823 724400008000182 1234 1234 87654321 34567890 6EFB8989BB27316BB15F5C22CFFB7800 15357918 18753312 0020
89554000000003001831 724400008000183 1234 1234 87654321 34567890 D177C9933838A3006AC30AEE65E13C9A 15357918 18753312 0020
89554000000003001849 724400008000184 1234 1234 87654321 34567890 2CA2727E6967B250434FD84A597EDF22 15357918 18753312 0020
89554000000003001856 724400008000185 1234 1234 87654321 34567890 39843A12848F42043333EBCB8C089546 15357918 18753312 0020
89554000000003001864 724400008000186 1234 1234 87654321 34567890 4D1D46FD3C061B8A9D1DE6046ECE9270 15357918 18753312 0020
89554000000003001872 724400008000187 1234 1234 87654321 34567890 C5963A9CAAB53B67B653D7056CEFE5B8 15357918 18753312 0020
89554000000003001880 724400008000188 1234 1234 87654321 34567890 A3E9F3DC0910BA89F293D9298417482F 15357918 18753312 0020
89554000000003001898 724400008000189 1234 1234 87654321 34567890 89427B46B390C0F81A6D3CD5BA01B2C6 15357918 18753312 0020
89554000000003001906 724400008000190 1234 1234 87654321 34567890 8CE312C51665BF89FAB8BA99107BF0FB 15357918 18753312 0020
89554000000003001914 724400008000191 1234 1234 87654321 34567890 1278435AFD7EA51BB379A990274D331D 15357918 18753312 0020
89554000000003001922 724400008000192 1234 1234 87654321 34567890 FBF88B4937637F41E8E78968FC919F11 15357918 18753312 0020
89554000000003001930 724400008000193 1234 1234 87654321 34567890 E95A4780DC77E9345F9E678C29059D72 15357918 18753312 0020
89554000000003001948 724400008000194 1234 1234 87654321 34567890 EAA8ADE305610BF6088AA05325AF6B70 15357918 18753312 0020
89554000000003001955 724400008000195 1234 1234 87654321 34567890 D7A063B059DB8569C996156019761C86 15357918 18753312 0020
89554000000003001963 724400008000196 1234 1234 87654321 34567890 C6B6CFEF12105CA3A8A510B527C913A7 15357918 18753312 0020
89554000000003001971 724400008000197 1234 1234 87654321 34567890 8FC047CFD66BF0B0C7A72442F999F2E6 15357918 18753312 0020
89554000000003001989 724400008000198 1234 1234 87654321 34567890 38801BAE7A02F86E252EF6DF6E224587 15357918 18753312 0020
89554000000003001997 724400008000199 1234 1234 87654321 34567890 80075513DA7F503F404647EF0B6919B1 15357918 18753312 0020
89554000000003002003 724400008000200 1234 1234 87654321 34567890 22F827AA672FCD77CAE1211E7AA71B64 15357918 18753312 0020
89554000000003002011 724400008000201 1234 1234 87654321 34567890 FFE5CAF211340668AF6778983C5CDB38 15357918 18753312 0020
89554000000003002029 724400008000202 1234 1234 87654321 34567890 75825691011293FE58BDC6F388ED6EE5 15357918 18753312 0020
89554000000003002037 724400008000203 1234 1234 87654321 34567890 D10F3608662ABE621DF27DF0C40A1DD1 15357918 18753312 0020
89554000000003002045 724400008000204 1234 1234 87654321 34567890 2ADD7F06D2E66D7AC57E760B4EA6FBCC 15357918 18753312 0020
89554000000003002052 724400008000205 1234 1234 87654321 34567890 D35165C9467F0D4449F8166649B772AE 15357918 18753312 0020
89554000000003002060 724400008000206 1234 1234 87654321 34567890 27483A54365BA20257D031D2E64D73FC 15357918 18753312 0020
89554000000003002078 724400008000207 1234 1234 87654321 34567890 004E2ABAD4B196D9F95FC620A4D47463 15357918 18753312 0020
89554000000003002086 724400008000208 1234 1234 87654321 34567890 C8A525E25992AD8A10E44D7AF708B3D6 15357918 18753312 0020
89554000000003002094 724400008000209 1234 1234 87654321 34567890 484DEF9018A77044D74C6FCA90E73FFE 15357918 18753312 0020
89554000000003002102 724400008000210 1234 1234 87654321 34567890 A78A6B6CDEE88B4BA9134AE56093497D 15357918 18753312 0020
89554000000003002110 724400008000211 1234 1234 87654321 34567890 2D38B3656E063B807768D09C0E7BF752 15357918 18753312 0020
89554000000003002128 724400008000212 1234 1234 87654321 34567890 E5616DCF5B879495EC3E6F7B536A80CF 15357918 18753312 0020
89554000000003002136 724400008000213 1234 1234 87654321 34567890 5A827BC3980B24F0D404CA3EECD9AC87 15357918 18753312 0020
89554000000003002144 724400008000214 1234 1234 87654321 34567890 CB33FC929DCCBE456C913BB653088AE5 15357918 18753312 0020
89554000000003002151 724400008000215 1234 1234 87654321 34567890 1C6D7C5F0C9ADAF1EA363BB40903233B 15357918 18753312 0020
89554000000003002169 724400008000216 1234 1234 87654321 34567890 9D1FCFE97C100BF2C418A626C7BC957C 15357918 18753312 0020
89554000000003002177 724400008000217 1234 1234 87654321 34567890 4443ECA6AFDE53F46C7ED59ACBDBB024 15357918 18753312 0020
89554000000003002185 724400008000218 1234 1234 87654321 34567890 55A92228DD518BE384A5626136AB77A5 15357918 18753312 0020
89554000000003002193 724400008000219 1234 1234 87654321 34567890 802C99CBF763B37AFE215A9ACE9B8182 15357918 18753312 0020
89554000000003002201 724400008000220 1234 1234 87654321 34567890 776566C73D1DD477E23AC32C0686643C 15357918 18753312 0020
89554000000003002219 724400008000221 1234 1234 87654321 34567890 2D4B568437B9EEA1A7D3F336774CDCF9 15357918 18753312 0020
89554000000003002227 724400008000222 1234 1234 87654321 34567890 6AB7250B7F3B85AA09D2A5AE58D11B32 15357918 18753312 0020
89554000000003002235 724400008000223 1234 1234 87654321 34567890 B5CDC2CF519A13F7703B98F5751327E4 15357918 18753312 0020
89554000000003002243 724400008000224 1234 1234 87654321 34567890 B05502B416E1346978820F98296D5EC9 15357918 18753312 0020
89554000000003002250 724400008000225 1234 1234 87654321 34567890 AECF78AF70C2F6FB09EF4F4EF6F652CD 15357918 18753312 0020
89554000000003002268 724400008000226 1234 1234 87654321 34567890 DCE18879D70CC68C15AA72166FAB94E7 15357918 18753312 0020
89554000000003002276 724400008000227 1234 1234 87654321 34567890 85A2EB2CF493ED913422121C0AFA5060 15357918 18753312 0020
89554000000003002284 724400008000228 1234 1234 87654321 34567890 A7C7042F03DEE8E3512C6E12E22E3124 15357918 18753312 0020
89554000000003002292 724400008000229 1234 1234 87654321 34567890 500B5E699EA1856DA0E7F5B9029B0266 15357918 18753312 0020
89554000000003002300 724400008000230 1234 1234 87654321 34567890 900AC744ABA5894BB61482BC4CC4A98E 15357918 18753312 0020
89554000000003002318 724400008000231 1234 1234 87654321 34567890 CEC6A90292E2E492047C1859404E84D1 15357918 18753312 0020
89554000000003002326 724400008000232 1234 1234 87654321 34567890 FCB4A4325DB7AB11C998D4108E8B0086 15357918 18753312 0020
89554000000003002334 724400008000233 1234 1234 87654321 34567890 54EF1DF1D21DFA16F1377F58EC8E6E01 15357918 18753312 0020
89554000000003002342 724400008000234 1234 1234 87654321 34567890 E2FE960535D16D78E3ADCC8D68199946 15357918 18753312 0020
89554000000003002359 724400008000235 1234 1234 87654321 34567890 8D8D5248BDB1502C675F24BDBB657B43 15357918 18753312 0020
89554000000003002367 724400008000236 1234 1234 87654321 34567890 4F615CFEF545348D32E43D02ABAA172A 15357918 18753312 0020
89554000000003002375 724400008000237 1234 1234 87654321 34567890 3D559EED6423A24252701FD0C38B8290 15357918 18753312 0020
89554000000003002383 724400008000238 1234 1234 87654321 34567890 865214E5FA2565C65268633C2A4C1F2F 15357918 18753312 0020
89554000000003002391 724400008000239 1234 1234 87654321 34567890 92E41F91EBA649EF867BCB55B4A7D111 15357918 18753312 0020
89554000000003002409 724400008000240 1234 1234 87654321 34567890 1DAC5E8DF791D882C2A544CF5167F0DD 15357918 18753312 0020
89554000000003002417 724400008000241 1234 1234 87654321 34567890 7CBBB6224BDBB13FC3BEBEA84AD01EC1 15357918 18753312 0020
89554000000003002425 724400008000242 1234 1234 87654321 34567890 2833024B65544B3350A0282C9854B719 15357918 18753312 0020
89554000000003002433 724400008000243 1234 1234 87654321 34567890 EDC26A4BB6083FC2C21E68A1E9F0F28F 15357918 18753312 0020
89554000000003002441 724400008000244 1234 1234 87654321 34567890 D5F5A6E4B667FCA4EB1E647F8FE69C0B 15357918 18753312 0020
89554000000003002458 724400008000245 1234 1234 87654321 34567890 C9EB5FF8025A01762AF239B61B2E537C 15357918 18753312 0020
89554000000003002466 724400008000246 1234 1234 87654321 34567890 050AE4011FB86A691F9B54ABCAB8E3B4 15357918 18753312 0020
89554000000003002474 724400008000247 1234 1234 87654321 34567890 F066D684B96CC1EAA98B758C23ACB515 15357918 18753312 0020
89554000000003002482 724400008000248 1234 1234 87654321 34567890 A20D526430CFBCB395FD7FE19F100ADF 15357918 18753312 0020
89554000000003002490 724400008000249 1234 1234 87654321 34567890 405200194BA045F5A2713A22F7B4594F 15357918 18753312 0020
89554000000003002508 724400008000250 1234 1234 87654321 34567890 6A4C38C09D18F69B11FD13418A27BE9F 15357918 18753312 0020
89554000000003002516 724400008000251 1234 1234 87654321 34567890 05FE6688623BF88CF59E4D435AB59CA0 15357918 18753312 0020
89554000000003002524 724400008000252 1234 1234 87654321 34567890 D25E3CBC5173486D7C5B57A186DA36EB 15357918 18753312 0020
89554000000003002532 724400008000253 1234 1234 87654321 34567890 2437CEB532D1EEED8822271866690B36 15357918 18753312 0020
89554000000003002540 724400008000254 1234 1234 87654321 34567890 DBDEF278F98AEB60B3AADBFA28EECEC9 15357918 18753312 0020
89554000000003002557 724400008000255 1234 1234 87654321 34567890 CCF63D823667A765EBBA60EB0D6B3294 15357918 18753312 0020
89554000000003002565 724400008000256 1234 1234 87654321 34567890 0F75D1F66DA6F08FF80B3039581C2116 15357918 18753312 0020
89554000000003002573 724400008000257 1234 1234 87654321 34567890 BA4EEA1D51E16F2AA6480DB9FB81E542 15357918 18753312 0020
89554000000003002581 724400008000258 1234 1234 87654321 34567890 DAC1414C0D1D99DB12CFB1A374E6E005 15357918 18753312 0020
89554000000003002599 724400008000259 1234 1234 87654321 34567890 69BF9927B141C59F264E23EAD94EFD25 15357918 18753312 0020
89554000000003002607 724400008000260 1234 1234 87654321 34567890 45C26B9443E9AC2A0B13BD3F8BC50469 15357918 18753312 0020
89554000000003002615 724400008000261 1234 1234 87654321 34567890 3D3630FF47B743C5B61BC323C257D8E8 15357918 18753312 0020
89554000000003002623 724400008000262 1234 1234 87654321 34567890 1DDEDAA09319B7532C6CEED47F37A7A6 15357918 18753312 0020
89554000000003002631 724400008000263 1234 1234 87654321 34567890 95936CEBB61E74A069453E01FD48279B 15357918 18753312 0020
89554000000003002649 724400008000264 1234 1234 87654321 34567890 B6C9273314B11244AAD5B35931E14C1C 15357918 18753312 0020
89554000000003002656 724400008000265 1234 1234 87654321 34567890 82FF5D7107C3FCE8BC5195519F165732 15357918 18753312 0020
89554000000003002664 724400008000266 1234 1234 87654321 34567890 8F237FB8C687592A334EDE2A70595664 15357918 18753312 0020
89554000000003002672 724400008000267 1234 1234 87654321 34567890 B8735CCBED901CB314DC35D1105EB6ED 15357918 18753312 0020
89554000000003002680 724400008000268 1234 1234 87654321 34567890 C86D238D6AAECB6735F0C73C757FCAD3 15357918 18753312 0020
89554000000003002698 724400008000269 1234 1234 87654321 34567890 93F20390948B6B30089A2DFE836005AD 15357918 18753312 0020
89554000000003002706 724400008000270 1234 1234 87654321 34567890 691265976CCB8C9AF8280CB4053BC103 15357918 18753312 0020
89554000000003002714 724400008000271 1234 1234 87654321 34567890 9374C096EE7DCBC08FA0CC240F3B2FE8 15357918 18753312 0020
89554000000003002722 724400008000272 1234 1234 87654321 34567890 DFBE556B7E39D89D010069C821DC8D86 15357918 18753312 0020
89554000000003002730 724400008000273 1234 1234 87654321 34567890 C80AE1A3BCC22949B2928CACD0973388 15357918 18753312 0020
89554000000003002748 724400008000274 1234 1234 87654321 34567890 4B79CB4FD1B87F6D0466F57667263D06 15357918 18753312 0020
89554000000003002755 724400008000275 1234 1234 87654321 34567890 3361114AD0351C6AE57DF960383B43BE 15357918 18753312 0020
89554000000003002763 724400008000276 1234 1234 87654321 34567890 8811188970EF63B9BACD8F242DBBF810 15357918 18753312 0020
89554000000003002771 724400008000277 1234 1234 87654321 34567890 7C3B2C5EC0C1BD0A26D1236B4BE57526 15357918 18753312 0020
89554000000003002789 724400008000278 1234 1234 87654321 34567890 0CADA033DD15D09A61E2334F4966FF81 15357918 18753312 0020
89554000000003002797 724400008000279 1234 1234 87654321 34567890 1D4AE564B3FBEF9AD7404BA4DDB0D698 15357918 18753312 0020
89554000000003002805 724400008000280 1234 1234 87654321 34567890 8790FFD6B1E135C34A39FBD9F06DDAC9 15357918 18753312 0020
89554000000003002813 724400008000281 1234 1234 87654321 34567890 A5236340DE14EB57B4E565384DBD4269 15357918 18753312 0020
89554000000003002821 724400008000282 1234 1234 87654321 34567890 D8139A5DED038D1496DC8937EE28DC06 15357918 18753312 0020
89554000000003002839 724400008000283 1234 1234 87654321 34567890 41445B2F7FD3DC0E2A3D55AB7083181D 15357918 18753312 0020
89554000000003002847 724400008000284 1234 1234 87654321 34567890 A4821FF2CB66E47A3CA09463ABDE4F9F 15357918 18753312 0020
89554000000003002854 724400008000285 1234 1234 87654321 34567890 AB5A69B91DEDBA219D0D834761E7E83D 15357918 18753312 0020
89554000000003002862 724400008000286 1234 1234 87654321 34567890 03AD9F3A678626B3F2C5E6B4E8738F70 15357918 18753312 0020
89554000000003002870 724400008000287 1234 1234 87654321 34567890 0B618165F0143D1D38FE27157BF98DFD 15357918 18753312 0020
89554000000003002888 724400008000288 1234 1234 87654321 34567890 476C7D9EA44980D58B16D0DA8B03E09A 15357918 18753312 0020
89554000000003002896 724400008000289 1234 1234 87654321 34567890 BA5707272808080A2F066C7394C89CF2 15357918 18753312 0020
89554000000003002904 724400008000290 1234 1234 87654321 34567890 88D89CE58455D375318B24E89A2EBF08 15357918 18753312 0020
89554000000003002912 724400008000291 1234 1234 87654321 34567890 EEBF0BC4DE6B08AF25CBB90E76D908C1 15357918 18753312 0020
89554000000003002920 724400008000292 1234 1234 87654321 34567890 E4115CE984FA87D063324E2ADC09F9A6 15357918 18753312 0020
89554000000003002938 724400008000293 1234 1234 87654321 34567890 BB9C97E9988089506A793462DC17FDA0 15357918 18753312 0020
89554000000003002946 724400008000294 1234 1234 87654321 34567890 44A7ECB65B0210E1BA9A7F9DF3359229 15357918 18753312 0020
89554000000003002953 724400008000295 1234 1234 87654321 34567890 7F5CC43378DEFBDDE537CD489A8C6578 15357918 18753312 0020
89554000000003002961 724400008000296 1234 1234 87654321 34567890 1374448AFD00D81FEEE223CC17D1D5AE 15357918 18753312 0020
89554000000003002979 724400008000297 1234 1234 87654321 34567890 A63D53048A5076D298D1B8C0BE825088 15357918 18753312 0020
89554000000003002987 724400008000298 1234 1234 87654321 34567890 1969612DEBDF24050DFD837B43042BCE 15357918 18753312 0020
89554000000003002995 724400008000299 1234 1234 87654321 34567890 721EFB99F2D2A8935E08B120CC17CD5B 15357918 18753312 0020
89554000000003003001 724400008000300 1234 1234 87654321 34567890 FF029BB0AF0AD043F1553E7050B9802C 15357918 18753312 0020
89554000000003003019 724400008000301 1234 1234 87654321 34567890 B8EB5A68C8BB4E12097755765AD1D031 15357918 18753312 0020
89554000000003003027 724400008000302 1234 1234 87654321 34567890 DD95BE4CB075910E9785EA58FAF38C91 15357918 18753312 0020
89554000000003003035 724400008000303 1234 1234 87654321 34567890 C115AA10FB4AA896B760C05BE19E5B36 15357918 18753312 0020
89554000000003003043 724400008000304 1234 1234 87654321 34567890 146CCDDB5855D471804534AA06664ABE 15357918 18753312 0020
89554000000003003050 724400008000305 1234 1234 87654321 34567890 0BBCB31A9FAC8030E999C16FC99563B5 15357918 18753312 0020
89554000000003003068 724400008000306 1234 1234 87654321 34567890 F39B98BD5C1DD389FF83EDFC5753BF96 15357918 18753312 0020
89554000000003003076 724400008000307 1234 1234 87654321 34567890 BAAA5CEA051C7B195A35A19625DDC86C 15357918 18753312 0020
89554000000003003084 724400008000308 1234 1234 87654321 34567890 CCFA85C6C1EE8457B172FD2BDC6C7AD6 15357918 18753312 0020
89554000000003003092 724400008000309 1234 1234 87654321 34567890 52EA08211B87F9480206A5A6D2A83245 15357918 18753312 0020
89554000000003003100 724400008000310 1234 1234 87654321 34567890 8D28FC717F8FB6DAD70AE7A66751A0F3 15357918 18753312 0020
89554000000003003118 724400008000311 1234 1234 87654321 34567890 1C2C1334EA1E7E143F6D30AC48E12F95 15357918 18753312 0020
89554000000003003126 724400008000312 1234 1234 87654321 34567890 8321F901CFFD0A6F27D55DAF69AF401A 15357918 18753312 0020
89554000000003003134 724400008000313 1234 1234 87654321 34567890 1D7957C2A2C5D60E549B0CE46D377DD9 15357918 18753312 0020
89554000000003003142 724400008000314 1234 1234 87654321 34567890 0283DEBFDF701C4D32A397C64509C9DA 15357918 18753312 0020
89554000000003003159 724400008000315 1234 1234 87654321 34567890 4ED80819EF96F5D965C48C0407A02E33 15357918 18753312 0020
89554000000003003167 724400008000316 1234 1234 87654321 34567890 821BDDA94F4AB6996EBF7191F72719BC 15357918 18753312 0020
89554000000003003175 724400008000317 1234 1234 87654321 34567890 2642D4ED546E84CF4F7DE3EB48BEF578 15357918 18753312 0020
89554000000003003183 724400008000318 1234 1234 87654321 34567890 846D4F08D892938F31C68386E2B8152C 15357918 18753312 0020
89554000000003003191 724400008000319 1234 1234 87654321 34567890 06640CAD307E4D56AADF6B207B3A13FA 15357918 18753312 0020
89554000000003003209 724400008000320 1234 1234 87654321 34567890 A46B6998C9DE7FEFF606C83A13AA4BE7 15357918 18753312 0020
89554000000003003217 724400008000321 1234 1234 87654321 34567890 87F77A4B9B49B00AF905BFED84A9A70B 15357918 18753312 0020
89554000000003003225 724400008000322 1234 1234 87654321 34567890 86262C5B0F4D3C66512D8CB658D43024 15357918 18753312 0020
89554000000003003233 724400008000323 1234 1234 87654321 34567890 7260526FE0F66E6A4534162089607913 15357918 18753312 0020
89554000000003003241 724400008000324 1234 1234 87654321 34567890 6477413AF09E1C547F9A55BC6511C442 15357918 18753312 0020
89554000000003003258 724400008000325 1234 1234 87654321 34567890 425F6F1390B911BB7F1ADD4544F1414D 15357918 18753312 0020
89554000000003003266 724400008000326 1234 1234 87654321 34567890 569721312E9D183201919821EB3A53F4 15357918 18753312 0020
89554000000003003274 724400008000327 1234 1234 87654321 34567890 5B077860F7B87AAD036E7F8C9EC1C6C0 15357918 18753312 0020
89554000000003003282 724400008000328 1234 1234 87654321 34567890 D21BCBA842FE3FD1A5BDAC8863645BF0 15357918 18753312 0020
89554000000003003290 724400008000329 1234 1234 87654321 34567890 596F845A405063D9F159119FAAA7B10D 15357918 18753312 0020
89554000000003003308 724400008000330 1234 1234 87654321 34567890 96C4AC4DCBEFBCC8803036C8C0FCC6F1 15357918 18753312 0020
89554000000003003316 724400008000331 1234 1234 87654321 34567890 B3E96FAAA309BDB5042DEBD61969AE99 15357918 18753312 0020
89554000000003003324 724400008000332 1234 1234 87654321 34567890 6B3455793B29B5DE1CB790010CA57F16 15357918 18753312 0020
89554000000003003332 724400008000333 1234 1234 87654321 34567890 8000C381E329B98A46ACD2B70841A2AB 15357918 18753312 0020
89554000000003003340 724400008000334 1234 1234 87654321 34567890 EC317EA781F3F601E790CCDF87BAE2A6 15357918 18753312 0020
89554000000003003357 724400008000335 1234 1234 87654321 34567890 8602B92067DC3E6188698F2AF349361F 15357918 18753312 0020
89554000000003003365 724400008000336 1234 1234 87654321 34567890 6838A7492F62C5EBD0D1F1392DEDC8D6 15357918 18753312 0020
89554000000003003373 724400008000337 1234 1234 87654321 34567890 B7974C09F09D8020567CF0CB6FD63436 15357918 18753312 0020
89554000000003003381 724400008000338 1234 1234 87654321 34567890 A2D493C29C1E2CD9F6EB9DD5BC027615 15357918 18753312 0020
89554000000003003399 724400008000339 1234 1234 87654321 34567890 87B98242A81E31949ADBA454714BCA16 15357918 18753312 0020
89554000000003003407 724400008000340 1234 1234 87654321 34567890 18FC8BCF8EA0453EBF2A7E583A3FD58F 15357918 18753312 0020
89554000000003003415 724400008000341 1234 1234 87654321 34567890 26B23A31E726A333943E498EB29EF93B 15357918 18753312 0020
89554000000003003423 724400008000342 1234 1234 87654321 34567890 FCF834E8C3747FF94DD9D9E05421F4C8 15357918 18753312 0020
89554000000003003431 724400008000343 1234 1234 87654321 34567890 15C572A562553DA71967092B656B1FEB 15357918 18753312 0020
89554000000003003449 724400008000344 1234 1234 87654321 34567890 1F1C5626B65C2D100431B391247693DD 15357918 18753312 0020
89554000000003003456 724400008000345 1234 1234 87654321 34567890 883D0630B822BC302501AE67F39384A5 15357918 18753312 0020
89554000000003003464 724400008000346 1234 1234 87654321 34567890 0A2C79E283446722D68C3C8BE556AE09 15357918 18753312 0020
89554000000003003472 724400008000347 1234 1234 87654321 34567890 7D4C3397A9CC39BD19E66363B64D0BE6 15357918 18753312 0020
89554000000003003480 724400008000348 1234 1234 87654321 34567890 2AAB73F2CAD9D5548FFD43C1EB118F6D 15357918 18753312 0020
89554000000003003498 724400008000349 1234 1234 87654321 34567890 262A2552754B1436A62B35A0194E5BA2 15357918 18753312 0020
89554000000003003506 724400008000350 1234 1234 87654321 34567890 A46E451AC3832EAF144B9F0700EE80DF 15357918 18753312 0020
89554000000003003514 724400008000351 1234 1234 87654321 34567890 849C08B5809EEFCE7DCC176A7F188EF7 15357918 18753312 0020
89554000000003003522 724400008000352 1234 1234 87654321 34567890 0122A87EB9CA0AEAD4B18A73D1018AB2 15357918 18753312 0020
89554000000003003530 724400008000353 1234 1234 87654321 34567890 B0CF94B5A02C24C8EED94C8353FB4CED 15357918 18753312 0020
89554000000003003548 724400008000354 1234 1234 87654321 34567890 C7560AB9E1A473EE2429A5C58069E7C6 15357918 18753312 0020
89554000000003003555 724400008000355 1234 1234 87654321 34567890 D4862D5E4A320CC4B648354317A60B82 15357918 18753312 0020
89554000000003003563 724400008000356 1234 1234 87654321 34567890 571556E3ECF2D52575721FF56E0AE6C5 15357918 18753312 0020
89554000000003003571 724400008000357 1234 1234 87654321 34567890 1821224C4F0E306EBC899172D1B2D09B 15357918 18753312 0020
89554000000003003589 724400008000358 1234 1234 87654321 34567890 2F3A59D4A43776B312709C3C1B9841AD 15357918 18753312 0020
89554000000003003597 724400008000359 1234 1234 87654321 34567890 A23405EAA3931E374160D533A8AFA834 15357918 18753312 0020
89554000000003003605 724400008000360 1234 1234 87654321 34567890 B0B38ED9BB21207762B1D4C43E046182 15357918 18753312 0020
89554000000003003613 724400008000361 1234 1234 87654321 34567890 34DCBFF1E298FDC60001B9FF0BF1E337 15357918 18753312 0020
89554000000003003621 724400008000362 1234 1234 87654321 34567890 F4CAB84AAE4C95F5729BAD2121CD0585 15357918 18753312 0020
89554000000003003639 724400008000363 1234 1234 87654321 34567890 9D2F5DB0F2730653B6D0EE64E6D27DD8 15357918 18753312 0020
89554000000003003647 724400008000364 1234 1234 87654321 34567890 254B666CFD06DEF80A3D79BDF2B7EA8F 15357918 18753312 0020
89554000000003003654 724400008000365 1234 1234 87654321 34567890 88C24F92B90DD1E5780D9600EBA2B48E 15357918 18753312 0020
89554000000003003662 724400008000366 1234 1234 87654321 34567890 09E41DCE40EEFD699C02C661EA5D981D 15357918 18753312 0020
89554000000003003670 724400008000367 1234 1234 87654321 34567890 3F7FE22E18E1C6B90BFAD2BDAE40B818 15357918 18753312 0020
89554000000003003688 724400008000368 1234 1234 87654321 34567890 57E2D79EA1075438620652FFE323846E 15357918 18753312 0020
89554000000003003696 724400008000369 1234 1234 87654321 34567890 7CDA586618EB04D841607A60D71F0854 15357918 18753312 0020
89554000000003003704 724400008000370 1234 1234 87654321 34567890 8133072F291220A14C5E8CA138DA684F 15357918 18753312 0020
89554000000003003712 724400008000371 1234 1234 87654321 34567890 43D41F99BC5420A5C4BF04FBDE134156 15357918 18753312 0020
89554000000003003720 724400008000372 1234 1234 87654321 34567890 BB61DAC3E7C2B0B0921E5E52394FBB5C 15357918 18753312 0020
89554000000003003738 724400008000373 1234 1234 87654321 34567890 928A381E0E1E4167D78F3338EC1176B1 15357918 18753312 0020
89554000000003003746 724400008000374 1234 1234 87654321 34567890 0ABAD5DBD030C865F7355543EFC0C83A 15357918 18753312 0020
89554000000003003753 724400008000375 1234 1234 87654321 34567890 1C5F6A627897C889E8FF8012FD71E290 15357918 18753312 0020
89554000000003003761 724400008000376 1234 1234 87654321 34567890 65087EE1FF30C19E97529BCAF1873FEB 15357918 18753312 0020
89554000000003003779 724400008000377 1234 1234 87654321 34567890 12FE8785797AE12652833C78EE73F9F6 15357918 18753312 0020
89554000000003003787 724400008000378 1234 1234 87654321 34567890 84D0E0708FB3B41DDDB376925F5C8EA1 15357918 18753312 0020
89554000000003003795 724400008000379 1234 1234 87654321 34567890 F321C90B843D94EE9CD5A921BB170E85 15357918 18753312 0020
89554000000003003803 724400008000380 1234 1234 87654321 34567890 5FDC3CA4C65206F9A6FCDC600BDC5FC9 15357918 18753312 0020
89554000000003003811 724400008000381 1234 1234 87654321 34567890 3028908FED56E5055CF9E01AEE3D1B45 15357918 18753312 0020
89554000000003003829 724400008000382 1234 1234 87654321 34567890 FB786D2BDAA7E5DB6F3D59F1B7A9C882 15357918 18753312 0020
89554000000003003837 724400008000383 1234 1234 87654321 34567890 6394A3478F21927EA394A4830C54715C 15357918 18753312 0020
89554000000003003845 724400008000384 1234 1234 87654321 34567890 FA0ABED40998D44619FB7519E198BCD0 15357918 18753312 0020
89554000000003003852 724400008000385 1234 1234 87654321 34567890 005D833B6760442CE8EBAF9F66D02B94 15357918 18753312 0020
89554000000003003860 724400008000386 1234 1234 87654321 34567890 49741D41BC50D09018463F21EEF485EA 15357918 18753312 0020
89554000000003003878 724400008000387 1234 1234 87654321 34567890 02C881ACE336F1854EDDDCA71D3C7161 15357918 18753312 0020
89554000000003003886 724400008000388 1234 1234 87654321 34567890 7D9A616DBEB3685E475A28EA46EE66F7 15357918 18753312 0020
89554000000003003894 724400008000389 1234 1234 87654321 34567890 0442DCB1DB86AFC1B9FBD55BB3036F37 15357918 18753312 0020
89554000000003003902 724400008000390 1234 1234 87654321 34567890 4FC3F3CB90AE5759B6EFD6A9A6D4F626 15357918 18753312 0020
89554000000003003910 724400008000391 1234 1234 87654321 34567890 B44118D1F877FAE2EC47F0E47530E1BC 15357918 18753312 0020
89554000000003003928 724400008000392 1234 1234 87654321 34567890 887740421FC748EEC62E98FFA9BEABA9 15357918 18753312 0020
89554000000003003936 724400008000393 1234 1234 87654321 34567890 6C389CB4E4A71CE57EBB45127DEC0B12 15357918 18753312 0020
89554000000003003944 724400008000394 1234 1234 87654321 34567890 83441E5EB9E2167FF13E018C25288DD6 15357918 18753312 0020
89554000000003003951 724400008000395 1234 1234 87654321 34567890 0D601E3AA390358EFC1E4770848DFFB0 15357918 18753312 0020
89554000000003003969 724400008000396 1234 1234 87654321 34567890 D99B8510AB8B1E5D4EC7856E12BACF81 15357918 18753312 0020
89554000000003003977 724400008000397 1234 1234 87654321 34567890 EDBD5DAA8035C21BFE53880FE8697B50 15357918 18753312 0020
89554000000003003985 724400008000398 1234 1234 87654321 34567890 326C2B82FBD6BCEEBC268D1A0A8C9297 15357918 18753312 0020
89554000000003003993 724400008000399 1234 1234 87654321 34567890 8EF94A595B5A0843A2BAACDD5B75C044 15357918 18753312 0020
89554000000003004009 724400008000400 1234 1234 87654321 34567890 52C479ACB56E28C1017C2D9DEDA55FB0 15357918 18753312 0020
89554000000003004017 724400008000401 1234 1234 87654321 34567890 A329A0ADDDD7D42165EFEEC4F1299537 15357918 18753312 0020
89554000000003004025 724400008000402 1234 1234 87654321 34567890 198413D8F9D8E32F7BE86C239D75E9D9 15357918 18753312 0020
89554000000003004033 724400008000403 1234 1234 87654321 34567890 297E3CD6C5A7783A66CCDD6D19530E5A 15357918 18753312 0020
89554000000003004041 724400008000404 1234 1234 87654321 34567890 C0EB28896BE9FBC86748491A50A8C375 15357918 18753312 0020
89554000000003004058 724400008000405 1234 1234 87654321 34567890 3F58B11218171DD2353E7FED1CE9981C 15357918 18753312 0020
89554000000003004066 724400008000406 1234 1234 87654321 34567890 B1B200CFF32FD62BEFD0C2AA9FDB8B88 15357918 18753312 0020
89554000000003004074 724400008000407 1234 1234 87654321 34567890 9380D9895E4BA4B5CE83EF99399A901D 15357918 18753312 0020
89554000000003004082 724400008000408 1234 1234 87654321 34567890 20F7AEA1279ADE81A041ADB7E4A5ACA2 15357918 18753312 0020
89554000000003004090 724400008000409 1234 1234 87654321 34567890 2680020F691767C53FCC2DA7E2F09C89 15357918 18753312 0020
89554000000003004108 724400008000410 1234 1234 87654321 34567890 CE2CECE9FD2AF42E287675E8AC7D058B 15357918 18753312 0020
89554000000003004116 724400008000411 1234 1234 87654321 34567890 2C46BAC8E9C40CA2662AB48BA17589D3 15357918 18753312 0020
89554000000003004124 724400008000412 1234 1234 87654321 34567890 F764937B3927F03FE657A7BE23EBB425 15357918 18753312 0020
89554000000003004132 724400008000413 1234 1234 87654321 34567890 F5D099E86019A3BD3E7F335634A5BE20 15357918 18753312 0020
89554000000003004140 724400008000414 1234 1234 87654321 34567890 1338938BCFEF3BBCD31D337400CA55F9 15357918 18753312 0020
89554000000003004157 724400008000415 1234 1234 87654321 34567890 FE9DC63021E5A1BD264B0BBA25B793E3 15357918 18753312 0020
89554000000003004165 724400008000416 1234 1234 87654321 34567890 863EAF3CF608FEECA7668F9ABF011EBE 15357918 18753312 0020
89554000000003004173 724400008000417 1234 1234 87654321 34567890 AF6F96B28BA5994A1C3D97DDE9ADE0F0 15357918 18753312 0020
89554000000003004181 724400008000418 1234 1234 87654321 34567890 12DBAA4FE72A7A6571F3960C7C028B4A 15357918 18753312 0020
89554000000003004199 724400008000419 1234 1234 87654321 34567890 5CE2920C6BBF6855A91F8F9FB4C00E82 15357918 18753312 0020
89554000000003004207 724400008000420 1234 1234 87654321 34567890 4C6F76855B727E5B13D70EB18B92314C 15357918 18753312 0020
89554000000003004215 724400008000421 1234 1234 87654321 34567890 3E7DA62263AC1FA5175B61292C735534 15357918 18753312 0020
89554000000003004223 724400008000422 1234 1234 87654321 34567890 33B07E15B3CEBF4301F1A52EB4EE2D1E 15357918 18753312 0020
89554000000003004231 724400008000423 1234 1234 87654321 34567890 1B83C8358517CC558F7CC40C6944AA3B 15357918 18753312 0020
89554000000003004249 724400008000424 1234 1234 87654321 34567890 6136FFEC330500CD8F47F19D5BF42A4F 15357918 18753312 0020
89554000000003004256 724400008000425 1234 1234 87654321 34567890 C08944C094EC0334A1E619F9EBBBAE10 15357918 18753312 0020
89554000000003004264 724400008000426 1234 1234 87654321 34567890 9565BFC2354C38DDC36FDFE10DA427AE 15357918 18753312 0020
89554000000003004272 724400008000427 1234 1234 87654321 34567890 C0E803945F3FCBDC15AB5CB22734E22D 15357918 18753312 0020
89554000000003004280 724400008000428 1234 1234 87654321 34567890 B7B1C72A01A9BB756311FD2885FB39CB 15357918 18753312 0020
89554000000003004298 724400008000429 1234 1234 87654321 34567890 AFF95AA249A417499C0AEE255D8DADE9 15357918 18753312 0020
89554000000003004306 724400008000430 1234 1234 87654321 34567890 A683958832E84CF37C22FB71268F9558 15357918 18753312 0020
89554000000003004314 724400008000431 1234 1234 87654321 34567890 7CBDBBF234DE9A5A97A20370D2515B1F 15357918 18753312 0020
89554000000003004322 724400008000432 1234 1234 87654321 34567890 B978C05F4041E83A2542FAE11DC2E82A 15357918 18753312 0020
89554000000003004330 724400008000433 1234 1234 87654321 34567890 46E2534A3501D2C140A534ACF59A04D7 15357918 18753312 0020
89554000000003004348 724400008000434 1234 1234 87654321 34567890 4F494534415A79A33001C5EB9D43DF96 15357918 18753312 0020
89554000000003004355 724400008000435 1234 1234 87654321 34567890 802080AF7CE58B0D32F3C722C0C68AFA 15357918 18753312 0020
89554000000003004363 724400008000436 1234 1234 87654321 34567890 4E5EDDCE00935E50F8853D0090A338A7 15357918 18753312 0020
89554000000003004371 724400008000437 1234 1234 87654321 34567890 3A0DE71C3BD989CBB0D5B6F2213C8BF5 15357918 18753312 0020
89554000000003004389 724400008000438 1234 1234 87654321 34567890 827EA2C706644402008ADE0010965AB2 15357918 18753312 0020
89554000000003004397 724400008000439 1234 1234 87654321 34567890 D77D1D2EAD4590A77364C1201AD6409F 15357918 18753312 0020
89554000000003004405 724400008000440 1234 1234 87654321 34567890 1FB4AFE32D96E9904470F3720BE3201D 15357918 18753312 0020
89554000000003004413 724400008000441 1234 1234 87654321 34567890 2F283EC7CD611D88A2D5E81A1E9DDAAC 15357918 18753312 0020
89554000000003004421 724400008000442 1234 1234 87654321 34567890 DDAA62D79F9B3A3CC7733AB2EDFA99E1 15357918 18753312 0020
89554000000003004439 724400008000443 1234 1234 87654321 34567890 0BE153F6335F7DD4000DDD27DABCE8F0 15357918 18753312 0020
89554000000003004447 724400008000444 1234 1234 87654321 34567890 727EE8426F7750123EC239C4ED6D8C0E 15357918 18753312 0020
89554000000003004454 724400008000445 1234 1234 87654321 34567890 4EA58F74FBD60B1E8BB0618128EBCA1A 15357918 18753312 0020
89554000000003004462 724400008000446 1234 1234 87654321 34567890 EE99610C7693060882D5BD06F699CE6D 15357918 18753312 0020
89554000000003004470 724400008000447 1234 1234 87654321 34567890 BD6F192041A3F69C864F2BBB6A8D0B0C 15357918 18753312 0020
89554000000003004488 724400008000448 1234 1234 87654321 34567890 686283C3CA29F61A3D1908B05D7E50D4 15357918 18753312 0020
89554000000003004496 724400008000449 1234 1234 87654321 34567890 4C8052B3D4E8BE1C78844A1547E52EE5 15357918 18753312 0020
89554000000003004504 724400008000450 1234 1234 87654321 34567890 6233B5568949F0262E40022B524CF9B5 15357918 18753312 0020
89554000000003004512 724400008000451 1234 1234 87654321 34567890 B5343593680F98BA7E05234EC5970A16 15357918 18753312 0020
89554000000003004520 724400008000452 1234 1234 87654321 34567890 6C0D2ABCBB72866F15EE3B47F656AD38 15357918 18753312 0020
89554000000003004538 724400008000453 1234 1234 87654321 34567890 2FE77C476AA91EC0B60AA0AEA8259AD6 15357918 18753312 0020
89554000000003004546 724400008000454 1234 1234 87654321 34567890 30DE3FDC93C4ADDB709EE5D6BFC66BC6 15357918 18753312 0020
89554000000003004553 724400008000455 1234 1234 87654321 34567890 6B425BD9A924A62A7EC0EA9A042A3E92 15357918 18753312 0020
89554000000003004561 724400008000456 1234 1234 87654321 34567890 F0565AABD5EA7873ABD6520A06F835D4 15357918 18753312 0020
89554000000003004579 724400008000457 1234 1234 87654321 34567890 7E73079D17B01B7060774D90A57429DD 15357918 18753312 0020
89554000000003004587 724400008000458 1234 1234 87654321 34567890 B7612FCED58F2BEDCC9A6DBDCA116E4E 15357918 18753312 0020
89554000000003004595 724400008000459 1234 1234 87654321 34567890 84A3A4C5D782E7C9B018543D00AC3C10 15357918 18753312 0020
89554000000003004603 724400008000460 1234 1234 87654321 34567890 999D4050D5D581D14E6AB817D8E03F16 15357918 18753312 0020
89554000000003004611 724400008000461 1234 1234 87654321 34567890 63956F816BAE9A5316289DC3BCE69EF3 15357918 18753312 0020
89554000000003004629 724400008000462 1234 1234 87654321 34567890 A2F4B3AB55DAE4E3B1AE0B3E872808C5 15357918 18753312 0020
89554000000003004637 724400008000463 1234 1234 87654321 34567890 7E495C699F7D1404D332E51684B43640 15357918 18753312 0020
89554000000003004645 724400008000464 1234 1234 87654321 34567890 4FCCBF3B0F9C7821F84E10090B3CB827 15357918 18753312 0020
89554000000003004652 724400008000465 1234 1234 87654321 34567890 80C18059FB6E4089A4C564721BD6D8AC 15357918 18753312 0020
89554000000003004660 724400008000466 1234 1234 87654321 34567890 15A46CA366100716834FA2E8E116C9D5 15357918 18753312 0020
89554000000003004678 724400008000467 1234 1234 87654321 34567890 7864C528CBBF41083297709167BC27E6 15357918 18753312 0020
89554000000003004686 724400008000468 1234 1234 87654321 34567890 5EA469EE05244091B393F5168433501F 15357918 18753312 0020
89554000000003004694 724400008000469 1234 1234 87654321 34567890 E7C082A08CEDE4FD18C447A985A90645 15357918 18753312 0020
89554000000003004702 724400008000470 1234 1234 87654321 34567890 01BB91BC5AB4A31250B4C29468A20C16 15357918 18753312 0020
89554000000003004710 724400008000471 1234 1234 87654321 34567890 640EC713E8820D7F3573579327BA3148 15357918 18753312 0020
89554000000003004728 724400008000472 1234 1234 87654321 34567890 E67944BB50A7F9A277B4B1A81FDD51E4 15357918 18753312 0020
89554000000003004736 724400008000473 1234 1234 87654321 34567890 F806E51C142633DE649589299C2537D6 15357918 18753312 0020
89554000000003004744 724400008000474 1234 1234 87654321 34567890 06BF0B41BDA303F89F08FF799C8F5F95 15357918 18753312 0020
89554000000003004751 724400008000475 1234 1234 87654321 34567890 8C90831E1B5819847926E4DF12A5D57F 15357918 18753312 0020
89554000000003004769 724400008000476 1234 1234 87654321 34567890 EA1C1BD4E0EF458D7C0004D0F6069A9B 15357918 18753312 0020
89554000000003004777 724400008000477 1234 1234 87654321 34567890 2014CBE72D311BA19AE95000EDCDD269 15357918 18753312 0020
89554000000003004785 724400008000478 1234 1234 87654321 34567890 3BC3D860257B10FD1E043D401AF7A408 15357918 18753312 0020
89554000000003004793 724400008000479 1234 1234 87654321 34567890 60FD44ACD69952C487405865722C5576 15357918 18753312 0020
89554000000003004801 724400008000480 1234 1234 87654321 34567890 D7000FD9E1A74ADE7DE0B247BEC50E1F 15357918 18753312 0020
89554000000003004819 724400008000481 1234 1234 87654321 34567890 5BD8821DA34B7EB932F9DE40FB484B62 15357918 18753312 0020
89554000000003004827 724400008000482 1234 1234 87654321 34567890 DE5E4103DC9766290D035EBBDAF85ABD 15357918 18753312 0020
89554000000003004835 724400008000483 1234 1234 87654321 34567890 40FC5C6AAC8B65F808F5381CBC34DAA3 15357918 18753312 0020
89554000000003004843 724400008000484 1234 1234 87654321 34567890 E0A3C18B4DFA5CF9B18540120ECF5151 15357918 18753312 0020
89554000000003004850 724400008000485 1234 1234 87654321 34567890 65F691690767A02BFB4552FCB5AB7837 15357918 18753312 0020
89554000000003004868 724400008000486 1234 1234 87654321 34567890 6938DE1974A87399FF7D79771F677345 15357918 18753312 0020
89554000000003004876 724400008000487 1234 1234 87654321 34567890 7DA95EE0E14447E3797070A8C96A569C 15357918 18753312 0020
89554000000003004884 724400008000488 1234 1234 87654321 34567890 37BA36025CE4A1368DA4F9F46123C20B 15357918 18753312 0020
89554000000003004892 724400008000489 1234 1234 87654321 34567890 7CA8C22C15566584779681A490E2F9E1 15357918 18753312 0020
89554000000003004900 724400008000490 1234 1234 87654321 34567890 44C6BDB7EF8BA409397FF76E1AEB391E 15357918 18753312 0020
89554000000003004918 724400008000491 1234 1234 87654321 34567890 6DD4A9E4F183DC72908C4BDE01CE824B 15357918 18753312 0020
89554000000003004926 724400008000492 1234 1234 87654321 34567890 F7BD29DB8956585F89A5BF650D97811F 15357918 18753312 0020
89554000000003004934 724400008000493 1234 1234 87654321 34567890 61079EAE7DC985ADF6CFDEDED269A285 15357918 18753312 0020
89554000000003004942 724400008000494 1234 1234 87654321 34567890 E3CBA010AA8BCA69A77F1FB2DB54826D 15357918 18753312 0020
89554000000003004959 724400008000495 1234 1234 87654321 34567890 4148B9A81356A32D3481823D310E68FB 15357918 18753312 0020
89554000000003004967 724400008000496 1234 1234 87654321 34567890 90C0C622AB5003EE33288E00E2C33BED 15357918 18753312 0020
89554000000003004975 724400008000497 1234 1234 87654321 34567890 AA630CAEE4E3113B91805AA3FF5F29E0 15357918 18753312 0020
89554000000003004983 724400008000498 1234 1234 87654321 34567890 47D1105F0CA717C8C32125F43437FC8F 15357918 18753312 0020
89554000000003004991 724400008000499 1234 1234 87654321 34567890 83D935833E9057B452983566000387A2 15357918 18753312 0020
89554000000003005006 724400008000500 1234 1234 87654321 34567890 C74711685E6D8723917FB74D777642DF 15357918 18753312 0020
89554000000003005014 724400008000501 1234 1234 87654321 34567890 50878C134A73FCE30E1BD1C669468A36 15357918 18753312 0020
89554000000003005022 724400008000502 1234 1234 87654321 34567890 33CCB13FB2E9E8FA032734AE70476ACA 15357918 18753312 0020
89554000000003005030 724400008000503 1234 1234 87654321 34567890 AA501C9AE8BC81A67F42906D99F5D9D1 15357918 18753312 0020
89554000000003005048 724400008000504 1234 1234 87654321 34567890 6581460EA8101DBFD80658F3D6B7FAD9 15357918 18753312 0020
89554000000003005055 724400008000505 1234 1234 87654321 34567890 82D791ED777DE28BC610D3B7C752E9B5 15357918 18753312 0020
89554000000003005063 724400008000506 1234 1234 87654321 34567890 091FDA9B056F24791DA5C8896AE4078E 15357918 18753312 0020
89554000000003005071 724400008000507 1234 1234 87654321 34567890 BBA17C2BED6807CEAADA5B6C9F451F31 15357918 18753312 0020
89554000000003005089 724400008000508 1234 1234 87654321 34567890 1D1CD29B04F0BD8A5F1FA5F1A921C608 15357918 18753312 0020
89554000000003005097 724400008000509 1234 1234 87654321 34567890 70665439AF89EF703EEBBFE56D92369E 15357918 18753312 0020
89554000000003005105 724400008000510 1234 1234 87654321 34567890 E3CFA73C5949CBDA9EC630FD5CB30FE5 15357918 18753312 0020
89554000000003005113 724400008000511 1234 1234 87654321 34567890 82E994AF10956CD260E4703CADBB4E10 15357918 18753312 0020
89554000000003005121 724400008000512 1234 1234 87654321 34567890 3AF6183248AF5E2D0BB98395AC4125F2 15357918 18753312 0020
89554000000003005139 724400008000513 1234 1234 87654321 34567890 731269F053FD52A72C8232A36DF546C9 15357918 18753312 0020
89554000000003005147 724400008000514 1234 1234 87654321 34567890 49A4435572C016BAB5CCF77B5C2D1F25 15357918 18753312 0020
89554000000003005154 724400008000515 1234 1234 87654321 34567890 AAC4FB56CF59F561D9AECC2111EB6B2B 15357918 18753312 0020
89554000000003005162 724400008000516 1234 1234 87654321 34567890 96CACD246F16C98F458FA52367BC3DAC 15357918 18753312 0020
89554000000003005170 724400008000517 1234 1234 87654321 34567890 7248B3FC4EF2C0B4E94F172F1A96BE60 15357918 18753312 0020
89554000000003005188 724400008000518 1234 1234 87654321 34567890 1D5D6F012FAC123878F7E613786C1B83 15357918 18753312 0020
89554000000003005196 724400008000519 1234 1234 87654321 34567890 3ECB73CF628A07AF09837E702B956161 15357918 18753312 0020
89554000000003005204 724400008000520 1234 1234 87654321 34567890 1A827B27D9C50A17E36E41AF7114CBD0 15357918 18753312 0020
89554000000003005212 724400008000521 1234 1234 87654321 34567890 4859326A7204D8D01FD5DC54233895A4 15357918 18753312 0020
89554000000003005220 724400008000522 1234 1234 87654321 34567890 0892F1F8C436C99E2053C88C1503F38A 15357918 18753312 0020
89554000000003005238 724400008000523 1234 1234 87654321 34567890 177C91A5940D44CDE1D953A90DC2CE5E 15357918 18753312 0020
89554000000003005246 724400008000524 1234 1234 87654321 34567890 E6717E9D484BAC5DB72C3E0BE49225B4 15357918 18753312 0020
89554000000003005253 724400008000525 1234 1234 87654321 34567890 156BD9EF5645D41318E034325B2DAF2D 15357918 18753312 0020
89554000000003005261 724400008000526 1234 1234 87654321 34567890 3AB30381EDDAFC3C091B458E2B2FEBAE 15357918 18753312 0020
89554000000003005279 724400008000527 1234 1234 87654321 34567890 E4C235B29F19F4673B13BE00C45B53FF 15357918 18753312 0020
89554000000003005287 724400008000528 1234 1234 87654321 34567890 F026CFBCF962F9327C910B7AAA62B150 15357918 18753312 0020
89554000000003005295 724400008000529 1234 1234 87654321 34567890 18BFBE8CD341BB90A9B95B3100DD7E62 15357918 18753312 0020
89554000000003005303 724400008000530 1234 1234 87654321 34567890 36C0A9434231272E126495A3B0921F74 15357918 18753312 0020
89554000000003005311 724400008000531 1234 1234 87654321 34567890 CB35B5069FE12E00919E0B86C2D0598B 15357918 18753312 0020
89554000000003005329 724400008000532 1234 1234 87654321 34567890 00F6D80B68B6F325D0BF98386CFBFE62 15357918 18753312 0020
89554000000003005337 724400008000533 1234 1234 87654321 34567890 E3EABF7E80F228DF0DC3057DA1127B85 15357918 18753312 0020
89554000000003005345 724400008000534 1234 1234 87654321 34567890 CAD5C9E2314B3CE5F95B88553767DEF5 15357918 18753312 0020
89554000000003005352 724400008000535 1234 1234 87654321 34567890 B0CA96D3C27E1B4B7BA8422BFC188F6C 15357918 18753312 0020
89554000000003005360 724400008000536 1234 1234 87654321 34567890 3104B84A466CB1CCE734F8A3BAAF1BC9 15357918 18753312 0020
89554000000003005378 724400008000537 1234 1234 87654321 34567890 98A0C5D4693606C77E00967942B0631E 15357918 18753312 0020
89554000000003005386 724400008000538 1234 1234 87654321 34567890 4A1B90DCE4B11E6FC2A784A1123689B1 15357918 18753312 0020
89554000000003005394 724400008000539 1234 1234 87654321 34567890 23F5549F4615949BF9DF875F684C10D8 15357918 18753312 0020
89554000000003005402 724400008000540 1234 1234 87654321 34567890 0BA236BA995324D20B1DE82FED824E6B 15357918 18753312 0020
89554000000003005410 724400008000541 1234 1234 87654321 34567890 1081247CD7F82FCB6B2872E02E900387 15357918 18753312 0020
89554000000003005428 724400008000542 1234 1234 87654321 34567890 55991D567CD3F729C70D03177871B8ED 15357918 18753312 0020
89554000000003005436 724400008000543 1234 1234 87654321 34567890 FCEE57BBD5F9BFE9250CD8C44211E3F2 15357918 18753312 0020
89554000000003005444 724400008000544 1234 1234 87654321 34567890 771503CAEDD1EA989A3FE1A9AE200331 15357918 18753312 0020
89554000000003005451 724400008000545 1234 1234 87654321 34567890 44B2888EBA95B1C198FA827A4BD0721B 15357918 18753312 0020
89554000000003005469 724400008000546 1234 1234 87654321 34567890 554AC906A16DE155B4671683254CC1F7 15357918 18753312 0020
89554000000003005477 724400008000547 1234 1234 87654321 34567890 B7732868FB1D3829E57DA3DD6445407C 15357918 18753312 0020
89554000000003005485 724400008000548 1234 1234 87654321 34567890 455CBBA922847A7B052A5877D8055E96 15357918 18753312 0020
89554000000003005493 724400008000549 1234 1234 87654321 34567890 FD868931B510F5971204D7F42AE5D802 15357918 18753312 0020
89554000000003005501 724400008000550 1234 1234 87654321 34567890 ABB2604316B591E98AC05461848ED62B 15357918 18753312 0020
89554000000003005519 724400008000551 1234 1234 87654321 34567890 03174052229DB17FC0CBD2E3C9535926 15357918 18753312 0020
89554000000003005527 724400008000552 1234 1234 87654321 34567890 C961C8E89B3AEC2584E2B43497D0CA18 15357918 18753312 0020
89554000000003005535 724400008000553 1234 1234 87654321 34567890 D3897870A9CBEFA08A05CAB94DA90CAD 15357918 18753312 0020
89554000000003005543 724400008000554 1234 1234 87654321 34567890 EECAC36BBC373B0D98B99B0A1A5D83DC 15357918 18753312 0020
89554000000003005550 724400008000555 1234 1234 87654321 34567890 E85DBC8DDB3104FFD1B6AF4074814CBD 15357918 18753312 0020
89554000000003005568 724400008000556 1234 1234 87654321 34567890 9CB8C55F5E6FB8E97082CDD0946DB6EC 15357918 18753312 0020
89554000000003005576 724400008000557 1234 1234 87654321 34567890 89B2BD1B7D3735A410983ED2C784EBDA 15357918 18753312 0020
89554000000003005584 724400008000558 1234 1234 87654321 34567890 BF55F882E86DA0CA059E26BFE9FD78C2 15357918 18753312 0020
89554000000003005592 724400008000559 1234 1234 87654321 34567890 BC7523758FD0A704E17EE9B44C2F1FD6 15357918 18753312 0020
89554000000003005600 724400008000560 1234 1234 87654321 34567890 CB5614C33A038AA22F294D1CBF7D00EC 15357918 18753312 0020
89554000000003005618 724400008000561 1234 1234 87654321 34567890 1D5EA753F80E2A84C6B10973E68145F5 15357918 18753312 0020
89554000000003005626 724400008000562 1234 1234 87654321 34567890 D87F63EB583EAF653AAF600FCCE59053 15357918 18753312 0020
89554000000003005634 724400008000563 1234 1234 87654321 34567890 C483EC27D6A0F6301B09ED8309C49E80 15357918 18753312 0020
89554000000003005642 724400008000564 1234 1234 87654321 34567890 D7ADF36CADD4F9CD8A1A57CED858DADA 15357918 18753312 0020
89554000000003005659 724400008000565 1234 1234 87654321 34567890 85A95D6ABF27146777AEE49A1DB90526 15357918 18753312 0020
89554000000003005667 724400008000566 1234 1234 87654321 34567890 6453300D2B08EF9E18292316713A1969 15357918 18753312 0020
89554000000003005675 724400008000567 1234 1234 87654321 34567890 9B5037DA04E43A5C55F4DACAA9FE84FD 15357918 18753312 0020
89554000000003005683 724400008000568 1234 1234 87654321 34567890 7EF0AD20BBE10399247EDD6C1CB88900 15357918 18753312 0020
89554000000003005691 724400008000569 1234 1234 87654321 34567890 977BEC8EACE62C4ED05911619C7FDA32 15357918 18753312 0020
89554000000003005709 724400008000570 1234 1234 87654321 34567890 EEA9AE7ADFB66D7D694F7415E43FD91A 15357918 18753312 0020
89554000000003005717 724400008000571 1234 1234 87654321 34567890 508FEE5FC7A0F94B21CF0C90683573A0 15357918 18753312 0020
89554000000003005725 724400008000572 1234 1234 87654321 34567890 9CFB5BAAEB2D5C71905FC48C11D9C41E 15357918 18753312 0020
89554000000003005733 724400008000573 1234 1234 87654321 34567890 BBDC9DB94E2A98DFA6F3FBB58818E73B 15357918 18753312 0020
89554000000003005741 724400008000574 1234 1234 87654321 34567890 504A7C5A55D9AD2AAE53550AC3A42C08 15357918 18753312 0020
89554000000003005758 724400008000575 1234 1234 87654321 34567890 16719640919AAD74A7DD53D55705EB41 15357918 18753312 0020
89554000000003005766 724400008000576 1234 1234 87654321 34567890 11A9E9288F81C79E85CAFB8127D03EC6 15357918 18753312 0020
89554000000003005774 724400008000577 1234 1234 87654321 34567890 5590ABE265572F63EAB5E862B33EE252 15357918 18753312 0020
89554000000003005782 724400008000578 1234 1234 87654321 34567890 698AEC2C471C61E42C76B4A01939A437 15357918 18753312 0020
89554000000003005790 724400008000579 1234 1234 87654321 34567890 5477552A531AB452ECD25A4F0C3ADC57 15357918 18753312 0020
89554000000003005808 724400008000580 1234 1234 87654321 34567890 8DD5FC7196C9689D1040C3479C107B7B 15357918 18753312 0020
89554000000003005816 724400008000581 1234 1234 87654321 34567890 CB155149F77FBBB95ED6F0B56E70F830 15357918 18753312 0020
89554000000003005824 724400008000582 1234 1234 87654321 34567890 F2860E705FB010727462FC418995A78D 15357918 18753312 0020
89554000000003005832 724400008000583 1234 1234 87654321 34567890 73BCDF5B3189B6CCE5365DF0BE023918 15357918 18753312 0020
89554000000003005840 724400008000584 1234 1234 87654321 34567890 ABF934E7FB359AA04A26266AB8764425 15357918 18753312 0020
89554000000003005857 724400008000585 1234 1234 87654321 34567890 57F00FF7D7F2D4A6261B82F70FECC377 15357918 18753312 0020
89554000000003005865 724400008000586 1234 1234 87654321 34567890 AE8DE8D8D60339585F14B600AEEAC22D 15357918 18753312 0020
89554000000003005873 724400008000587 1234 1234 87654321 34567890 DC7709FAEC4BA2EC7F61C9373883900D 15357918 18753312 0020
89554000000003005881 724400008000588 1234 1234 87654321 34567890 1F4ED03487E4C94D2D5AFBF6CC94C327 15357918 18753312 0020
89554000000003005899 724400008000589 1234 1234 87654321 34567890 D3D02B85304CCC1DD2E22F5B36A43CBC 15357918 18753312 0020
89554000000003005907 724400008000590 1234 1234 87654321 34567890 1782438E8E5BE527902D212659FBD17D 15357918 18753312 0020
89554000000003005915 724400008000591 1234 1234 87654321 34567890 89FBE5EDF93E2DF45F3683B4D2581946 15357918 18753312 0020
89554000000003005923 724400008000592 1234 1234 87654321 34567890 F0967E6EA0075E8A5FA6ADDC0A93A3F4 15357918 18753312 0020
89554000000003005931 724400008000593 1234 1234 87654321 34567890 28B82759F53DC11907A8563DF03FC038 15357918 18753312 0020
89554000000003005949 724400008000594 1234 1234 87654321 34567890 EE4F1F370365EB567486ABDD2AA922EC 15357918 18753312 0020
89554000000003005956 724400008000595 1234 1234 87654321 34567890 CBBDF1C396BC4EFDC6A9D949D305FEAC 15357918 18753312 0020
89554000000003005964 724400008000596 1234 1234 87654321 34567890 B517E88882D90436D34F2A773E90D586 15357918 18753312 0020
89554000000003005972 724400008000597 1234 1234 87654321 34567890 EBBF0824EFF85B9354F0BA5B2C3079B0 15357918 18753312 0020
89554000000003005980 724400008000598 1234 1234 87654321 34567890 FA8D328BF2BA1B592F54F50553D762BB 15357918 18753312 0020
89554000000003005998 724400008000599 1234 1234 87654321 34567890 2623D71DA63C448F3D0F4261DC504688 15357918 18753312 0020
89554000000003006004 724400008000600 1234 1234 87654321 34567890 1551D724E005566F179B2FD56CD43182 15357918 18753312 0020
89554000000003006012 724400008000601 1234 1234 87654321 34567890 94AAFADB6FCFACF272183AC1C5CF3971 15357918 18753312 0020
89554000000003006020 724400008000602 1234 1234 87654321 34567890 8708610BCA55B79380177FA0A21FFFD4 15357918 18753312 0020
89554000000003006038 724400008000603 1234 1234 87654321 34567890 A2A7D679254DEA65F3392CED18105520 15357918 18753312 0020
89554000000003006046 724400008000604 1234 1234 87654321 34567890 6EBA28723DC1B97552E72C5695229CAE 15357918 18753312 0020
89554000000003006053 724400008000605 1234 1234 87654321 34567890 3CA74954C6C4C18C6D1775624B4B73ED 15357918 18753312 0020
89554000000003006061 724400008000606 1234 1234 87654321 34567890 C996CEB9FC40ECE77E24B383F70E7A12 15357918 18753312 0020
89554000000003006079 724400008000607 1234 1234 87654321 34567890 08E90D00DB07F296C14180E45C459DC5 15357918 18753312 0020
89554000000003006087 724400008000608 1234 1234 87654321 34567890 EA60A5C4BA449513DFFB5A42BB8AB6AE 15357918 18753312 0020
89554000000003006095 724400008000609 1234 1234 87654321 34567890 4B2611BF780FAB589F7D3552E885B83D 15357918 18753312 0020
89554000000003006103 724400008000610 1234 1234 87654321 34567890 195680F9CF7B73285239DF56F7DB40AB 15357918 18753312 0020
89554000000003006111 724400008000611 1234 1234 87654321 34567890 3E3A1EEB6273508794CBCB026AAFA9CA 15357918 18753312 0020
89554000000003006129 724400008000612 1234 1234 87654321 34567890 D89D3D05B8696208BE9077C40B112ACA 15357918 18753312 0020
89554000000003006137 724400008000613 1234 1234 87654321 34567890 DFFEF1B0ADCE0CF46495192614EE270E 15357918 18753312 0020
89554000000003006145 724400008000614 1234 1234 87654321 34567890 389F70C9BB25039D08BEAFEC7AE43080 15357918 18753312 0020
89554000000003006152 724400008000615 1234 1234 87654321 34567890 A5EB116F41EE4DD3AE08A1B001E7572D 15357918 18753312 0020
89554000000003006160 724400008000616 1234 1234 87654321 34567890 51A65D54B99B7DF04321982C627C78BD 15357918 18753312 0020
89554000000003006178 724400008000617 1234 1234 87654321 34567890 FB254FEEA7BDBC5437121802E53AFB53 15357918 18753312 0020
89554000000003006186 724400008000618 1234 1234 87654321 34567890 CC5D2B1B3F973790F0E4D77890D4511A 15357918 18753312 0020
89554000000003006194 724400008000619 1234 1234 87654321 34567890 D39D390B8DC5B4CC6893C2A412672CD3 15357918 18753312 0020
89554000000003006202 724400008000620 1234 1234 87654321 34567890 23B82F3E8A6CE44538BB68B20209EB84 15357918 18753312 0020
89554000000003006210 724400008000621 1234 1234 87654321 34567890 93AD1C40A767AD9AC9B9787B126DB09A 15357918 18753312 0020
89554000000003006228 724400008000622 1234 1234 87654321 34567890 AA35C4E64DFEC7881B6D0145C44398E6 15357918 18753312 0020
89554000000003006236 724400008000623 1234 1234 87654321 34567890 DA81E267A08576440BD2F41D72826177 15357918 18753312 0020
89554000000003006244 724400008000624 1234 1234 87654321 34567890 27802EF5B5E5F6611A92EA1837D1560D 15357918 18753312 0020
89554000000003006251 724400008000625 1234 1234 87654321 34567890 D72ECB5517686F717EDF60F73080A29F 15357918 18753312 0020
89554000000003006269 724400008000626 1234 1234 87654321 34567890 62B9264F8A98B2BD846FAA1971ECF5E1 15357918 18753312 0020
89554000000003006277 724400008000627 1234 1234 87654321 34567890 3E2D9A1B1E3166D36E49189248568A6A 15357918 18753312 0020
89554000000003006285 724400008000628 1234 1234 87654321 34567890 1D4B95BF45D4F5BFDE634CB19E4C4C41 15357918 18753312 0020
89554000000003006293 724400008000629 1234 1234 87654321 34567890 6C9CAAE7299E2219D3EDD897EBF4F3F8 15357918 18753312 0020
89554000000003006301 724400008000630 1234 1234 87654321 34567890 E27A6EADC4CC4402A8834E3872D4A05E 15357918 18753312 0020
89554000000003006319 724400008000631 1234 1234 87654321 34567890 BB30EA1564ACA86B515F4ECFB6050414 15357918 18753312 0020
89554000000003006327 724400008000632 1234 1234 87654321 34567890 13836B4E828D44B3A36CE205C845473A 15357918 18753312 0020
89554000000003006335 724400008000633 1234 1234 87654321 34567890 4F61CC4C008640DF4AD4951DDA3D3545 15357918 18753312 0020
89554000000003006343 724400008000634 1234 1234 87654321 34567890 5FEF4D5A1FC56B7DDC63D971FB1D49D7 15357918 18753312 0020
89554000000003006350 724400008000635 1234 1234 87654321 34567890 C1F1CA387AD5104DE120697382A6DD45 15357918 18753312 0020
89554000000003006368 724400008000636 1234 1234 87654321 34567890 83DD39DCC758D170AE2B04650EAB4CD7 15357918 18753312 0020
89554000000003006376 724400008000637 1234 1234 87654321 34567890 5EBDF00C44BF068651E9ABFBE224D13F 15357918 18753312 0020
89554000000003006384 724400008000638 1234 1234 87654321 34567890 320A4AFC3AA9CC62834C9834E2F053FB 15357918 18753312 0020
89554000000003006392 724400008000639 1234 1234 87654321 34567890 E3F191C90DC95F71D2C3A5227D28BFF0 15357918 18753312 0020
89554000000003006400 724400008000640 1234 1234 87654321 34567890 95246B5A6F365CFB9621AE1F7D26C738 15357918 18753312 0020
89554000000003006418 724400008000641 1234 1234 87654321 34567890 61468E56C21BD53B80CDAB581E76A1B3 15357918 18753312 0020
89554000000003006426 724400008000642 1234 1234 87654321 34567890 676ECA92C24DAA9A805916549CEFA142 15357918 18753312 0020
89554000000003006434 724400008000643 1234 1234 87654321 34567890 E3F8438D230E6021BA3B840AC0B2C651 15357918 18753312 0020
89554000000003006442 724400008000644 1234 1234 87654321 34567890 8E4A69D88ABA3A07DEDE09AD9EE93C57 15357918 18753312 0020
89554000000003006459 724400008000645 1234 1234 87654321 34567890 2A36CE3A6E00E8037997EC79A01BD910 15357918 18753312 0020
89554000000003006467 724400008000646 1234 1234 87654321 34567890 DA608A0C6F865714B978B3CF3E6897F0 15357918 18753312 0020
89554000000003006475 724400008000647 1234 1234 87654321 34567890 4761A089224282AAD72B870E50698CD8 15357918 18753312 0020
89554000000003006483 724400008000648 1234 1234 87654321 34567890 726355A346E8DDD715488337F6DDC583 15357918 18753312 0020
89554000000003006491 724400008000649 1234 1234 87654321 34567890 286B90138973B4BA1EA24BBC7B56C58E 15357918 18753312 0020
89554000000003006509 724400008000650 1234 1234 87654321 34567890 4C62EE6D7EEA80C13EED44170E1B0B4A 15357918 18753312 0020
89554000000003006517 724400008000651 1234 1234 87654321 34567890 B6AA48163AFA023D9E41DE7C767EF759 15357918 18753312 0020
89554000000003006525 724400008000652 1234 1234 87654321 34567890 254B78705CCCD20C36DB45C3A4A5741A 15357918 18753312 0020
89554000000003006533 724400008000653 1234 1234 87654321 34567890 004F1DEACF4A3E580EA405B0C0466051 15357918 18753312 0020
89554000000003006541 724400008000654 1234 1234 87654321 34567890 D394B753B53C002AD866F8C84BAF28D3 15357918 18753312 0020
89554000000003006558 724400008000655 1234 1234 87654321 34567890 394A1324B98E0B57A4428FFE69A5BA9E 15357918 18753312 0020
89554000000003006566 724400008000656 1234 1234 87654321 34567890 388246AC2170BD24B34371404EF92E50 15357918 18753312 0020
89554000000003006574 724400008000657 1234 1234 87654321 34567890 7DF0FEC8DD3B1CF2E2E9F353B3DF3773 15357918 18753312 0020
89554000000003006582 724400008000658 1234 1234 87654321 34567890 B59096BDC99151E23CEFAEC133E1AFA8 15357918 18753312 0020
89554000000003006590 724400008000659 1234 1234 87654321 34567890 08061BCFBF2114FCF5CE41F0557D2ABA 15357918 18753312 0020
89554000000003006608 724400008000660 1234 1234 87654321 34567890 E40DA7ACF34FC89410F27A749730BBEF 15357918 18753312 0020
89554000000003006616 724400008000661 1234 1234 87654321 34567890 52875A8420FDE674376A677BFF8EE1DB 15357918 18753312 0020
89554000000003006624 724400008000662 1234 1234 87654321 34567890 01C19EE0CE6F04DA903F420BFAC44DD3 15357918 18753312 0020
89554000000003006632 724400008000663 1234 1234 87654321 34567890 178208132A5923DA5635F13CC9C87C43 15357918 18753312 0020
89554000000003006640 724400008000664 1234 1234 87654321 34567890 099A756DD959709D1F61D33C2EE0A02A 15357918 18753312 0020
89554000000003006657 724400008000665 1234 1234 87654321 34567890 F115BB3DD93A414CD7495F05E5B81E83 15357918 18753312 0020
89554000000003006665 724400008000666 1234 1234 87654321 34567890 1CE090EC61E15BB25C8550325A49528A 15357918 18753312 0020
89554000000003006673 724400008000667 1234 1234 87654321 34567890 5366FA1BA6BFE0AA9BA10BAEDBF9242B 15357918 18753312 0020
89554000000003006681 724400008000668 1234 1234 87654321 34567890 3B64D70FB9986766A3907551240BEBB9 15357918 18753312 0020
89554000000003006699 724400008000669 1234 1234 87654321 34567890 998A68342ABB879959102A26DE6E7D23 15357918 18753312 0020
89554000000003006707 724400008000670 1234 1234 87654321 34567890 239EF141AA5878D11F9EAAA4C12CED13 15357918 18753312 0020
89554000000003006715 724400008000671 1234 1234 87654321 34567890 B62AE371C1A101E8FC934B837D5D74BB 15357918 18753312 0020
89554000000003006723 724400008000672 1234 1234 87654321 34567890 C047E56AC37620FA4E576B0FB623D61A 15357918 18753312 0020
89554000000003006731 724400008000673 1234 1234 87654321 34567890 5D0598BFF48A8DB342E54153FE0564F3 15357918 18753312 0020
89554000000003006749 724400008000674 1234 1234 87654321 34567890 77CC443067826A0F55675E8C15876FD8 15357918 18753312 0020
89554000000003006756 724400008000675 1234 1234 87654321 34567890 A3B2C0C46D4DE92D5E4932E602DA71F6 15357918 18753312 0020
89554000000003006764 724400008000676 1234 1234 87654321 34567890 58B9779BAC668963BFD10A408705DA00 15357918 18753312 0020
89554000000003006772 724400008000677 1234 1234 87654321 34567890 E70E7A86A3AB4588A9C18C0AFA93747F 15357918 18753312 0020
89554000000003006780 724400008000678 1234 1234 87654321 34567890 D8CD0A68FE88110EEC70EF8F5B5D7EF3 15357918 18753312 0020
89554000000003006798 724400008000679 1234 1234 87654321 34567890 F0ED96D007C3AE0C025D7FC12F31EFEC 15357918 18753312 0020
89554000000003006806 724400008000680 1234 1234 87654321 34567890 1B357EEB26F165A419A347800A2F157E 15357918 18753312 0020
89554000000003006814 724400008000681 1234 1234 87654321 34567890 30659DEAA9711B3478318851CA2CC702 15357918 18753312 0020
89554000000003006822 724400008000682 1234 1234 87654321 34567890 E0366A69D0C9C5C6CBB40D39DE4A08D9 15357918 18753312 0020
89554000000003006830 724400008000683 1234 1234 87654321 34567890 EADAC9ED7B63A139930F4B6E1778212D 15357918 18753312 0020
89554000000003006848 724400008000684 1234 1234 87654321 34567890 D9D06396E7F09A3A078DC9FB65F4ADF4 15357918 18753312 0020
89554000000003006855 724400008000685 1234 1234 87654321 34567890 F255F2D5E9C77FA8E02FF2DAD6F48849 15357918 18753312 0020
89554000000003006863 724400008000686 1234 1234 87654321 34567890 49DC87BA39D19276379226A0B6CD6A4B 15357918 18753312 0020
89554000000003006871 724400008000687 1234 1234 87654321 34567890 6FAD62ED788002BE63ADD95554C5358A 15357918 18753312 0020
89554000000003006889 724400008000688 1234 1234 87654321 34567890 312CBC5506802B6715A52B344E53F01C 15357918 18753312 0020
89554000000003006897 724400008000689 1234 1234 87654321 34567890 674AC58547ABF35D64E1067ECF5D3E39 15357918 18753312 0020
89554000000003006905 724400008000690 1234 1234 87654321 34567890 A49AB07F15ECBC75FE91E100CC8591BC 15357918 18753312 0020
89554000000003006913 724400008000691 1234 1234 87654321 34567890 06AC138983F8A415F2FFC017C5DCCF98 15357918 18753312 0020
89554000000003006921 724400008000692 1234 1234 87654321 34567890 091D40CABF507535D82618DF0D8F80AE 15357918 18753312 0020
89554000000003006939 724400008000693 1234 1234 87654321 34567890 D7FE9641069817E0ABF762B35CFE86A0 15357918 18753312 0020
89554000000003006947 724400008000694 1234 1234 87654321 34567890 03E06A67B8E2B3497F7FB3E383324D0E 15357918 18753312 0020
89554000000003006954 724400008000695 1234 1234 87654321 34567890 DC9FCA33FA606D2530DED5333BE8B222 15357918 18753312 0020
89554000000003006962 724400008000696 1234 1234 87654321 34567890 7BC743E55D17E588EAADC3CCEC013C18 15357918 18753312 0020
89554000000003006970 724400008000697 1234 1234 87654321 34567890 E2CEE73076008AAAF705B1F37BE9B4FF 15357918 18753312 0020
89554000000003006988 724400008000698 1234 1234 87654321 34567890 B1B2D32ED922501B075D94F5656B7177 15357918 18753312 0020
89554000000003006996 724400008000699 1234 1234 87654321 34567890 F5031D93579F84482A9083B6323E78E3 15357918 18753312 0020
89554000000003007002 724400008000700 1234 1234 87654321 34567890 9FDA779E3836F73EF56BAFFAD7C64DE1 15357918 18753312 0020
89554000000003007010 724400008000701 1234 1234 87654321 34567890 9A2DE906D9C4B4BF100B513A24AFFF84 15357918 18753312 0020
89554000000003007028 724400008000702 1234 1234 87654321 34567890 5255DA54C614DED2C1900372CB736B88 15357918 18753312 0020
89554000000003007036 724400008000703 1234 1234 87654321 34567890 86687626BDF5B8751855CAC1E2181BD0 15357918 18753312 0020
89554000000003007044 724400008000704 1234 1234 87654321 34567890 A0A9C4C4E06E3B5E230059B12DE135B1 15357918 18753312 0020
89554000000003007051 724400008000705 1234 1234 87654321 34567890 459BB7BFDBB2A1390F897F5460F3F315 15357918 18753312 0020
89554000000003007069 724400008000706 1234 1234 87654321 34567890 FFDACAFFF66032703114781047FA2551 15357918 18753312 0020
89554000000003007077 724400008000707 1234 1234 87654321 34567890 26CD769D6A6E35C58B1FC8632B863324 15357918 18753312 0020
89554000000003007085 724400008000708 1234 1234 87654321 34567890 FA70B335CAE3A5271AD22DB8998F2195 15357918 18753312 0020
89554000000003007093 724400008000709 1234 1234 87654321 34567890 1A2FFC4DECCA4D67CAF1050826899DE7 15357918 18753312 0020
89554000000003007101 724400008000710 1234 1234 87654321 34567890 D0FE8A8903654E5425DB11B5E995C38B 15357918 18753312 0020
89554000000003007119 724400008000711 1234 1234 87654321 34567890 95CA217D96A7D40B98130CA5FC64252D 15357918 18753312 0020
89554000000003007127 724400008000712 1234 1234 87654321 34567890 CCBD122B9A88169C776C9F0F5DF8BCA4 15357918 18753312 0020
89554000000003007135 724400008000713 1234 1234 87654321 34567890 A877ECFEC03641D4BF84122E3C499183 15357918 18753312 0020
89554000000003007143 724400008000714 1234 1234 87654321 34567890 D9A3E0F51867208D6C51D4DAE56CDCCB 15357918 18753312 0020
89554000000003007150 724400008000715 1234 1234 87654321 34567890 565FC014CCA6FAAF6090DFF727E250C6 15357918 18753312 0020
89554000000003007168 724400008000716 1234 1234 87654321 34567890 0C4ABB263F94821810834149E5B788D7 15357918 18753312 0020
89554000000003007176 724400008000717 1234 1234 87654321 34567890 7077D92BBC2BF307D2AE440CBD4FF65F 15357918 18753312 0020
89554000000003007184 724400008000718 1234 1234 87654321 34567890 C654A7987CC081395741EAE014847408 15357918 18753312 0020
89554000000003007192 724400008000719 1234 1234 87654321 34567890 7956E973D1F1FCA704822722EFD2D6DA 15357918 18753312 0020
89554000000003007200 724400008000720 1234 1234 87654321 34567890 0DAAF4E928C62F43C0F31C17BEC6B3D0 15357918 18753312 0020
89554000000003007218 724400008000721 1234 1234 87654321 34567890 029F3A654060439DE9E5260B698C85CA 15357918 18753312 0020
89554000000003007226 724400008000722 1234 1234 87654321 34567890 070C12D1311285FA824D981E3169296B 15357918 18753312 0020
89554000000003007234 724400008000723 1234 1234 87654321 34567890 C9BB4724A002A221FB187F2611B06631 15357918 18753312 0020
89554000000003007242 724400008000724 1234 1234 87654321 34567890 6C76A93298043EC6E03A1ECBB1AEC0FC 15357918 18753312 0020
89554000000003007259 724400008000725 1234 1234 87654321 34567890 21822BA2E97493158ADBD469593042BF 15357918 18753312 0020
89554000000003007267 724400008000726 1234 1234 87654321 34567890 888D3D32B694DF40973E1D61C3ACACA5 15357918 18753312 0020
89554000000003007275 724400008000727 1234 1234 87654321 34567890 252F72FC2207E45940B3C345CCAF33ED 15357918 18753312 0020
89554000000003007283 724400008000728 1234 1234 87654321 34567890 CAC6C98508017BBC3361A5D912C475D1 15357918 18753312 0020
89554000000003007291 724400008000729 1234 1234 87654321 34567890 06D79B4D30F3241909CFEA404DBFFC41 15357918 18753312 0020
89554000000003007309 724400008000730 1234 1234 87654321 34567890 203E70509B22366DC8DF7D9397C87C2F 15357918 18753312 0020
89554000000003007317 724400008000731 1234 1234 87654321 34567890 C193BC2D9945383ED9C0C45606A15D1C 15357918 18753312 0020
89554000000003007325 724400008000732 1234 1234 87654321 34567890 5F6D9FC5B3275C1C7769F72670572BA5 15357918 18753312 0020
89554000000003007333 724400008000733 1234 1234 87654321 34567890 39AB4B0EAF34659760E212C9945CE529 15357918 18753312 0020
89554000000003007341 724400008000734 1234 1234 87654321 34567890 114F93C8ABAA0B126DBA6A20B6A00B9E 15357918 18753312 0020
89554000000003007358 724400008000735 1234 1234 87654321 34567890 2F9CBA6B8F6900C8BB9D81FD5556B81B 15357918 18753312 0020
89554000000003007366 724400008000736 1234 1234 87654321 34567890 338C085C3A0744D361F7B5E2E9AC2874 15357918 18753312 0020
89554000000003007374 724400008000737 1234 1234 87654321 34567890 9E6D2028F24EA991FAF25C928AC2836C 15357918 18753312 0020
89554000000003007382 724400008000738 1234 1234 87654321 34567890 AABFD51A7BCD1C37A80FDDD6CA19181C 15357918 18753312 0020
89554000000003007390 724400008000739 1234 1234 87654321 34567890 C0500C678DFE27130F102F311AEE11C6 15357918 18753312 0020
89554000000003007408 724400008000740 1234 1234 87654321 34567890 83168F38165EBB09312F6D03D5EA8C5E 15357918 18753312 0020
89554000000003007416 724400008000741 1234 1234 87654321 34567890 7E0786BBC1BC02E26B3E290A300A1173 15357918 18753312 0020
89554000000003007424 724400008000742 1234 1234 87654321 34567890 FBAEBBCCB7A1452422DE9653690A617B 15357918 18753312 0020
89554000000003007432 724400008000743 1234 1234 87654321 34567890 5705C9B231FF8A236713697F017BA9DC 15357918 18753312 0020
89554000000003007440 724400008000744 1234 1234 87654321 34567890 260B12D77EB3D03C0BBD3C4781098CD3 15357918 18753312 0020
89554000000003007457 724400008000745 1234 1234 87654321 34567890 BD64AE2B7EF932057D795EFD53EBF43E 15357918 18753312 0020
89554000000003007465 724400008000746 1234 1234 87654321 34567890 BB50727B42F00CA778EF8F1E5676E889 15357918 18753312 0020
89554000000003007473 724400008000747 1234 1234 87654321 34567890 817C5A348B6271AB6659FF170C3ACC94 15357918 18753312 0020
89554000000003007481 724400008000748 1234 1234 87654321 34567890 A4E350FF8DE9674FF5429E2F1BE4B864 15357918 18753312 0020
89554000000003007499 724400008000749 1234 1234 87654321 34567890 C8506772CB7F01BF89B3E923A80F1F7A 15357918 18753312 0020
89554000000003007507 724400008000750 1234 1234 87654321 34567890 9D2DAAE289FDA2A8BA74B0ED130D4635 15357918 18753312 0020
89554000000003007515 724400008000751 1234 1234 87654321 34567890 E360062B7B33CAA1B1F130647F77ED62 15357918 18753312 0020
89554000000003007523 724400008000752 1234 1234 87654321 34567890 9E19CAFD21FB989662256D1FAE410F7D 15357918 18753312 0020
89554000000003007531 724400008000753 1234 1234 87654321 34567890 FC755C20D98BC028646F3FF0C4DD4714 15357918 18753312 0020
89554000000003007549 724400008000754 1234 1234 87654321 34567890 2A73D430CD4A805803CDE1E4A9CC4265 15357918 18753312 0020
89554000000003007556 724400008000755 1234 1234 87654321 34567890 75163BE9EAB507C079FB3FE31AF27715 15357918 18753312 0020
89554000000003007564 724400008000756 1234 1234 87654321 34567890 3E656C6292F5BE8962B61A74D8911E5B 15357918 18753312 0020
89554000000003007572 724400008000757 1234 1234 87654321 34567890 C5D3CF751E690E522A2A3D44F39C7890 15357918 18753312 0020
89554000000003007580 724400008000758 1234 1234 87654321 34567890 4A8A08BCA2C88BBD7CCFFDC530276EDC 15357918 18753312 0020
89554000000003007598 724400008000759 1234 1234 87654321 34567890 C7A446249D01F765F4ECF564C4F4DA06 15357918 18753312 0020
89554000000003007606 724400008000760 1234 1234 87654321 34567890 D94DE2A3A7364966C753E3C4AFE2FC66 15357918 18753312 0020
89554000000003007614 724400008000761 1234 1234 87654321 34567890 71D3ABC37779C6A7A5BD8EF8E79A09C4 15357918 18753312 0020
89554000000003007622 724400008000762 1234 1234 87654321 34567890 8C7819BBC0C77795BD08D749088AECB4 15357918 18753312 0020
89554000000003007630 724400008000763 1234 1234 87654321 34567890 EDB9B53B456A701729F1229EA0C5BF24 15357918 18753312 0020
89554000000003007648 724400008000764 1234 1234 87654321 34567890 C3B7D05FF00A57FF4F7621BF4F8B5F0A 15357918 18753312 0020
89554000000003007655 724400008000765 1234 1234 87654321 34567890 915A1903071B925F12EC304EB5D5624E 15357918 18753312 0020
89554000000003007663 724400008000766 1234 1234 87654321 34567890 743482738F93B2ED813BBC12EBD3B1F2 15357918 18753312 0020
89554000000003007671 724400008000767 1234 1234 87654321 34567890 3785C6C383D7D847BA9B0A85199CA40C 15357918 18753312 0020
89554000000003007689 724400008000768 1234 1234 87654321 34567890 C01A3F16B227FEA7B043BD7C2F02F03A 15357918 18753312 0020
89554000000003007697 724400008000769 1234 1234 87654321 34567890 A6B1D6278A5191C7CC7D22AB9C2249F0 15357918 18753312 0020
89554000000003007705 724400008000770 1234 1234 87654321 34567890 5760990D16B9D40F8191F416C2EC7923 15357918 18753312 0020
89554000000003007713 724400008000771 1234 1234 87654321 34567890 A7A129567784451808FCAF404A842124 15357918 18753312 0020
89554000000003007721 724400008000772 1234 1234 87654321 34567890 8B7F33FFA3A796FDDD63ECA34731B6E9 15357918 18753312 0020
89554000000003007739 724400008000773 1234 1234 87654321 34567890 131CA1E11B6205ED03872883A6B8F492 15357918 18753312 0020
89554000000003007747 724400008000774 1234 1234 87654321 34567890 5B9978B22DD98442501BCE6DC63B94EC 15357918 18753312 0020
89554000000003007754 724400008000775 1234 1234 87654321 34567890 E7F5BDE7ABC419D0F75AFF844C2BD5A2 15357918 18753312 0020
89554000000003007762 724400008000776 1234 1234 87654321 34567890 4CAE8C06EE32E39015DE83EB67377F8F 15357918 18753312 0020
89554000000003007770 724400008000777 1234 1234 87654321 34567890 8D01B611B5EBB0F7247C3CD215A6A8DB 15357918 18753312 0020
89554000000003007788 724400008000778 1234 1234 87654321 34567890 C22D1C9DCB65065F678FE90251AF5D05 15357918 18753312 0020
89554000000003007796 724400008000779 1234 1234 87654321 34567890 0978B0ACD676AC00993C41A16BF97040 15357918 18753312 0020
89554000000003007804 724400008000780 1234 1234 87654321 34567890 FF81F4D4C0B17E2A86A93E437BF4F3F5 15357918 18753312 0020
89554000000003007812 724400008000781 1234 1234 87654321 34567890 687FFB7E71DDD3C590B3BC9CFAAF3157 15357918 18753312 0020
89554000000003007820 724400008000782 1234 1234 87654321 34567890 B9C3C8C14499EF3CE5CC96A23465FEC3 15357918 18753312 0020
89554000000003007838 724400008000783 1234 1234 87654321 34567890 F9264282B8666BA5E884E60C128C46D6 15357918 18753312 0020
89554000000003007846 724400008000784 1234 1234 87654321 34567890 32D213B01A42EFFC132D3E0D509DF9CE 15357918 18753312 0020
89554000000003007853 724400008000785 1234 1234 87654321 34567890 0DA25BCE2480B2719E576DE63CFB39E4 15357918 18753312 0020
89554000000003007861 724400008000786 1234 1234 87654321 34567890 5EE5B2BAAC42F538CE56CD9123071A15 15357918 18753312 0020
89554000000003007879 724400008000787 1234 1234 87654321 34567890 230E90BA8986599329D6B4DD6449521B 15357918 18753312 0020
89554000000003007887 724400008000788 1234 1234 87654321 34567890 C35591FC26D9C455B20A786841D122FB 15357918 18753312 0020
89554000000003007895 724400008000789 1234 1234 87654321 34567890 E9471730383DBD5FEF42662E389CF950 15357918 18753312 0020
89554000000003007903 724400008000790 1234 1234 87654321 34567890 D0F517962E690DEEA23F0700F85DC450 15357918 18753312 0020
89554000000003007911 724400008000791 1234 1234 87654321 34567890 F92593221EE4E45F707B8F224661DC97 15357918 18753312 0020
89554000000003007929 724400008000792 1234 1234 87654321 34567890 F2A54DEEF170A9EBE384839DB5FAA9C1 15357918 18753312 0020
89554000000003007937 724400008000793 1234 1234 87654321 34567890 10A9675C1B4FA869FE8946C981CB76A3 15357918 18753312 0020
89554000000003007945 724400008000794 1234 1234 87654321 34567890 306C7611702D6B46B9DA722390623E31 15357918 18753312 0020
89554000000003007952 724400008000795 1234 1234 87654321 34567890 84D5C8A4040A7A2A5EB96BF7CEF8C2AE 15357918 18753312 0020
89554000000003007960 724400008000796 1234 1234 87654321 34567890 2C3458377A7FC500809C61E8AC122ECB 15357918 18753312 0020
89554000000003007978 724400008000797 1234 1234 87654321 34567890 1C10AE5E735F9F8EB851F03762BF18F7 15357918 18753312 0020
89554000000003007986 724400008000798 1234 1234 87654321 34567890 AD559B41F828BDE9A37254B54EFC928F 15357918 18753312 0020
89554000000003007994 724400008000799 1234 1234 87654321 34567890 3F0F8586FFD188879E64E911ED97BCDF 15357918 18753312 0020
89554000000003008000 724400008000800 1234 1234 87654321 34567890 E93BB5459C4742BABB80D4EA47D15F69 15357918 18753312 0020
89554000000003008018 724400008000801 1234 1234 87654321 34567890 8C3FF496FF776B575D2C8906F0A7CB2A 15357918 18753312 0020
89554000000003008026 724400008000802 1234 1234 87654321 34567890 EE5CA0139D42266E3A655D387DC1F668 15357918 18753312 0020
89554000000003008034 724400008000803 1234 1234 87654321 34567890 11C1E3D81CA2B47FA7ACFAB1961959E3 15357918 18753312 0020
89554000000003008042 724400008000804 1234 1234 87654321 34567890 FB0F50A8EC8F3094FD3C259652A0D798 15357918 18753312 0020
89554000000003008059 724400008000805 1234 1234 87654321 34567890 9493B1B86B28629D3AE130AE8DE2CA7D 15357918 18753312 0020
89554000000003008067 724400008000806 1234 1234 87654321 34567890 797D15810AAEC6B72C86CF9E27E0C441 15357918 18753312 0020
89554000000003008075 724400008000807 1234 1234 87654321 34567890 B7199B4E6FF09D0A9438134852F63822 15357918 18753312 0020
89554000000003008083 724400008000808 1234 1234 87654321 34567890 CA98A74CCA2B04D5D5154C984980B740 15357918 18753312 0020
89554000000003008091 724400008000809 1234 1234 87654321 34567890 2EE2A28E02E7DF6EFF6333B9513862FA 15357918 18753312 0020
89554000000003008109 724400008000810 1234 1234 87654321 34567890 6F7138437A16A3CC1E6429C28E3430B5 15357918 18753312 0020
89554000000003008117 724400008000811 1234 1234 87654321 34567890 B643E111ACCB3B2A3767BBF63C344D63 15357918 18753312 0020
89554000000003008125 724400008000812 1234 1234 87654321 34567890 70C743834B4F17DCF4EB072FA7F4E02A 15357918 18753312 0020
89554000000003008133 724400008000813 1234 1234 87654321 34567890 F5E985D5FBCB0C23C5999E28FAE24C73 15357918 18753312 0020
89554000000003008141 724400008000814 1234 1234 87654321 34567890 4DEEA29B0B366C17FE7B7031E96D6996 15357918 18753312 0020
89554000000003008158 724400008000815 1234 1234 87654321 34567890 D18D697A94F54F601CD4618BB003DAEA 15357918 18753312 0020
89554000000003008166 724400008000816 1234 1234 87654321 34567890 C79353A397DC5B651E0C5E5E84111B74 15357918 18753312 0020
89554000000003008174 724400008000817 1234 1234 87654321 34567890 4A121E2B771D3428E7FA33BDA1F976C8 15357918 18753312 0020
89554000000003008182 724400008000818 1234 1234 87654321 34567890 4DF3461E3EB98B6CF5FFC948A7B7B84E 15357918 18753312 0020
89554000000003008190 724400008000819 1234 1234 87654321 34567890 397762BBE55823A7D5D3A28A18FB2E33 15357918 18753312 0020
89554000000003008208 724400008000820 1234 1234 87654321 34567890 7BBAED1B1F99025E552FADE9FF090196 15357918 18753312 0020
89554000000003008216 724400008000821 1234 1234 87654321 34567890 8875616B2D38327DEF44FF08E5C9382E 15357918 18753312 0020
89554000000003008224 724400008000822 1234 1234 87654321 34567890 D17228D2C933677FFF153C3B8B5AA5D1 15357918 18753312 0020
89554000000003008232 724400008000823 1234 1234 87654321 34567890 8D7EF6ACC0EB5C0919CF6F23392ABF25 15357918 18753312 0020
89554000000003008240 724400008000824 1234 1234 87654321 34567890 D24F0BB201836137E96113C2140EA008 15357918 18753312 0020
89554000000003008257 724400008000825 1234 1234 87654321 34567890 0965E883DD016CB1D6C55F5F81EDFC3F 15357918 18753312 0020
89554000000003008265 724400008000826 1234 1234 87654321 34567890 0793D9A86A7D33FE757DA1060FF0220F 15357918 18753312 0020
89554000000003008273 724400008000827 1234 1234 87654321 34567890 1F51CF79C710D7CCF4BD76CEF207427B 15357918 18753312 0020
89554000000003008281 724400008000828 1234 1234 87654321 34567890 F30F4401C691AF2A12836B67EAABA7AD 15357918 18753312 0020
89554000000003008299 724400008000829 1234 1234 87654321 34567890 E441DB3F9332A2FE283EA92DEABF8B99 15357918 18753312 0020
89554000000003008307 724400008000830 1234 1234 87654321 34567890 782A08BCF4DBB56F3217AC8C201DB192 15357918 18753312 0020
89554000000003008315 724400008000831 1234 1234 87654321 34567890 74473A828B84823892FE5E28A0CA4638 15357918 18753312 0020
89554000000003008323 724400008000832 1234 1234 87654321 34567890 446C08E42AB99BFEEA56A5DF6E194E4D 15357918 18753312 0020
89554000000003008331 724400008000833 1234 1234 87654321 34567890 CF97691F534FE5102DFFF965C00031E2 15357918 18753312 0020
89554000000003008349 724400008000834 1234 1234 87654321 34567890 15B3AEC50B8EFE25C26E790DC4C1AB7A 15357918 18753312 0020
89554000000003008356 724400008000835 1234 1234 87654321 34567890 53C1E2F792DE40A1E86413FE0EFB6C24 15357918 18753312 0020
89554000000003008364 724400008000836 1234 1234 87654321 34567890 1F2F17B9FF7723B93961B4AE0A7A0B8E 15357918 18753312 0020
89554000000003008372 724400008000837 1234 1234 87654321 34567890 3E933F10D899132ADE73F4CE021A3320 15357918 18753312 0020
89554000000003008380 724400008000838 1234 1234 87654321 34567890 6191B6DD18B8C77A80DF089A48721B9C 15357918 18753312 0020
89554000000003008398 724400008000839 1234 1234 87654321 34567890 253FB913176110C05E130CB605C0AB78 15357918 18753312 0020
89554000000003008406 724400008000840 1234 1234 87654321 34567890 29CB2AE219D8C31C08A70AF315153E32 15357918 18753312 0020
89554000000003008414 724400008000841 1234 1234 87654321 34567890 4B484FCF85F51B878F1C57C67565F5E6 15357918 18753312 0020
89554000000003008422 724400008000842 1234 1234 87654321 34567890 7857A032FC4C245B24C5AE405AFAD7D7 15357918 18753312 0020
89554000000003008430 724400008000843 1234 1234 87654321 34567890 D2AE1353E301F0DE112BB6BA3D3E4E97 15357918 18753312 0020
89554000000003008448 724400008000844 1234 1234 87654321 34567890 0E810675F8FD93083CEBD77DAEFC8F02 15357918 18753312 0020
89554000000003008455 724400008000845 1234 1234 87654321 34567890 2BB93021CF7CC2656E90D381B2CF53A5 15357918 18753312 0020
89554000000003008463 724400008000846 1234 1234 87654321 34567890 F47838CCCEE568555F9ED19DAF310E32 15357918 18753312 0020
89554000000003008471 724400008000847 1234 1234 87654321 34567890 A8D79E140D814D88B6F9008611FBBEA8 15357918 18753312 0020
89554000000003008489 724400008000848 1234 1234 87654321 34567890 4D39EC3D08BB3D502D06D46EFE1FF27E 15357918 18753312 0020
89554000000003008497 724400008000849 1234 1234 87654321 34567890 3BC040B6AD48BE63477A4F1E41DCD511 15357918 18753312 0020
89554000000003008505 724400008000850 1234 1234 87654321 34567890 8000D842FBC643DBFD773E7BB73A995B 15357918 18753312 0020
89554000000003008513 724400008000851 1234 1234 87654321 34567890 99A5AB2EBF575E220BE09E3EF806232A 15357918 18753312 0020
89554000000003008521 724400008000852 1234 1234 87654321 34567890 568D87C0F5EAE2E73138491AAF9989E5 15357918 18753312 0020
89554000000003008539 724400008000853 1234 1234 87654321 34567890 521E9A54FD44E95FDFC6624A2004668E 15357918 18753312 0020
89554000000003008547 724400008000854 1234 1234 87654321 34567890 EDEE6ABD289F7808A677B3863C4DFE6E 15357918 18753312 0020
89554000000003008554 724400008000855 1234 1234 87654321 34567890 9F8478EA804B22767CDF2441A8FA18CB 15357918 18753312 0020
89554000000003008562 724400008000856 1234 1234 87654321 34567890 B81A97DFE632A6BF29309CC42D8FC16D 15357918 18753312 0020
89554000000003008570 724400008000857 1234 1234 87654321 34567890 D6E3FE9A9117ED131AC48877C8B465E9 15357918 18753312 0020
89554000000003008588 724400008000858 1234 1234 87654321 34567890 B91E7E2CF32674B0932EF374BE3B368C 15357918 18753312 0020
89554000000003008596 724400008000859 1234 1234 87654321 34567890 D6121CBA5DBA8E7046B8CF16C1ED1EC9 15357918 18753312 0020
89554000000003008604 724400008000860 1234 1234 87654321 34567890 F732D8DE7FE81CF3D4C13AD2FE8978DD 15357918 18753312 0020
89554000000003008612 724400008000861 1234 1234 87654321 34567890 199F7B1A7F59A0955857B94C8A44C0EC 15357918 18753312 0020
89554000000003008620 724400008000862 1234 1234 87654321 34567890 EA18A1A99437DE52F69C7CA01DEF0385 15357918 18753312 0020
89554000000003008638 724400008000863 1234 1234 87654321 34567890 82026A8189FD77E2D83CEE8F80884F67 15357918 18753312 0020
89554000000003008646 724400008000864 1234 1234 87654321 34567890 A4C7ACB32B6ABD93B0F8E805502B73E7 15357918 18753312 0020
89554000000003008653 724400008000865 1234 1234 87654321 34567890 1EFEEB4B64F55625279409955CDF9AFA 15357918 18753312 0020
89554000000003008661 724400008000866 1234 1234 87654321 34567890 623A9F71B67850CC052502E037DDBB36 15357918 18753312 0020
89554000000003008679 724400008000867 1234 1234 87654321 34567890 BEDA11BABBEB02591BE4CB08DB279986 15357918 18753312 0020
89554000000003008687 724400008000868 1234 1234 87654321 34567890 50862CD5A2BFE25BD819FC14CF2E888A 15357918 18753312 0020
89554000000003008695 724400008000869 1234 1234 87654321 34567890 E2E57109C806452D425DEC3F7475FFB2 15357918 18753312 0020
