****************************************************
*             HEADER DESCRIPTION                   *
****************************************************
Customer:		1Cel
Quantity:		5000
Type:			PLUG-IN
*
Profile:		01.00
*
Batch:			00006
*
Graph_Profile:		25.05
*
SMSC:			550402101000
*
SPN:			1Cel
PNN:			1Cel
*
Address1:		R Marechal Floriano
Address2:		1586
Address3:		Santa Cruz do Sul, RS
Address4:		LIVE
****************************************************
*                INPUT VARIABLES                   *
****************************************************
Var_In_List: 
ICCID:		8955400000013013430
IMSI:			724400013013430
****************************************************
*                OUTPUT VARIABLES                  *
****************************************************
Var_Out: IMSI/ICCID/PIN1/PUK1/PIN2/PUK2/ADM1/KI/ACC
*************************************
724400013013430 89554000000130134307 3030 42127623 2252 81568177 E461C5146A0A895E 00259BC3D46CE4117818B212B5108C86 0001
724400013013431 89554000000130134315 3030 54856660 2058 75271136 5A49FD1240D7696D 547FBA92482C7FF7E49C33B24A36759B 0002
724400013013432 89554000000130134323 3030 78261874 2742 09812919 1FE92FDB29B7437D D7EEE6BC5EED11D366C1CBC498FBF213 0004
724400013013433 89554000000130134331 3030 34736042 3054 88688774 1B00F6577D4BDFE5 21CD48672279091319611DF42A0FA45B 0008
724400013013434 89554000000130134349 3030 06539158 3450 47008515 3545938B40045721 C008B75037CC1C6F3BD13B73C7D0D6A9 0010
724400013013435 89554000000130134356 3030 80232745 6073 61412547 F09B9E39EF5A5534 D0D41C6A62FDAB8D4F4700890F870FC5 0020
724400013013436 89554000000130134364 3030 69017194 9072 58003983 37CADF0FA7ACEF38 11E26013F52033F9528C0304544E95BD 0040
724400013013437 89554000000130134372 3030 31729647 8090 17008042 E2F1FA4ABCDB82FD 44A2598A5A1C393D52773D9C33AAFDB3 0080
724400013013438 89554000000130134380 3030 95094710 5579 57656286 00D654C828ADBD90 3504FA1BF94F8CE74F4AC33D424C21FE 0100
724400013013439 89554000000130134398 3030 32356274 6916 94915495 EB8DCE11B87E655D 03111AA4B84A074A9D67F9B9DE12CB7B 0200
724400013013440 89554000000130134406 3030 47717620 1622 65502719 0D05A9F3F097D7EA 2F7FD35F8F9F0A53C3B9BCDCA1BD3CA7 0001
724400013013441 89554000000130134414 3030 73773940 8956 78486826 1C733D44A600113C 0E3D3CD2B4EACDC5F964FCFDF7619BB4 0002
724400013013442 89554000000130134422 3030 52409064 7058 24555218 D02BFF8557FFAA2E 325C93A180C232BBE37428A09304D06A 0004
724400013013443 89554000000130134430 3030 47608126 9575 17544455 E053737044FA26F3 ABAD6C99902AA9FC1577B4289514C2F5 0008
724400013013444 89554000000130134448 3030 40626771 4814 45017093 3CC5B2004E49FC52 F31F84D33C13EF09E83EA20602A0A0D8 0010
724400013013445 89554000000130134455 3030 71713683 2228 05147749 279AA2FDB0D783C7 200FCD25CFA2E881BCA98A8F4EF6ED1C 0020
724400013013446 89554000000130134463 3030 56032723 4729 30053436 0D2545D79812123A 39ADD0C4B232DB8EF51A4A202979123E 0040
724400013013447 89554000000130134471 3030 51628097 3516 45246129 947635216C899728 61CA8CE4ED99B1AC6BFCBFE2BC43BBA1 0080
724400013013448 89554000000130134489 3030 51023501 7345 19253765 744DE21DE678427F 9F5F01FB8FAC90FD8C01A5642DC52C75 0100
724400013013449 89554000000130134497 3030 23284920 6116 56036287 8FD35AE8E654A6F1 2142256EB18DB8C2C217DED7E6742591 0200
724400013013450 89554000000130134505 3030 94738052 5113 10760252 20CD89850D5ABA2E 0B245C371C01339FD864BF1E404008A4 0001
724400013013451 89554000000130134513 3030 28014912 0539 07043049 C921732FBA5E93D0 BDD7812A5A35B96E272195B32F0F3CE5 0002
724400013013452 89554000000130134521 3030 84511890 6145 39724784 61BB36B9341C507D 59D5140B9F83ADF5EBBE13A2B26EDCE0 0004
724400013013453 89554000000130134539 3030 44235607 2464 42570447 64A2EEB3C70D7276 D280EC38975B0B9C5339374B4E55C77B 0008
724400013013454 89554000000130134547 3030 88173800 4205 22459395 91556DD969BA39B9 72DA19E4F9062BAB425261585E73446F 0010
724400013013455 89554000000130134554 3030 91496934 4190 89242443 66950BED0C459C3D A8047AF01EF29C47F243D7300009DE1B 0020
724400013013456 89554000000130134562 3030 13130360 9831 07713407 E4F4E97D123EBCE3 483F2CCBF52F68392208C0654B478C0A 0040
724400013013457 89554000000130134570 3030 57558572 5328 13668731 09B9881165CABE12 C7C9DC4B3B68A37B0E088EBDE7F2E592 0080
724400013013458 89554000000130134588 3030 28694022 9110 75482721 6F8809BC2109E35D 1E94C570C406AC311A7B7260516AB00D 0100
724400013013459 89554000000130134596 3030 14250120 7271 98591580 17C59E434AE958E0 0AA86CAE970356A770B636BAA90ED0EC 0200
724400013013460 89554000000130134604 3030 57649691 3455 06355553 BE48685EC017C337 EFCCACE3FFC2FB757A772F70D827D21E 0001
724400013013461 89554000000130134612 3030 06503493 7360 47847521 6BEDCAC47718B06F 020A1EBBA32D85B6E1970FEDDEF162AE 0002
724400013013462 89554000000130134620 3030 30113334 0467 85066873 62B7CC90B8ECE80E 0C00860B68A068CF7AF44FB0299E8572 0004
724400013013463 89554000000130134638 3030 87959395 2955 98769759 4E9EEC20A3FCA3A7 46A74159F158CFB6ABE00CABEE710C54 0008
724400013013464 89554000000130134646 3030 94099987 5604 08820647 7B5D6CBB7F78056C B2B8B5BE16BA096B753E346FEA849554 0010
724400013013465 89554000000130134653 3030 23669677 6016 59872469 36F3CBD6088544D8 AC8C181EAEB4836DCF52F972F0928C36 0020
724400013013466 89554000000130134661 3030 80376888 0611 76124561 EEF989D1C742E8A4 75D1393A5BCE27455FB677EDB2537CC5 0040
724400013013467 89554000000130134679 3030 42920944 2049 62537956 F0E7E3787F69CE78 845F5FD7C8295DB82BF230D6AA887026 0080
724400013013468 89554000000130134687 3030 72934947 2049 20034804 E1E1BC1CCEECB6BF C32F8B31FFD4E86F376EA7941536B1D1 0100
724400013013469 89554000000130134695 3030 46190551 0098 24703841 07F113219F0F6799 041E7B7664FDD523360AC4E93156EE28 0200
724400013013470 89554000000130134703 3030 63769494 4805 39204092 19D4503500BAE893 4A71771D475F86695A9DFF1E9428244C 0001
724400013013471 89554000000130134711 3030 40419155 5659 34958340 2431EFF2CEB364A5 50FA096774151F4FF192CCB77840EC3D 0002
724400013013472 89554000000130134729 3030 81397135 4190 90674574 B796E2ED3B6E43D7 5175DDECB59393548CB0B1588B753143 0004
724400013013473 89554000000130134737 3030 91214953 8184 12051621 B9CB56B776159620 27F01896156DF93BA65DEBD500A02DB1 0008
724400013013474 89554000000130134745 3030 84726205 3042 74712271 C7A5996973148AE5 4AB55144FC500F97BE6A3A3D55861F1E 0010
724400013013475 89554000000130134752 3030 72785931 3457 13711839 0BECCBA658B452C2 DC648B49022A457B784F09E1502010A2 0020
724400013013476 89554000000130134760 3030 51711301 2533 61721046 1DF66A1EE8F7999A 63E49E9062F291E57C962774D25861F9 0040
724400013013477 89554000000130134778 3030 86227599 9177 61911082 AEBB54452CEBB8B4 C14141AA0067BF5F4A78D70E86DC9AB7 0080
724400013013478 89554000000130134786 3030 21566164 8414 32520537 5B7B3A2F682CB972 060DEBB07CC2D74432F2E4B582419623 0100
724400013013479 89554000000130134794 3030 90287943 9961 65959479 171C08E4AA4FD71D 4727FD8F8D42845098D82A2ED5DE186D 0200
724400013013480 89554000000130134802 3030 78569229 5130 42875915 45DE97A24B22D64D C75098B4B4FCA4AC57A0F752CD59A4DE 0001
724400013013481 89554000000130134810 3030 18284581 5346 90536807 55D6661C53F93B23 6277291C79C5328A84D6149B5677297C 0002
724400013013482 89554000000130134828 3030 45205360 7614 65703689 E832401ACC25DC4B 0C8C24DD731CBAD1CDA2A263899F47D5 0004
724400013013483 89554000000130134836 3030 70019204 7745 01005749 3D8E4CDED99B1CD1 4AF1BE6430FDB0AD62AAF78C36723BAE 0008
724400013013484 89554000000130134844 3030 61578192 0431 47700881 E821E67C7A0F6BDE E2AB5B53B6E4ED5DB511DC9D1CB330D8 0010
724400013013485 89554000000130134851 3030 31789270 4064 89478063 50FC2434E2A7F9AE 39BB7056B3095C8E5E25020F67B5B528 0020
724400013013486 89554000000130134869 3030 25082458 0834 22126808 1BB1342C2C21284C DA991C8314630D68D3FB793997A6D996 0040
724400013013487 89554000000130134877 3030 58055822 5520 91179245 EF30C88AE7EC9946 E3E5AA7B327221CD7D5CD8A31B505616 0080
724400013013488 89554000000130134885 3030 72932141 1310 22178266 8AC14BC533BEB0B9 005BF5EC3382B79A14CCD0BDA67A45C5 0100
724400013013489 89554000000130134893 3030 90300828 5104 78330019 E79FD8E7C144BD7B 0E98C83A3215DE676262AC7BC16EB63F 0200
724400013013490 89554000000130134901 3030 05871405 4289 96648602 2D641A167E450262 2E5443435117EBF6AD9FA55BF36F7D6C 0001
724400013013491 89554000000130134919 3030 37871685 7576 44360904 40A4F71535F5A044 52A2224AC34E98F15C503509DCF20CC5 0002
724400013013492 89554000000130134927 3030 31415712 6485 28543606 32EDB3DF77F19A54 4FED0CE70D2338CE87BBD7FCFC1A69E0 0004
724400013013493 89554000000130134935 3030 50032267 9360 12925102 13FA71F99702F5DE 1E4DBBB4D65B60955233A0241B0B2294 0008
724400013013494 89554000000130134943 3030 01533334 3614 38592018 8E970A8266C4D643 1D18E61D7BD4D47900A3648E9E1FA097 0010
724400013013495 89554000000130134950 3030 37356162 9059 34195037 60B814CCEA7C2CB7 A2F82A3948F9A9FE522CD4488C8E74D6 0020
724400013013496 89554000000130134968 3030 41251614 9769 40982180 46866D468FE12577 6F1853860D0F6158BEEFADF4B29398E0 0040
724400013013497 89554000000130134976 3030 53513693 1901 66904267 EA14E3216526EC7B E68A349A46CDCFD1BA1EAC460D6C60D8 0080
724400013013498 89554000000130134984 3030 03285400 6421 05499423 966D0A8A2EE27E9F BCD3A89FB8094C53D726E1631ED3DC90 0100
724400013013499 89554000000130134992 3030 66567128 2784 66361183 B2BAD1CEAF28A322 588E89EFB782631F8DF9C097296E2224 0200
724400013013500 89554000000130135007 3030 93021051 2902 56340169 13349588D2D45D8C 41E7EABF233327A8EB5BC50B08D6840B 0001
724400013013501 89554000000130135015 3030 01028311 2067 55050164 21C5DDA713E0E9F9 E74A6C87F2339D8BF7768C7C68C831A3 0002
724400013013502 89554000000130135023 3030 05655162 7151 89845846 0B470105ABE01B11 9C2A66F0C01C185C5162EE666E3C0C8E 0004
724400013013503 89554000000130135031 3030 40164647 0073 34514466 C1D023ABE53920D0 67C6AAE1FD411BAA23F140BEBEA299ED 0008
724400013013504 89554000000130135049 3030 52016238 6115 65218399 E4EE3E7C160D752E 96AC332312104F3A898D5C405D227D92 0010
724400013013505 89554000000130135056 3030 34183886 7392 45648585 7BDAA4A61F7618B9 F9A01BAE587D2D175EFBFF3323D8179F 0020
724400013013506 89554000000130135064 3030 23751227 6526 58980120 16C1E02C06AED321 0407A55C856899178832F1EB214E5D71 0040
724400013013507 89554000000130135072 3030 30573804 9971 69534399 7D6E4C3C503DB49C 60B067A2605701143DD1FA42DC8755B4 0080
724400013013508 89554000000130135080 3030 04044415 9055 49158788 ECD1E4AC0BBA0F57 D8FB4B24C97F7CF8EA3B3C513387C72A 0100
724400013013509 89554000000130135098 3030 38541730 4136 34954350 C97092E053C1FDDF 09458349A0B4FF038C642A99A81122E3 0200
724400013013510 89554000000130135106 3030 53253683 5821 45799931 D203FAA00D47BDBF F6972C422B6402480DAEB459DC81701F 0001
724400013013511 89554000000130135114 3030 55893280 0983 05995679 265BA445FB53D732 19AFF923ECF119E927ABB82C1C7AF0F5 0002
724400013013512 89554000000130135122 3030 26516217 1378 85787948 7CA189FF5745C89E 9CC36D5ADA9513D554FDD47B9A239A6D 0004
724400013013513 89554000000130135130 3030 01621190 4548 36369553 211E6137D73D6FBF E91B580088A4DAA7D67245FBBEB665CF 0008
724400013013514 89554000000130135148 3030 46376016 7261 17140074 BF2CB92E012F3EC3 7FE225A836E64749FEC11DC5FCE74629 0010
724400013013515 89554000000130135155 3030 12408556 2094 91664433 BA1FF40D7D7B1155 38A8866628AC3B9C2D9F414A50EB8E28 0020
724400013013516 89554000000130135163 3030 35907812 8877 69304127 DAE1AB9CA470EC01 026503E870D0D47CF51DFC590E5347D2 0040
724400013013517 89554000000130135171 3030 80923770 9353 77931096 AC3D0CC38C00A15B 97A0CA18073FDACA6F00F98FD265B969 0080
724400013013518 89554000000130135189 3030 82065290 4813 27821579 D38A9F91F6D931D5 7F3FF0A7DD9CF1B79307EBAA32FB6B69 0100
724400013013519 89554000000130135197 3030 21516381 0189 67511344 AD69A9D13728430C 1F1A1AE2E389ECC4843A5D1BFC7B6943 0200
724400013013520 89554000000130135205 3030 64480755 2279 37809909 D9D4C442DB26B190 82962F5CBB93FF409EE37F17A66517FB 0001
724400013013521 89554000000130135213 3030 13209003 1376 18917956 1873F61A20173C43 E50BF0478E9A7304EC0378CCCE97D74D 0002
724400013013522 89554000000130135221 3030 80043252 7667 66788132 30C0103CF3586F5C 8706663F68C78715F2D3F694AB85745F 0004
724400013013523 89554000000130135239 3030 73026559 1235 21273368 AF7E2B6AD2C046D6 E2363FB2BA78C3AB67E17CB0FF3348D7 0008
724400013013524 89554000000130135247 3030 14425635 7909 72485102 BF9E4A2958EE6415 3E97EA02AEDE49A78D1F6F6E2644E3DA 0010
724400013013525 89554000000130135254 3030 34610051 3759 22550590 AA553B936BB6349A 89F32AB96474212F5D5B520C7B9321B1 0020
724400013013526 89554000000130135262 3030 32576525 7623 42607339 FAC2ED1A882157EA CDD9BA98E137520E1FCF7838435CD54A 0040
724400013013527 89554000000130135270 3030 12925284 3416 02919424 430462EF6F362791 9B40D12C7EDBD456E2C69DD377F9CCAF 0080
724400013013528 89554000000130135288 3030 74922742 3557 53346421 ADAA5504E65E0883 A33E864F3857E2A35B9BCF25C2497D78 0100
724400013013529 89554000000130135296 3030 07118617 5546 48125309 41F7DACEE540B22D 5A2D4193F1F85AA18BBE15A718DDB311 0200
724400013013530 89554000000130135304 3030 71604321 9243 18726974 32F16823C716EE9C 38C2BCBFD32CB66DD24E842169D8C6DC 0001
724400013013531 89554000000130135312 3030 37650198 4665 34796936 9BE799786657D4B5 09D67654F26DCE3D0F7C9FE2BB5E08CC 0002
724400013013532 89554000000130135320 3030 28438739 0987 60130353 15BAE9C69F77BAE5 F4A4FE3BD35E3C0B253A7A8BC3BE71AF 0004
724400013013533 89554000000130135338 3030 23798717 1803 21829145 1528DF7018C4E3BA 9DC2D469959FA96AB0DF96EE5BA0A1DB 0008
724400013013534 89554000000130135346 3030 36462715 9289 71202505 B39A6B36A86E2D7D D48994C3C32D2B558CA37E1FF580C50A 0010
724400013013535 89554000000130135353 3030 40334689 2329 42027846 A1024C43B972FD3C 19F4930C3FECE174159C1C06BDC0141B 0020
724400013013536 89554000000130135361 3030 64641018 5211 97663469 EFE38AF68C315D6B 93DC8F7BFF7C842D2FF2F88843185FB8 0040
724400013013537 89554000000130135379 3030 67894102 7680 37894339 2C524A8424993372 934872D9D9F8ABFB15E0E1C634CE0386 0080
724400013013538 89554000000130135387 3030 56961360 7926 34971287 A32B02C2FED3303A 58110835335D1DD67A472A30F27A4375 0100
724400013013539 89554000000130135395 3030 55442342 4914 55301174 A0DF9CD227815E49 703840EFC36A434F79A56FC1D51F5669 0200
724400013013540 89554000000130135403 3030 46438771 4719 14159305 58A5928F7E802779 8A60C47941BD5176BE18444F1EF42095 0001
724400013013541 89554000000130135411 3030 15821563 0845 38529717 7AF01C893AA1B81B 3BEDD85E5CB15E16A751C1797F567C86 0002
724400013013542 89554000000130135429 3030 55195179 1752 94641109 FD9E16F8408EF9C7 E4A868370771935FAB3828433785D0CA 0004
724400013013543 89554000000130135437 3030 50615851 9791 37534072 F81B2F4016E49B47 31106740676D2AC10C6A7A3951434AC0 0008
724400013013544 89554000000130135445 3030 28541337 1830 55700380 E453FC110CCADF35 D39506144B374B109D6F8619907524AF 0010
724400013013545 89554000000130135452 3030 79838871 6151 12785395 A5CE72D4764F1ED3 F013A6B39F4E834BB08EFA5A7DDA72A0 0020
724400013013546 89554000000130135460 3030 80828267 9463 76626261 594377D8E25F19CB 02C0EF3FA8E2E333D310DD166C2548A7 0040
724400013013547 89554000000130135478 3030 08874225 5375 62673837 BED230A69069B82C 76CEA7099383B6DEC99D96B13BE8DC04 0080
724400013013548 89554000000130135486 3030 35191071 1292 22126012 C3B0A96F8AF85C66 50508846FB1CBA02C3DB5FD005BC3A9E 0100
724400013013549 89554000000130135494 3030 62616870 6984 50946027 D8E9F8162EC09431 3E8880B186955DA0EFFAA1D9207B7502 0200
724400013013550 89554000000130135502 3030 89601321 0343 96115332 A4CDFE514093A130 FC6553A2C22A5455500514277A14AD9E 0001
724400013013551 89554000000130135510 3030 22582894 6755 69915628 4288882AA64B5EDE 515CE20F454CEED3CF9B75615BF9819D 0002
724400013013552 89554000000130135528 3030 18082041 0410 69879070 FE058B1543C9C46D CFE0BC004B89161343D73E01A8EBD7AC 0004
724400013013553 89554000000130135536 3030 19728161 3754 42871605 E3B1719FBCF42276 FAAC8FBC3D987446275E8F39834FDCF1 0008
724400013013554 89554000000130135544 3030 79155299 6379 05964656 2394260047D57A3B 69B9F8C3BF7CCF228F45606D905EA5AC 0010
724400013013555 89554000000130135551 3030 92010493 3670 36649043 2E871202F2CE290D C55E0ACD303BE29A218B7A3D416C1EDB 0020
724400013013556 89554000000130135569 3030 36708988 9911 82493011 DA7351BF4E8AC298 DBB3C92BD54536BC3374A412FC871F77 0040
724400013013557 89554000000130135577 3030 83337536 6210 12802309 AC9D40AE56B21DAF 1AA67EF77C7069E798DE59EC2FD12E90 0080
724400013013558 89554000000130135585 3030 91977251 6800 91271859 399DB6ABA68B8441 063D64A43066FA27C1F410FBEFF68BB9 0100
724400013013559 89554000000130135593 3030 43343141 9927 62044499 CB1E7BDC7C4D5234 C55FEF28827F00C7A02342EA7FFFD16F 0200
724400013013560 89554000000130135601 3030 53996639 2831 86145871 B0DAE34ADA8B3BA8 42996FCFF63FD25EE927AE86893587C3 0001
724400013013561 89554000000130135619 3030 72888474 7986 25303979 B05D4E74F898E867 9A9649062839D8829E1C9B3B012A6D8B 0002
724400013013562 89554000000130135627 3030 36808768 2144 31812881 9332D06A38D9FC91 4108669FE3BB53A10B4708C1A8BE6C0A 0004
724400013013563 89554000000130135635 3030 48010565 2544 09894480 CDB55597DCC6A6CA E94A0295F650F67374D97510B7D1F2A8 0008
724400013013564 89554000000130135643 3030 19972376 2259 20047024 CE5CA71C10154BF3 7502C5A7483385634EBB0219AC6A6DB4 0010
724400013013565 89554000000130135650 3030 24944457 2419 42114090 948A210FED7121F2 8250CA9661DEBA8C0F8B872CC37223C4 0020
724400013013566 89554000000130135668 3030 35179560 4032 94628726 08ABE2C8766AEE58 9A2D9D3437AD31B0864F1DF1C9233989 0040
724400013013567 89554000000130135676 3030 74487817 7560 61652481 CB3031C07A63C386 864E7DCC210EDDD4FF2507BC9C43F953 0080
724400013013568 89554000000130135684 3030 62941446 8216 34662155 CCC9368C31B2B6CC FFB41F2CAB371DDC234D5270A977F18F 0100
724400013013569 89554000000130135692 3030 21934344 8234 12728178 45CB826A71A10F28 5D2071DD220EC6213E7FA3D857A2BE58 0200
724400013013570 89554000000130135700 3030 88970349 8875 06907710 07D9D754E14831AD 79EE4B3604C20A916401B066938F15D1 0001
724400013013571 89554000000130135718 3030 77532436 3716 85779281 E4FCC56D165C0F1C 7D1D0A61F23597154730BA784C6BC56A 0002
724400013013572 89554000000130135726 3030 20229790 7499 54069904 7B7521DDDEA30F12 125374F3D192BCAE2266DE09458CA9B4 0004
724400013013573 89554000000130135734 3030 19308153 7946 72213601 2DD87B1F642BC1D1 7EEB9AE5AE428FFF7440D5C31F652C16 0008
724400013013574 89554000000130135742 3030 95942817 4897 01185895 63DDBC1914C34496 FB98BFC163CEB9D75E5A8D56507D9312 0010
724400013013575 89554000000130135759 3030 79747319 6757 43945157 DE08CAFEB38D6921 213D68035D38C04343372F5D3DE0D521 0020
724400013013576 89554000000130135767 3030 65577928 2306 56240544 C2A9D2C982F3EBDC 108E788B52F636C444A96B9164E04554 0040
724400013013577 89554000000130135775 3030 64241945 5339 98513633 D7D9462AE75FCF35 CEC0552D1B632337812F378234EE5171 0080
724400013013578 89554000000130135783 3030 41115651 5832 82627728 F827DD825173D6B7 1FA00BAB982B5C06DA7D1434B06908FF 0100
724400013013579 89554000000130135791 3030 68158790 2353 60772220 4BF23AE1A5F42129 4E8589B12D36AB8B820E06B2D641D842 0200
724400013013580 89554000000130135809 3030 53302085 5785 75746403 BB0BCAF9BA75BBEA 62FAC4851EDEC808EF397FCF843D9162 0001
724400013013581 89554000000130135817 3030 77237218 4283 58553250 A35E9ACE3A2B58AE 4F4F218E2F3DBCD3DE149BF3772D3610 0002
724400013013582 89554000000130135825 3030 65756781 8647 54591060 0575903562137A6C E33DDE4116BA9854A5495647CC235C90 0004
724400013013583 89554000000130135833 3030 95690993 6851 53344694 A3C264FB9C651A7B 2BAC61DE234C43A05158BBB6F4C84F51 0008
724400013013584 89554000000130135841 3030 46700072 4744 19511819 88B27EA66B5C2878 2B82F456CF89DAEA3A5EF559E860E826 0010
724400013013585 89554000000130135858 3030 89533155 5554 60782942 3DD29ECB063E915E CF4F48E219C8DD3316198B2445632538 0020
724400013013586 89554000000130135866 3030 18090436 5299 07015586 A603A45FAB567561 F579C0569683D263F943CE71AC039410 0040
724400013013587 89554000000130135874 3030 44992430 0286 13257605 56E4CB0113C28BA7 50E21F4B0E8FCAD4892531657E2694FD 0080
724400013013588 89554000000130135882 3030 48692522 8508 45480165 F56269CDF4910414 55C9189F20518564231FA8DCEBC5C920 0100
724400013013589 89554000000130135890 3030 03303614 3859 05404362 12CA62D27A292203 DEF6BC0992D637DA2809687CA5FA1C49 0200
724400013013590 89554000000130135908 3030 14187626 9286 95273072 13EFC20E080A1AB7 BE8025889F0B2F16689841CC17D16BF3 0001
724400013013591 89554000000130135916 3030 40867457 0886 84244785 29B536C10157D30A 8DBC959C0DBBA449559A612DC88318AA 0002
724400013013592 89554000000130135924 3030 90362519 5485 05543344 CB0CF270A500E365 D11297B51A1C68C295257F73C4202376 0004
724400013013593 89554000000130135932 3030 73212336 1364 31052900 65A9121D4D177A5C C8C582518AE1767FA3FC383F700486C2 0008
724400013013594 89554000000130135940 3030 17049393 4563 45826640 A07385770AC8921F CBBFDA98382872C85EFAFB97165173AA 0010
724400013013595 89554000000130135957 3030 26369549 2037 60767058 6804B1E5DA46CEE9 457D93F4A1AD2CACBE7ADCC80B321E58 0020
724400013013596 89554000000130135965 3030 16601623 3990 26481368 EFDF4D5225832178 CE7B217F614A0956CC26D775E86740AC 0040
724400013013597 89554000000130135973 3030 31633464 4394 25555375 B96881F1AD2BBD09 0FA19DC435A9DC2903655872ECDE939F 0080
724400013013598 89554000000130135981 3030 95379080 7764 39846209 7E76B0830F6A090D 2D99C0B14051E5EB67D8ABB9505AEB6B 0100
724400013013599 89554000000130135999 3030 70966733 8973 74837774 706B054003669033 B0FB55DF34A37A943309E7BE1A76134A 0200
724400013013600 89554000000130136005 3030 50474522 4547 01774232 E0475BDB3C37FA22 5FE09E75653F41E70FCC5B200089CEDC 0001
724400013013601 89554000000130136013 3030 25597964 1006 52779062 D060277DC5174621 F4BBFE97309F968897EB5BE0AF12365A 0002
724400013013602 89554000000130136021 3030 68293534 4005 32221229 6C178F756365817B 3EDFF2AEEA510DA6589BA3A62092E71B 0004
724400013013603 89554000000130136039 3030 40677560 0491 30489660 FBB5F692F3BCB460 7EF693E1F291F96673A60475A57DC54B 0008
724400013013604 89554000000130136047 3030 95695062 5128 19930225 D1B9F2FDC0713792 9C9842126C76FB19C1E2FF8F5A1F8547 0010
724400013013605 89554000000130136054 3030 27659563 9571 45802071 735D32881B4E8D37 C51BE41E9E711AE1E65BD957AC6A53F9 0020
724400013013606 89554000000130136062 3030 53409798 8216 69815916 4BB2C0DAAFA09807 E0FEBC6B5C6DED9D07F9ED5FC50A9C69 0040
724400013013607 89554000000130136070 3030 75724084 9932 13350495 D70E455AE0FE181E 87E3E8CAD03CFD81E6624C24E87FE46D 0080
724400013013608 89554000000130136088 3030 45052889 4952 69763119 1E2C0EDE25E0BCB7 3DFD6D8F51E940F34C1275D79359E4AD 0100
724400013013609 89554000000130136096 3030 83465422 0515 23849495 AE34273CDE91747F A066D304F8D2CFE032421189E1039FF3 0200
724400013013610 89554000000130136104 3030 87082216 3560 87140314 E1C3F9463753462D 645EEBE57A27E4A3A758DF1DB44BE9F5 0001
724400013013611 89554000000130136112 3030 06543811 6848 31443534 63CACE98D032725D C08DD300BF5F95890CDDA67741487B26 0002
724400013013612 89554000000130136120 3030 13038191 8564 96696728 051F8BD8E7CB21F3 00C547670D01B322E4198ED42444D13F 0004
724400013013613 89554000000130136138 3030 78631451 7448 22067119 7E51CC204C6D78F9 01F877CF36EDD20A6EFDB677D79AC518 0008
724400013013614 89554000000130136146 3030 72564678 8340 83377075 0F502BB04105860E 493A56D95240F5ED785BA9F35E268A41 0010
724400013013615 89554000000130136153 3030 57259373 9339 32760602 5B808E9DB80A6C4C EAE35A4982F1DF1BD01BB453D672D57E 0020
724400013013616 89554000000130136161 3030 74494584 0506 36933973 14E2C38C8288940A EEA93489F40A564C074882A91C89EF5E 0040
724400013013617 89554000000130136179 3030 38403315 8259 94507451 E8E28AB113E3115C 5A28B07607852DC36D37078F4F2BED5A 0080
724400013013618 89554000000130136187 3030 94059119 0522 12100329 3EB1C11266369391 F79ACF9F40A6D869534C82B81E1390B0 0100
724400013013619 89554000000130136195 3030 71844294 3826 52433332 422F7E240D7E281C 91E8F7B19A030DB5CA2F148A021C3413 0200
724400013013620 89554000000130136203 3030 40182494 7235 28952059 83A0BDD133CF2D9C 2CAB854A01495F40D0942603F288F2BA 0001
724400013013621 89554000000130136211 3030 24255303 2056 96609828 E45A027C02A773D2 5B7D0CDFFE134207CDD1605DF4195786 0002
724400013013622 89554000000130136229 3030 28132590 1195 21610851 03B38C0BD342FBC4 0960A93F6747CD5C7966E5484FDB2AC7 0004
724400013013623 89554000000130136237 3030 51648496 3132 24791669 4727A177B2FF908F AA133296B6063F9BBAF17CFDBA89BD14 0008
724400013013624 89554000000130136245 3030 88332682 1164 90784092 13C65A13960C4A74 61C9C2BFECDA01AFB158C7B0715CC20F 0010
724400013013625 89554000000130136252 3030 92088407 3424 12520530 A122E5E979A16E94 A8C755E6F1937B7FC42E72DE8ED66D2B 0020
724400013013626 89554000000130136260 3030 06672155 2669 88525231 88028B396C94A83E 702EB7B57437C6ECF193647C97E53CB9 0040
724400013013627 89554000000130136278 3030 01866314 0487 48989676 4543A140B06A8E2C ECC265D0EB0D4A436E32566A1F9095A3 0080
724400013013628 89554000000130136286 3030 93744964 1054 75739611 A6BFDF31CB30C9A1 E791AB8F48CA4AF89FB5C398870075A7 0100
724400013013629 89554000000130136294 3030 48702677 5289 62991812 B9A1196D86D8EED7 13BCFDF0AC110CE8F53527AB475E0CCD 0200
724400013013630 89554000000130136302 3030 78830792 7787 32047243 615017772F52359B 69230A47C961517CFF1865A2608F8FC5 0001
724400013013631 89554000000130136310 3030 76635102 3422 09798364 B862C03EA5F9010B B8CA1AA2AA2BC68DE4A8695E1C472BE5 0002
724400013013632 89554000000130136328 3030 55047548 2812 34137604 8B38AC5F4DF7D6FA 5865A16E6B4A9481B754CADB8B820094 0004
724400013013633 89554000000130136336 3030 50503308 7710 04718854 B0724ECB784651A8 2E3BC83D8E846121F799FBEBBACB9855 0008
724400013013634 89554000000130136344 3030 42439596 3536 95837873 CB94758B46C279C4 0B5784F35FFC4C1E67E99B9A4D3C7157 0010
724400013013635 89554000000130136351 3030 67407482 1918 04963856 9760683F20CFF757 6E57B3066B2DA9CEC7DF85662161656A 0020
724400013013636 89554000000130136369 3030 69035763 9624 28553210 434AA75F22883C79 22EF7EB35996BA0E2AC094EB61236B41 0040
724400013013637 89554000000130136377 3030 08126476 4095 60649335 064345B20BFA10CA 5217A1D44AC6DE247FF44BF3E1E5568A 0080
724400013013638 89554000000130136385 3030 09139609 3239 13033054 23AFEBECC9D42162 032063D6668B5AD804EF34FDB163E5EF 0100
724400013013639 89554000000130136393 3030 23215606 7901 69508623 AC0DA57653617584 FB41CED187CB07F3F628470C2BD5700C 0200
724400013013640 89554000000130136401 3030 13743917 6461 32132599 F20BBC58F611D256 3475375A53C724340174506A02A4E880 0001
724400013013641 89554000000130136419 3030 86463096 6436 59391741 E24C5321AD34CAD5 F52E1B744606CB63070A0314127040F4 0002
724400013013642 89554000000130136427 3030 65794510 6715 49676927 1A926B5306FAA234 125B2E8EC30167FC04199CB0C05E5E16 0004
724400013013643 89554000000130136435 3030 57470206 5919 67845376 706BF8CC9FE378EF C6545CEAA45372CA68FFE962BCE385CB 0008
724400013013644 89554000000130136443 3030 19573264 9400 24091264 FEC7EB2F8847FE2E E820FCAEE4B8DB4F7A29F03C6B08704B 0010
724400013013645 89554000000130136450 3030 98668506 5536 27705988 E4F9DB20BE5CFCB3 A75AD857121D29E9A4B1ED802442D6B8 0020
724400013013646 89554000000130136468 3030 56522164 5627 66539859 C908E500ABD780BA 0CE48CBD2BEDDE0C54C7DF62F64F95D9 0040
724400013013647 89554000000130136476 3030 41203569 3068 41908729 6697B1E5DDF4757A 09BDD19C0C3B852A8BF87AFB319E5283 0080
724400013013648 89554000000130136484 3030 06958320 5274 49904242 934AF38A4AC6B3B6 1B8E81BA13F95599031E72C2E6355332 0100
724400013013649 89554000000130136492 3030 96459881 7317 25280763 C82EC69C453BB18D 40216495F558425C76A40CC8AD94252E 0200
724400013013650 89554000000130136500 3030 68094388 7334 64124599 E6086F1172CD6718 5C083EC8782D60CD20FD14CF512C580F 0001
724400013013651 89554000000130136518 3030 65948871 8026 01394793 FD7E25D76FD77C04 ED13DF8207DF53E3B2D152506406A365 0002
724400013013652 89554000000130136526 3030 26027634 3052 27212362 36A741B7BEF57A57 31FA506D1AB31C0A8B3BFB9CFC006241 0004
724400013013653 89554000000130136534 3030 26896486 4542 00224033 1E9F5A50ACA1F4B9 9600C22FE9E3D7A6B500C25EECD1F8E8 0008
724400013013654 89554000000130136542 3030 50705943 5102 36061919 3408903FCE1F7297 A79C0051624975F8139829B494001D76 0010
724400013013655 89554000000130136559 3030 79165232 8604 62163568 B1B02922B9E813BE C12D7133B550275BA061922959F1344F 0020
724400013013656 89554000000130136567 3030 72128032 7282 37696871 37F549D4523A63CD 99B28D352A950D9BFB3AA71281AA4DE9 0040
724400013013657 89554000000130136575 3030 90567591 8844 64926064 AA6B03E9B7205897 DDA4F5377539086E2C0FD2B9F0FFC1EA 0080
724400013013658 89554000000130136583 3030 64949585 6956 35495633 13C6599AF6FA45E2 F671D6B9E388BCAD29CEE6052876DEE9 0100
724400013013659 89554000000130136591 3030 28233345 2115 75714677 2887323F10A324AF 59F66F3ADED4A9DE0F047987CFF3F619 0200
724400013013660 89554000000130136609 3030 08766552 7553 55201010 339160C632CCFAA0 B2A56F4E28CD79C3140BED407FC11160 0001
724400013013661 89554000000130136617 3030 33304040 4701 61274730 E948853FE75BE94B FEC2BB77C394C9168BDC2631EC544FDD 0002
724400013013662 89554000000130136625 3030 41051023 2114 60619720 FF05FE4AE6885A3D D5DF755C57F5F959ACACC71BB02E155B 0004
724400013013663 89554000000130136633 3030 25994305 3584 42535955 8719E9A09FEB8E25 95D81B5ED32D60F5AF64F478A10A9FEA 0008
724400013013664 89554000000130136641 3030 93354896 5862 66295867 59F19ED61D84DB25 588F8D2D0334EC1519CA02BFDE8ED5D6 0010
724400013013665 89554000000130136658 3030 52229653 1168 72166810 0793773F0467B976 B7C5FA2A025AA1816371A6C3D7613F8A 0020
724400013013666 89554000000130136666 3030 04441028 6960 81161316 E8084F9001BF46B6 2D7989A4B2BF4B495D8010827FE0AAF7 0040
724400013013667 89554000000130136674 3030 00198614 8278 08889537 77C65F96FE937DC9 D9E27B62B3D6BA4CFA8C39A6F9F43861 0080
724400013013668 89554000000130136682 3030 97322835 2054 43117608 F74A014FF753C954 8A389046E267FEAF31EDA3DDA9E3FA7B 0100
724400013013669 89554000000130136690 3030 07013750 7161 21818147 213FCA1F1455CCF4 7795D18803F9F7E5A070790CEDE69220 0200
724400013013670 89554000000130136708 3030 64781382 9642 12749452 D7542FB241A17E8C 55C4EA845D7A39DDB46D009856B46AA0 0001
724400013013671 89554000000130136716 3030 58685343 2471 90233949 C056D2251BBAD300 CA9DF1224739C7E743367B475247ABA0 0002
724400013013672 89554000000130136724 3030 43474475 4928 80579807 C235B6715C52508D 10D3300EB9E8783E8C6A80A9D26290D2 0004
724400013013673 89554000000130136732 3030 19029245 6833 51376982 0BB0E14A93F495FA E49B82D9EB7C4D4955035B54D8BE12E2 0008
724400013013674 89554000000130136740 3030 21254918 9989 05518433 7F8C6518FD4E21C4 FB5304F828CFDD2ED8A47B106B6AF4E4 0010
724400013013675 89554000000130136757 3030 25995930 2361 56508458 AAACCAE4C4281E7E 55F78D6F4B336010ADCEFA564D302A35 0020
724400013013676 89554000000130136765 3030 59651939 1701 99120225 5BE879E1DCC20C35 F21ABD88A3CB472B800E3E381B6F48CB 0040
724400013013677 89554000000130136773 3030 06473634 7558 97660496 3436F6B4031529D7 12F90113656A882068A795176744FE21 0080
724400013013678 89554000000130136781 3030 38739595 3335 44989631 F9DB1C1CE4BA4B9B CC96618958BC7866CB61BF1EF8B7758A 0100
724400013013679 89554000000130136799 3030 17395627 2653 53369138 260046860875FD2F 54E07CD2798771D24076A82BC84261A7 0200
724400013013680 89554000000130136807 3030 12339466 2671 22244178 B9F0A28EBD4E6E1B 5CE099773A0DB117063CEAA2E1F3BE6C 0001
724400013013681 89554000000130136815 3030 34909281 7778 90650793 07440B255EECAEDD 2BE4C7B9095DDE62ABCE5117B381DFD4 0002
724400013013682 89554000000130136823 3030 32696934 8949 50588737 5B43BF2554734324 C5C41159791349CF107196927CB62BD5 0004
724400013013683 89554000000130136831 3030 67959380 8558 77063515 51277D8C2F2C85E5 2BFD811CA670CA9BC11AD4DFFF09472F 0008
724400013013684 89554000000130136849 3030 59501911 7037 44003422 FE1A32475E91380F DD83BC45A2FBE30A5424D87D954D5F7D 0010
724400013013685 89554000000130136856 3030 55733571 1098 67032214 7014F064FE17275A 4C62A2CB53E67B611E34A1DE8B13C704 0020
724400013013686 89554000000130136864 3030 83928271 3702 82431267 CC0DBFA794F687EB 302485BD4E2C2667778EB7A2DF7CDF56 0040
724400013013687 89554000000130136872 3030 22263317 0180 05280950 D29BE988CEEDC957 EF65EAD592FF5987B63D7A5C825DB88D 0080
724400013013688 89554000000130136880 3030 72605355 5370 02869904 2C0E62183C01583C 28831FF3516C14F3763D6CAB24341E58 0100
724400013013689 89554000000130136898 3030 32104559 1440 11043489 D15B76DB79AEC824 76B9D44B09390828E9767D760AED546B 0200
724400013013690 89554000000130136906 3030 87949884 7075 20239847 46B2C53482EF6C6E 7B1AE1BE4F78C61D9DB722188414294A 0001
724400013013691 89554000000130136914 3030 54333224 6237 75465531 7B7790D3D33BD9C3 4DDB303C617604D23CC8ECC1F683E4BB 0002
724400013013692 89554000000130136922 3030 00219722 9225 84516318 4FD3DBCB261E91E2 32265BA58C2F350FEB446093ECA918D5 0004
724400013013693 89554000000130136930 3030 23769838 0755 36079490 ED96E342FEB02F98 AEE8AEF2354D755A4B7C923A5052B4B4 0008
724400013013694 89554000000130136948 3030 93516460 0810 39392844 5AB95DF8B97BE1AD F6CC896F6DFA8DE4D9EB82CBA9F567F8 0010
724400013013695 89554000000130136955 3030 82572464 9146 74685410 382FFE660AADCA4A DC48FE198F72F126C00D27C3884F7E83 0020
724400013013696 89554000000130136963 3030 50662393 1840 36413840 E60FC431F1DAE6DD BAF7DF9766097E8F17D5A5C28E11E812 0040
724400013013697 89554000000130136971 3030 21977124 4363 21529970 2E8B816470610AE3 A2F38BB01039D500C8CA65D74C80B288 0080
724400013013698 89554000000130136989 3030 84144010 3384 31104524 37E119D3702631D1 213DF678FFD68AA592CB625DF5E337B4 0100
724400013013699 89554000000130136997 3030 06256804 0045 90393619 318ABB6168DC4F4A CC477CBB5052F7AB2F28A8E13DC655F8 0200
724400013013700 89554000000130137003 3030 49762509 6816 30823078 7D0B7C21D8E0B526 081A914E84C7EACD1FEC69D7BF250724 0001
724400013013701 89554000000130137011 3030 65994699 4653 80282669 75804BD3E23A9023 64C2FE938505E9B00DE3078519EBEAAE 0002
724400013013702 89554000000130137029 3030 34734328 8010 66400013 556EFA3DD6D0022B D9F2C4C0C2292071B1F15AB9DF5F03AB 0004
724400013013703 89554000000130137037 3030 34112606 5604 02961314 837279F0B806ACB9 8108F915E0F701804A0F4A802CF440C0 0008
724400013013704 89554000000130137045 3030 38144947 1735 77591219 12AD3E1288B0B0B3 AC566CDAB225E71B73D28AA7AFC2B945 0010
724400013013705 89554000000130137052 3030 23574487 3549 12765022 64B0635E77C09C38 1D839BE5FB32E1589DDF9ED4F28578B3 0020
724400013013706 89554000000130137060 3030 79237945 8704 13610866 B0BC4D205AAA0FA4 EBE2402C3686450DF435E1C801FD7EF1 0040
724400013013707 89554000000130137078 3030 61672815 6990 82000582 705794E3C5F930AA DBD0D3132E51590D4EDDEFF8B383F1C9 0080
724400013013708 89554000000130137086 3030 15185868 8893 06373867 F97DBD80257E8C1A 3F61A11ECB1BCFA56D0EE23A676AA8F2 0100
724400013013709 89554000000130137094 3030 70322537 8354 71892126 0967D530E06EF152 A6830196906631EC306C276C46DB117E 0200
724400013013710 89554000000130137102 3030 61751876 5251 42673124 5D78A5E03B58C4DF 04CC0DDCCE6A6BB60CBA14EA7ED3A1DC 0001
724400013013711 89554000000130137110 3030 30613923 6317 46441528 A1DE2BA62A41004E 5B0A29613E8FEC682197AEA53935860E 0002
724400013013712 89554000000130137128 3030 97076439 8293 46239519 8D6D6C699A72DED2 89D8427D16754652081D10C41E518F2C 0004
724400013013713 89554000000130137136 3030 65805974 5756 12078197 8933EC456E365E7C 28326FC7572DFB2B4A5198024DAF78BA 0008
724400013013714 89554000000130137144 3030 82936143 8811 80974252 ED4C4E1E378F6DDD 41344C2FEA992CE4C9FA2E7E247EFAAA 0010
724400013013715 89554000000130137151 3030 99214191 7120 30230890 086BAB900EA82256 09B8D154884876566BBC01521B735CA3 0020
724400013013716 89554000000130137169 3030 48270682 6040 49931183 B5CCE9AA950081EF E248D30AD13B2BED65F0F551CB65181F 0040
724400013013717 89554000000130137177 3030 35639188 4902 46184758 34354149FA6ECE18 3791D6D9559F1F41D0ADAA2AF6E9147B 0080
724400013013718 89554000000130137185 3030 41215864 3444 06815816 A312B7140651789B 20762D2969D7BAB915D7791B75C2E860 0100
724400013013719 89554000000130137193 3030 47587625 8760 11059798 4D0B4FA702952A1B D5DB013CDE026F9EC28FD4852CBE971F 0200
724400013013720 89554000000130137201 3030 84958726 1935 05977008 6535F00283EA6C01 211FEE789559A29C5E4BF6448BAC353F 0001
724400013013721 89554000000130137219 3030 09292256 4621 46050404 B731EB5FA756C66F 68DE5118814793907051495687B0CC74 0002
724400013013722 89554000000130137227 3030 91373341 0729 73955194 ED7A0ACB4064A5F3 81A14F91003C050EE5C30608C7C117E9 0004
724400013013723 89554000000130137235 3030 66790740 0601 82424292 662BA6CE61E20C6B 2C76F13A635184016D8E008B36FE855A 0008
724400013013724 89554000000130137243 3030 39742438 6326 40019281 D91B190B10218FB3 425B6CAA0652B94C8B485C32342AC26A 0010
724400013013725 89554000000130137250 3030 81030638 0865 58198811 3A2F0FA5E47B343E 5341AE8DABBC34190D14AA96B8D3DC4B 0020
724400013013726 89554000000130137268 3030 50456151 4015 52049157 E4EE32BAD0DB3A62 6A622C430E27E8A48CC3930BB2689FF2 0040
724400013013727 89554000000130137276 3030 05597069 5452 48381236 DF59887CC59BABC8 607AFBBA67736021CF2941C4A482DA85 0080
724400013013728 89554000000130137284 3030 24052454 2374 43097743 58E8C3D6C1CC946D 8E2DBAF046D2BE112C3BF2AFBEDA0529 0100
724400013013729 89554000000130137292 3030 98244716 1454 15641993 BE540DD44EDB0DC0 97B160367E55FFEA7D7732CF367F631E 0200
724400013013730 89554000000130137300 3030 59163596 3529 06578646 D6D0DFF1D1FC9805 FFE34521F845B53E25D0B0EEB0F3ED68 0001
724400013013731 89554000000130137318 3030 25066316 0286 22151434 F8021CF32CEA0E64 1C10629E3E0B7356CFB7ADF9DB001B2B 0002
724400013013732 89554000000130137326 3030 93513217 7489 12390380 E9240BFEE8DC76A8 30F0D160FC79D112182DCF1054054846 0004
724400013013733 89554000000130137334 3030 75469701 8106 27648121 A270F6E4E575050F 715EC5409B0A8307C93537231328C98C 0008
724400013013734 89554000000130137342 3030 90704807 6726 45244931 EE5BB1E007EF3016 9C62DD4D3B91EF4D8F8438857198D5F0 0010
724400013013735 89554000000130137359 3030 89218657 4235 15460885 F366EA6A40C2CA43 867E5ACAAD3028100595FF802F447A03 0020
724400013013736 89554000000130137367 3030 54304049 8396 86137134 E7A9522D4D889EBA B7990DED093C0CA7ED0EFB6915DAC46F 0040
724400013013737 89554000000130137375 3030 42578922 0331 14025920 4D6B3D263345B072 85E20D5F3FDDD871E54EDDEDE73FB5C1 0080
724400013013738 89554000000130137383 3030 64793632 7908 19036496 5298D14451A02524 93F186749E32E38FBF91F1690A7F4A1D 0100
724400013013739 89554000000130137391 3030 50711209 6806 86987175 42F00A8F558D01C1 DB1C222F867772780B407340343314B4 0200
724400013013740 89554000000130137409 3030 74596390 7617 81068304 1C7A6E6FB570F142 E6E3FA29AFBFA8F0FB2CBC79C81FBECE 0001
724400013013741 89554000000130137417 3030 25372167 6002 24375420 519BB2DC8FEEAB10 C2948D7DB38156700E7F22E95693F51B 0002
724400013013742 89554000000130137425 3030 10905678 2016 07673041 2E9F22E91009C449 CFD471D5B74C7491C6D808805C388BE6 0004
724400013013743 89554000000130137433 3030 96274991 2666 82442533 AA804F4463334192 D3A30909CE02E7CB216F04244C652593 0008
724400013013744 89554000000130137441 3030 54210808 8373 08600595 8DEFCE2C0065C2DE 92D8BD70B77360685C824A0B78A14840 0010
724400013013745 89554000000130137458 3030 72206892 4801 81473369 17CB742404A2BE45 E67BEFE92EE619D98F47CB5A3B44A81A 0020
724400013013746 89554000000130137466 3030 85823715 9123 69463966 7CF8EAC238273E47 339F21E0F34A2CF55AC0124EAE998973 0040
724400013013747 89554000000130137474 3030 53138618 3723 64321357 37A9D40A8C2A4B75 4ECF1B18AD992D83B477E9CF46683CA7 0080
724400013013748 89554000000130137482 3030 82636627 6661 53491997 3BAF4B68FF1DC084 F41AB6130847FC065C787AD106A9D7C3 0100
724400013013749 89554000000130137490 3030 81089423 5126 81784001 6D7FD37288D19051 2C28FDA6D849E1E6944D5D0B510DB5B3 0200
724400013013750 89554000000130137508 3030 13736849 0979 40965649 AC1B448C944F1252 11811BEB4036355CA8B4673865800BE6 0001
724400013013751 89554000000130137516 3030 08384652 1192 16344301 5C080D395036C4EA 7E1073FEC50E28ECE8DC78312B89B868 0002
724400013013752 89554000000130137524 3030 81215746 2798 68423462 FCDBFFED2ACAF20C 43275CF1B78CDA3F23B1913674D1A838 0004
724400013013753 89554000000130137532 3030 83484304 6093 69786716 AEE8324DF7F89109 BC7F0B4D38BE25BB4D5087D6F6DE8E21 0008
724400013013754 89554000000130137540 3030 10167401 5057 54115025 EE836ABB201D93F2 7DCF5E46FB556ABC48C7BFA5895AEA7E 0010
724400013013755 89554000000130137557 3030 41812667 6537 55665236 90C90DAA9A2EE858 8E84942CE1DD2DD1706D8E4F7F540266 0020
724400013013756 89554000000130137565 3030 50412386 6322 53939016 9252D8DDAA1037F7 30A2976EDFC32EA949FCBA48835FD1EF 0040
724400013013757 89554000000130137573 3030 22151229 9491 19790408 3142641EBB822649 3A9F995A154A22ABBC425842C09D4116 0080
724400013013758 89554000000130137581 3030 97047351 3522 87892475 EDFA34CFF1806D2F 944D1D5DBB15EA9F6E9908DC7D8E41E6 0100
724400013013759 89554000000130137599 3030 97312701 8678 64626747 5BEEDD1E5A26A3F9 7ED1D3664BF6D86C8244F8F444A1CC8A 0200
724400013013760 89554000000130137607 3030 81504296 5998 64276037 91079469A2A48A71 F54E4C6BCFD15003CFD6C5CF4F0DE17D 0001
724400013013761 89554000000130137615 3030 23192987 6009 96495070 288B361E41C29BE1 62813CA6F2ED0C605560EB7BB5E7D92F 0002
724400013013762 89554000000130137623 3030 01707755 4797 95036982 AC6D6978A1D5D8C7 59C6401F3A7DBE25329FDF9E01DBF784 0004
724400013013763 89554000000130137631 3030 46783251 3655 62384375 8A999A626FDF404F FD0395722687B8561A801235C03EE246 0008
724400013013764 89554000000130137649 3030 50111826 4025 37085365 4285D0D49EF72F8D 199FA0F0B6955CD4A34BD9A35AFEAA52 0010
724400013013765 89554000000130137656 3030 59555603 5607 72970056 A188627D2BF66A68 534CBF7965334790035E405D79F6CEB4 0020
724400013013766 89554000000130137664 3030 86527173 6263 37031177 8C1392B7660D16BE EE19954827A8A2445C10035D6DFCCCBB 0040
724400013013767 89554000000130137672 3030 91706620 2560 67709218 5C8F094D98049B6F 4C7034DE7F543D20A96709F92A919488 0080
724400013013768 89554000000130137680 3030 78565320 5863 62923859 F81A54EDC63AB066 E3547C84A8628DE9C9F1B9880FC97469 0100
724400013013769 89554000000130137698 3030 83381630 3587 40781388 8FE7BB2C66884F66 3C10CC20E799E5CB89C5D6256A55B6D0 0200
724400013013770 89554000000130137706 3030 99556429 8444 93643362 CD4DC6E24E61F05A 419AD0D37659F235DD0D652A61DAC0A4 0001
724400013013771 89554000000130137714 3030 52257057 1858 77275718 058F8E4CD478CBDF D0ECA1B9B8A0CC44DB8577643FEFFA79 0002
724400013013772 89554000000130137722 3030 27152083 5457 37908200 0604CD8462D074E0 AEEDFDB7C53B8219D3AD34D952F52A9C 0004
724400013013773 89554000000130137730 3030 05133972 5896 79037842 9AB2A42B098B91EF D8825B928B66D0749297A560AF5750FB 0008
724400013013774 89554000000130137748 3030 07122411 5018 06762273 69A1E83A5F252AD7 B315A43EFCC6E25F65CE1706FC9545E8 0010
724400013013775 89554000000130137755 3030 88505735 1343 78199831 67E29B4FF7C00C69 4263A46C7FD0378768263DB76EEA49D4 0020
724400013013776 89554000000130137763 3030 17995892 9348 94818814 9B716C0AE24A084B 95DC03EB14606B121F155F7B339F6436 0040
724400013013777 89554000000130137771 3030 17108102 8162 16445347 0A119DF565998CA1 E694E690F6140AE19457DECF586FA02A 0080
724400013013778 89554000000130137789 3030 64844762 7822 29081842 93DDDDF3539E1402 8EBCFD484472171983201AAB0DCA4974 0100
724400013013779 89554000000130137797 3030 32761415 9224 09997820 F55FCA6B3916D9C2 FFA16546A7CC02E127BACCCD7A337D82 0200
724400013013780 89554000000130137805 3030 39445361 7765 56151778 B3AD42B14D56F47C CCD6F1173EF7AEED1139FB3539CD0B9E 0001
724400013013781 89554000000130137813 3030 69461916 3765 78041668 3CBD0757F04A8461 CF7B50E80A45843100CE6681D8D491C8 0002
724400013013782 89554000000130137821 3030 22300872 6883 52193853 776B3300A1593C3B 4DD1144604EF8DC2E5E50949F8CBF82D 0004
724400013013783 89554000000130137839 3030 81363602 0429 31717630 88AC330AA1E2D816 E0137B22BD85662B96CCD116171C0D1D 0008
724400013013784 89554000000130137847 3030 64819600 0074 68342317 754D11EBD51577AB A77775F0CC14F1BC45A277E35E514213 0010
724400013013785 89554000000130137854 3030 98301831 3826 72029970 B5ECB2E34B11DB51 9D549F5EF7322F0C2C66B4D5116ED772 0020
724400013013786 89554000000130137862 3030 58858823 8622 49630469 A1E4D1BD90F7889F FD02BF3CA8E18DC2B4FE6B8749626644 0040
724400013013787 89554000000130137870 3030 00383952 4428 30830919 0907A03FEAFB7CF1 4E73EBB3C09BE194B4B9127925FAB09D 0080
724400013013788 89554000000130137888 3030 13003970 4903 81566911 FB26F43252CE8470 BFF49D2E69B7892DFDD07692DD3710E6 0100
724400013013789 89554000000130137896 3030 72363087 6798 45443330 52E65A29FEBBE52B BC3FA0948FCC2FAC82D96726EBD2076A 0200
724400013013790 89554000000130137904 3030 93962008 2904 16324605 3B7F3E35740D9967 9C854789B7AF3BAA30B6C68FF3BDF1BF 0001
724400013013791 89554000000130137912 3030 73076971 0461 02006415 9FD5159CF6475A28 4C7306C74D06E706B0CBDD66050CD9C4 0002
724400013013792 89554000000130137920 3030 27544047 7611 72051025 14A2C4E4054062A4 AFE562D1A587F4F0F3F8E9FFE68BFF87 0004
724400013013793 89554000000130137938 3030 01857788 9989 39007601 3214710AA74F7C4C 3FE823BC6E1D032B62C16A580E5EBE4B 0008
724400013013794 89554000000130137946 3030 86156742 7911 28884837 CCF77887D8ED8B8A F6E2A7FB5AD71C703230471125B252B2 0010
724400013013795 89554000000130137953 3030 80648002 1900 24126684 4272E8DBBD22F442 435E3FD4846BA7835AD8FFD49B35CEE4 0020
724400013013796 89554000000130137961 3030 30321097 4112 95461068 43BF6572E88E2351 1AC26A71FBDAFF8E5B2BB3165BA6A6D2 0040
724400013013797 89554000000130137979 3030 19162784 0313 20426171 67B9D3AB92EB759E 5306D912A2898F33EFA95EA7CE44325A 0080
724400013013798 89554000000130137987 3030 44595540 1522 52715138 A43A3102CBAFD2A8 C810CF913EBAB3E006D1293ABC8BAC47 0100
724400013013799 89554000000130137995 3030 94060737 9673 89838159 DE3BF78F5F46098F 36616FDCAAA51EF1DEA2017ED9586C7F 0200
724400013013800 89554000000130138001 3030 35116830 7384 65864833 EB218FCC29B6AEB9 9570E8DAB3189B83061E59B33E6C74C4 0001
724400013013801 89554000000130138019 3030 55326943 3508 76215896 259CF42A2CBCACE2 C371492F9E2F711F288773CE46CEB3D6 0002
724400013013802 89554000000130138027 3030 90664980 1925 61410524 E1E955F22BA9713D CCA1AAE49D21999A5FC927E30AB9C4E6 0004
724400013013803 89554000000130138035 3030 56135124 9156 80944828 980BE9024AA15EE5 C5FE1404856D19C53094888F7ED7ED84 0008
724400013013804 89554000000130138043 3030 08053913 6940 59138400 0F1DD5DFC2D1189F 840A234B866AB11527438E66178050DB 0010
724400013013805 89554000000130138050 3030 36959576 0988 53669361 50EB143A8C55E576 61426E01DAF19E1EFDD78202298D4C9C 0020
724400013013806 89554000000130138068 3030 15851505 2149 18995364 A581466D40B2B137 4A414266CDCF233E9116C5F6FF11CD13 0040
724400013013807 89554000000130138076 3030 61166986 2948 81155200 DA9D51ED52AC4B09 851A0C9708CC52BE66556BC2F79EA356 0080
724400013013808 89554000000130138084 3030 89181200 7634 78066328 B3B8D18CFF520B59 EBC4F295ED014B60F15B98BF587E61D1 0100
724400013013809 89554000000130138092 3030 35703589 8281 92333293 45468F0114DD6201 D93595E5FABD850E8790E80AAA01E803 0200
724400013013810 89554000000130138100 3030 33440009 9793 46670501 A3BB54BCFE6C2A36 C5449BBC86F78825AD28E4DF2C3CC4F7 0001
724400013013811 89554000000130138118 3030 01017041 0496 09266996 79C47E40D00EC34B 584798F57C7B06D05D4D823E5FDE4BC1 0002
724400013013812 89554000000130138126 3030 50763873 1680 11912670 35047A0B3F410543 19A5279E26FA1A9C50236D35FB3D75E7 0004
724400013013813 89554000000130138134 3030 95876919 3428 36455095 0D34A579A7D9A41D 4B8ECF25601887C6736F61289E2C202E 0008
724400013013814 89554000000130138142 3030 96695012 6383 61488281 CF62930913DC7D17 E755E485DE0F0CD31BFD79FA1F4A9340 0010
724400013013815 89554000000130138159 3030 38137497 2002 16901180 54A83080530ED2A7 D8A36C8B48CABC41352DFEF4F06592E7 0020
724400013013816 89554000000130138167 3030 43742933 9262 77429015 AE621D6CD0742018 E67654EF56551558FD8BF6AF711EB947 0040
724400013013817 89554000000130138175 3030 99775900 1774 74735305 C6FD803383382CFA BB170789F65334750C5909756E7E09C3 0080
724400013013818 89554000000130138183 3030 79159345 5610 00733953 EDC9563599F6DFA3 6509F2AD8807E0EFA22C5C5BCE966AB8 0100
724400013013819 89554000000130138191 3030 69545604 4801 91567633 0A4E03344E686F9D C81896BB559A0720549203D2DDEE0A45 0200
724400013013820 89554000000130138209 3030 70744763 8367 37911835 B476B9EE07DF9169 0D62F5B33DA59927EEB40F7FB03E811D 0001
724400013013821 89554000000130138217 3030 76995363 5274 96687990 CA38A4EA7624B601 2787C67560441C008BAE0F0C3839E480 0002
724400013013822 89554000000130138225 3030 08554357 1299 82885968 87594CD80F69144D 5E5024F715499A4565EAA74B811D57AE 0004
724400013013823 89554000000130138233 3030 78064671 7030 99508316 EFCD8B0CC9C82120 EA58998A3E95CDAA96F38C8759C704B3 0008
724400013013824 89554000000130138241 3030 51991080 3625 78620711 42B52B038A1429F6 F42CF512F9064207747FDBB9A399F9EE 0010
724400013013825 89554000000130138258 3030 23668152 6698 76151432 00EBD5C22C6D582F 428876DFEC3272C8A7FADB9179A95DE3 0020
724400013013826 89554000000130138266 3030 27351200 5383 05514517 130D5FF13F3A5B1F 609AD6EBFE4665C8CDF6D874E7F0942E 0040
724400013013827 89554000000130138274 3030 73012402 0126 45981834 59B396B10E3A7717 B5087924951DB5BF440FBB058F3B20B0 0080
724400013013828 89554000000130138282 3030 42300018 2598 63791332 5AAF425F1D816CD4 14A78756601FEC183E4839FC28C31DD4 0100
724400013013829 89554000000130138290 3030 45522866 7319 99538527 6B784ADC150E81AF A479662BDA53E9CB8B4D0DCC9FB3ED98 0200
724400013013830 89554000000130138308 3030 69899401 2234 36832950 0996978031E01DC2 BCF611ACE11065550EF71A643DD6BA9E 0001
724400013013831 89554000000130138316 3030 40456525 7761 85201308 457A45BA04F9D25F D44F5CDE8F272723F5EE986464446F9E 0002
724400013013832 89554000000130138324 3030 42864008 8308 86313141 DCF3E4B3415FF1FF B26306E9824A90D04D2CED908C1C8B19 0004
724400013013833 89554000000130138332 3030 61885557 4464 00548432 CE9C92F965D78174 DCC522D33551FEBBC6FDB350FD72BDA8 0008
724400013013834 89554000000130138340 3030 95497004 1389 45205463 3DA5772EA652D331 E1894E52D82E3D800F8FD64321FAA8F7 0010
724400013013835 89554000000130138357 3030 29232579 9493 84798091 4296B1737C03BCB0 F725646287B31A6BEE279D37A80AAAC4 0020
724400013013836 89554000000130138365 3030 42236792 3366 51830850 B8EF394AE7D27BAB 3BAC80AF2CB0CD2749D3339537A48839 0040
724400013013837 89554000000130138373 3030 62064275 0249 23496795 2191B3BF1A484D1B BFDC0C656A6C80A290A50B43A4EF86A7 0080
724400013013838 89554000000130138381 3030 59300612 7596 17503164 8933A9C69A94E4B5 BFAD5CCB33B66259E376FDFDDDD1683E 0100
724400013013839 89554000000130138399 3030 41789310 4996 88336852 D373A3638EA68AD6 E50C5960BF70405C4F81EDD46F7F59EB 0200
724400013013840 89554000000130138407 3030 07194896 2602 99710415 A9548BF8F4F98363 E065979D31295E0B194A2629A2086108 0001
724400013013841 89554000000130138415 3030 37287179 8484 61114805 596CE9F29EAC393B 5CE4CACDF0B7F3F9F6A41AC3D9F90551 0002
724400013013842 89554000000130138423 3030 55670280 4527 11080384 8940D79F5D451D97 F2B432990FA70E937D28E5F0C83B472B 0004
724400013013843 89554000000130138431 3030 08909219 3346 60622190 9AFDECFDFB1699EC C623CFF21BA118EB6226A2D7803BB237 0008
724400013013844 89554000000130138449 3030 95332036 1690 14542586 E3671025BC2F7A65 59D9685C59AEBF08401907DB3337655C 0010
724400013013845 89554000000130138456 3030 09706476 2602 52500030 92D430CA0ACE80DF 82BD6E4CD79F88CEA3DB3383AC42C851 0020
724400013013846 89554000000130138464 3030 05001110 4929 36943453 E9AD54455E3277F8 EEDEEAF4B42EA71C5441F4BBC30FE6E1 0040
724400013013847 89554000000130138472 3030 92859141 3945 20340022 5AF626365DE49731 D0AC7268623F1E821E6D62A47EDD6812 0080
724400013013848 89554000000130138480 3030 70631940 1367 74820460 4502C9EED882C9B6 49050924444884204FD83BD758AA8822 0100
724400013013849 89554000000130138498 3030 08174137 8752 03567791 D1C34311EF589D31 12E00C4D4C0E6D77D9EA764F23AE13A8 0200
724400013013850 89554000000130138506 3030 15947249 7834 38849579 73DA953898D59B0F 00C126A9EFFC6EF1D08B0E0E6DFE5C07 0001
724400013013851 89554000000130138514 3030 26304566 1895 24114579 BD8C6DF4375CF98A 2A86DFBD61150C7D374FBB704D9F5210 0002
724400013013852 89554000000130138522 3030 67565178 8240 09969705 4908ACEC8D6A0032 3403DE30082B83AEE930495E55F49C32 0004
724400013013853 89554000000130138530 3030 72168233 4399 29921652 2A32F18804AE117B A9B929C494E0B704E99F39F21492E133 0008
724400013013854 89554000000130138548 3030 75651625 8432 41283997 567044FB16FCA51D 1AF4863369B8C9DB80864EC87F9B0F07 0010
724400013013855 89554000000130138555 3030 57897926 9765 76196137 69827DAE4D7219FB 14869CB249BFF1A98832707E0404F8EE 0020
724400013013856 89554000000130138563 3030 79706350 5760 78773841 9F0969128AC975FE 6C8DBF91AD6FB75B11F7B02E721EE34E 0040
724400013013857 89554000000130138571 3030 51751000 5685 74357314 02B605EA44B91A59 95EDE232DDB900749DFF07FCE7A9DCDC 0080
724400013013858 89554000000130138589 3030 46636298 0711 70930645 F201A8E61169C241 A5DF7B322B35BC1FF40433F60ED7CB97 0100
724400013013859 89554000000130138597 3030 88931059 4587 90570876 361A0449C91EA445 04FB86E8029FE7DFBEF0A90F0C6AAD26 0200
724400013013860 89554000000130138605 3030 70860411 1237 20017789 0A6681CC2FED275C 523DE3292178F0D212F512B297AAD8E3 0001
724400013013861 89554000000130138613 3030 24805151 0519 32358370 A2D4B5738C98115A A76414D140A22B0A14BDFF925B6238F5 0002
724400013013862 89554000000130138621 3030 88145887 4956 61945732 B9937F0CC42872C7 237416501B16ECB4DE6F2A527FD84B99 0004
724400013013863 89554000000130138639 3030 19063027 2333 86942733 64E357E74987573C F53FB49CDEE0055F06231F307B21DAA5 0008
724400013013864 89554000000130138647 3030 23596413 6040 62823856 98BBAC339367728D BCFA237654B57ED7B41BB307F55FD367 0010
724400013013865 89554000000130138654 3030 83553864 3037 19879864 AF32FDCE27216CEE 6C730267928D9632F66BCE5909FBC57A 0020
724400013013866 89554000000130138662 3030 21762626 8203 76493718 6FEB3A14997E2FC3 9EFE8ECD37CA00F42C3E4D5083DD3C2B 0040
724400013013867 89554000000130138670 3030 11615231 2005 44501358 C194E6D12AA91FA5 96D5CA2ED1BB01A78D0FEB95130539C5 0080
724400013013868 89554000000130138688 3030 61609280 6231 97241976 B861B949AE68DBEA 1EA1349AA9CD196BA05ED05F68C0E0D1 0100
724400013013869 89554000000130138696 3030 03518550 7421 79339267 7F9CA4DF5A44F0C0 8BA3073E1253A7381DBC4A94D56FFA56 0200
724400013013870 89554000000130138704 3030 41025037 0802 44901693 BCA1EF95C038C850 459DF3AB9FC6CEC33B2C4A886DEABC8D 0001
724400013013871 89554000000130138712 3030 44081953 3948 24242168 B64D8584F789ADAB 9DF4C3222254C3B913F47BCE791F7D74 0002
724400013013872 89554000000130138720 3030 95474023 3113 12328658 7984000408137402 DE793A1C9CFA490CC41F5FBAAE8B85A3 0004
724400013013873 89554000000130138738 3030 71899167 9154 41575328 E84776FB5986FC91 FAC69E6B2B50EA510834833CD9280FAD 0008
724400013013874 89554000000130138746 3030 60588147 1987 55129430 334A09414D8B7173 0EDEAE039C39B34981154A046ECC5537 0010
724400013013875 89554000000130138753 3030 19227265 4307 60461626 523D1B9E312245A7 2A133A4A372D986D46AB637C1AEC0905 0020
724400013013876 89554000000130138761 3030 76249768 6887 18459099 CCC7EA34B33CD23E 954627241090CD321A670C463AFFBDA7 0040
724400013013877 89554000000130138779 3030 04003343 4172 41565383 60A6935407E7596A DB3D3007B4819FB6FE7022E789E2549B 0080
724400013013878 89554000000130138787 3030 13579304 6141 33783979 49229A36C29EF699 E94BD5ED3BA6AFCC91DD91A3B25AE59B 0100
724400013013879 89554000000130138795 3030 67923582 4635 30609043 ED6353DC3CCE9E61 A178A0B8307F78733B016FD49F5B7EAA 0200
724400013013880 89554000000130138803 3030 86041719 0194 80878711 EE94C11D8479AB14 F25D54679543A99F419D373A611E5D95 0001
724400013013881 89554000000130138811 3030 24587215 6094 57612537 96D017E4C6B40795 8900132B7CAAE29D0F04117A5058F110 0002
724400013013882 89554000000130138829 3030 51888767 9211 65128860 937B590CC8838FA4 C32A8D0896868CD189FF2D5FE446C3D9 0004
724400013013883 89554000000130138837 3030 98032776 6844 70968819 655B278CD8DAB0AD EEEE1E5FE6C7FAAEECDAB313DE993006 0008
724400013013884 89554000000130138845 3030 05239722 1648 96711089 D8FB837592FAAB04 12D89385ECA9BF13888D77CCD729BD84 0010
724400013013885 89554000000130138852 3030 73017033 0462 35256650 E7249D6BE0C6F72D A5ED33675460680947E05837A98E7818 0020
724400013013886 89554000000130138860 3030 80809667 1043 25017429 23AFCDB5CB6088DC 5318C8536F37AE2F84A294A2248D923C 0040
724400013013887 89554000000130138878 3030 22718289 7707 93737268 524EBF4070539968 A324DA1BF31E423C17E05810DF022E45 0080
724400013013888 89554000000130138886 3030 86852583 7512 24643897 57C94BBE9A9B1598 79AA331939BB383CFB4AD5E69179F05D 0100
724400013013889 89554000000130138894 3030 97686795 8383 04144658 C919C976E1FECA55 593CEE55B13016AE72FEA83951B8D355 0200
724400013013890 89554000000130138902 3030 28829102 7350 92323703 8276177F7095660B 94AE350E3018BB89716F7651B720D2AF 0001
724400013013891 89554000000130138910 3030 03874705 2864 90366817 DF4343899C9B6A8C 8DE33EBE6E2FAA281C0DBE20DEA540FB 0002
724400013013892 89554000000130138928 3030 59791551 8334 13475551 21B61BF977A26AAF 8F181E4CBB94087FE119A5718A1D08D1 0004
724400013013893 89554000000130138936 3030 49975464 5525 39641446 D1E86295EA66D240 E6322D13FF1D643212C32B4CF34E48D8 0008
724400013013894 89554000000130138944 3030 16889720 5473 30399278 EB91CD69ADD05FA8 45ACE8E7C786C7A6F04D76EA29B26310 0010
724400013013895 89554000000130138951 3030 02578272 9105 33254202 24643B8640CE77F3 B68DFFF2176C0C0826106EBDC56F73C9 0020
724400013013896 89554000000130138969 3030 47136711 7921 51154296 3225CE90B27844BB D2B352841A15349C8D2BC563DE800734 0040
724400013013897 89554000000130138977 3030 11113785 3171 79665003 B7A267880B669CD1 4FEE4D681CCC92A4A6E142C5331B409C 0080
724400013013898 89554000000130138985 3030 76354826 0046 45657505 96F59F56C4E07ED1 21DB21B39C55B80A9883C1C4D29D70A9 0100
724400013013899 89554000000130138993 3030 13994874 7245 98242634 B92D4FA7E410F757 8016CE03F314E491C8B66FF446452BE4 0200
724400013013900 89554000000130139009 3030 85320094 1639 33268278 7BAE2F2768D9C068 E80B00C4275116C600CBA0C39815C5AF 0001
724400013013901 89554000000130139017 3030 67968772 0224 34894624 66F73E37AD43ED92 280CA9437EF21DA50593A1C76C1159F3 0002
724400013013902 89554000000130139025 3030 01135379 8402 11387468 051BDCB43BFDB305 0CEDCAAAEEF16952115DB1E277287A21 0004
724400013013903 89554000000130139033 3030 62910486 6612 01739132 8F86825E9A3F9BFB F77995DBE5AD11AFDD837A3E3A5929EC 0008
724400013013904 89554000000130139041 3030 49645515 4346 21878636 F20D75222B3E21D1 1A14202A7495C12F7F0525EA621275D4 0010
724400013013905 89554000000130139058 3030 21303039 1289 30057481 262C1A4EDBB4CD6A FCB04B56DC18B398ADC5B54005684403 0020
724400013013906 89554000000130139066 3030 32094523 8192 63589267 AFF37A2D5BDF6101 BA7FE66AD79A566D69ED01E8A74707EA 0040
724400013013907 89554000000130139074 3030 38626030 5139 49140896 A733D20DD1C2F406 365994D3BDA605C192993D656EDE1A01 0080
724400013013908 89554000000130139082 3030 96380511 0141 48058483 238FD2063ECC7377 438CBEB3E508628D359F70C813242FA3 0100
724400013013909 89554000000130139090 3030 88248131 7352 05066265 52CC8A61EA43A83F 7DEC93D136904814768E5BB7A89E6751 0200
724400013013910 89554000000130139108 3030 97053308 9459 79476577 A3FDB28418B6377F 70DBF06E338E09410D366184B6CDE687 0001
724400013013911 89554000000130139116 3030 47567657 6347 66749862 66E891D47BFD871C 99DBB4091C2CDFCC23AD308B7C44216B 0002
724400013013912 89554000000130139124 3030 40427457 3224 32087742 97F6F0EDFC6C361B 0D7D03053E9E2EB69295DA80CB142291 0004
724400013013913 89554000000130139132 3030 77822623 2233 03485945 E4901E55E24DF759 A2B1D5A47935EEB1FB7D20CE0752809C 0008
724400013013914 89554000000130139140 3030 43735648 7814 68352042 487B6E7495FB2F9C F86FBE959FD71E7AA94E282CA8B73ABE 0010
724400013013915 89554000000130139157 3030 79237136 6045 35286028 45B7A5B984AED158 E8B1EA634D3D18E10211106ED37A761C 0020
724400013013916 89554000000130139165 3030 87518216 7977 43141093 9CE43A2D16DD0760 866B74DEE1B84969EA2894E8BCF4C325 0040
724400013013917 89554000000130139173 3030 10436585 9111 25136253 4934301DEEFD8205 F7A275F712D68CC019E1328EBEC4C765 0080
724400013013918 89554000000130139181 3030 32115222 0269 24685370 B1E9882F752FA858 1F47A008CE416A63514740D6D746C988 0100
724400013013919 89554000000130139199 3030 49392888 9463 33161167 CDB02E71C3C341EB A6D59F77C46C3E733DA5D6D8A9376151 0200
724400013013920 89554000000130139207 3030 54470202 0325 44210409 17C14E09A7161E8A 259F107647D4F1C59EE20D31C1106BF8 0001
724400013013921 89554000000130139215 3030 90043874 4354 77211852 8227945AAF2D159D 1B4BB292480705BB7F3F60C8F89A7D18 0002
724400013013922 89554000000130139223 3030 92743109 7570 85534205 CF55477AFA7C4365 9164FA5EBBF68EC0FA707D4BECD36F7C 0004
724400013013923 89554000000130139231 3030 68589338 4516 99760328 D91CAD68BF6D47DB B54DBD508F04CF843AFBCA789DC3D770 0008
724400013013924 89554000000130139249 3030 99689034 3538 45492275 9BDD456209F2D354 D5BD68498A309A02B3E98C716D265EC4 0010
724400013013925 89554000000130139256 3030 38868237 7094 36172752 428E5E4E61AC3467 1AC4343A6879651A5E9166C483E7F0D3 0020
724400013013926 89554000000130139264 3030 45889484 1229 56404499 A520463CDDF9A74D 53ADEE4DA4A94B1EF65B33BE7153238E 0040
724400013013927 89554000000130139272 3030 53174379 1937 26164938 FA1BD0EF3489A928 AA3DA96E3234B104B3DBC51B605DD575 0080
724400013013928 89554000000130139280 3030 05864212 1375 17929043 C5E49AF10EB1D743 8E807D70CE380F033345CE0AFE776269 0100
724400013013929 89554000000130139298 3030 64009094 4306 26293613 12DECC8332251FB1 3CF6E01A57175481CF8BFBE18B78715C 0200
724400013013930 89554000000130139306 3030 49665184 5110 26103159 7143CD6F7EA1004C 75A27B30218780F4CFA9C0003E85DF94 0001
724400013013931 89554000000130139314 3030 32270764 5066 47202660 4EE864201795BE58 D2D9AAF52AA2DE166065669E28E5D97A 0002
724400013013932 89554000000130139322 3030 25431727 5744 65869823 DD3FC814A6A33776 A3F31A28B18DFADCCEA274610D78C55C 0004
724400013013933 89554000000130139330 3030 41708341 9208 33771539 4A55DD73F95ACAA3 0EF211C1030142D8BB0B2DCB3B2B7695 0008
724400013013934 89554000000130139348 3030 73855829 5770 83722103 8D577F0247EAC59C A6C2F673535D376550C6244C304D875E 0010
724400013013935 89554000000130139355 3030 94442886 1089 54075395 4EF4BCEA00D111E9 3F6869962D8FAE133BF4C711E9B2B771 0020
724400013013936 89554000000130139363 3030 56039536 6550 48270623 9C8547897B3336D7 D295812F742FD98D2A216F9427A7DE4B 0040
724400013013937 89554000000130139371 3030 92473010 9781 01861005 01B1C1AD3D1DB0C0 029B408D16458B5FAA6427FE56305A4A 0080
724400013013938 89554000000130139389 3030 40301166 5960 26173981 0E388E241EEE3E03 A51FAD56C0654F020CECDC36CC7B2736 0100
724400013013939 89554000000130139397 3030 69549405 1862 34037245 239ADEF5A1B230C2 86E3F409A4C9457CAA47DD00DAA02895 0200
724400013013940 89554000000130139405 3030 27469298 2628 76930790 E5085B155BA9D2B0 64ACC646F39CD3EB798AFDA05E256BC2 0001
724400013013941 89554000000130139413 3030 84930999 1975 57411633 A581E860F1EDFA60 8498264CE55F8F97D7C756F37AF413C8 0002
724400013013942 89554000000130139421 3030 09318925 8639 39143878 5922B5EF5F8EA018 6F2BA895A0242026AF5CE96A57426CF0 0004
724400013013943 89554000000130139439 3030 38406068 7306 39340488 A1601C2A3F8F6CAD 5904FE3D5294CCA67B81618FA59FDC3D 0008
724400013013944 89554000000130139447 3030 63073664 7573 64681298 5C7E9537D6E9C605 22BD27EA50D4E78D89F117127F5E723C 0010
724400013013945 89554000000130139454 3030 37864060 7086 83887434 DBBA11FEE49F73CC 600F9B0FB3C62C28C84537F1608DCE9E 0020
724400013013946 89554000000130139462 3030 16269436 3981 69507809 490A0C7D14B94D9A CD478CEC2D17C95855A669D4E3354A97 0040
724400013013947 89554000000130139470 3030 36440286 5468 59783027 E393D18DB5C45892 4929480FE6CD6943BC7D2074411C911B 0080
724400013013948 89554000000130139488 3030 19233726 7489 37949133 2A6BC911A8F53FA1 EC8B8156354FCED0890993EDD945C59D 0100
724400013013949 89554000000130139496 3030 31464838 3339 85020848 84A4641DCF1D60E8 593193DE06FB30DB6037D0E13245A3BE 0200
724400013013950 89554000000130139504 3030 84418322 3346 58154238 65AFD82F27801E29 B9683C10A07C60C41500E52293EB0877 0001
724400013013951 89554000000130139512 3030 92985251 6541 22403189 F9EEC67EAA01479B 567E402833513B32043E496DE6FA9EC3 0002
724400013013952 89554000000130139520 3030 94316481 8113 79255291 5D46AAB627560261 F348E05298EB96745697FBDE850E62BC 0004
724400013013953 89554000000130139538 3030 70516708 7231 45376232 3A9B35DA10F35EDC 45D76293F66E124BAC50C18B9FD5EC68 0008
724400013013954 89554000000130139546 3030 72397413 8794 29698907 5FEC9C8DA2998E43 5D50B9B27772129AB78236B6965015A6 0010
724400013013955 89554000000130139553 3030 88237157 3359 09934152 F49B4680E4BBD1E3 794B9067439446A30D9F0EC3CA1C1C70 0020
724400013013956 89554000000130139561 3030 08325862 1664 65237057 CE6A3D8BE60CAB8E 1A5A48906931F480D70A5C2CD6ABCCF1 0040
724400013013957 89554000000130139579 3030 16065130 2518 42901666 6C8D2F7EB10BC13F 818F726B2205DC1A9B12004073320304 0080
724400013013958 89554000000130139587 3030 67627910 9573 36276237 B0FE2CFFB4545E4F 3568358D7C63ADF74FC7B1D266DE681E 0100
724400013013959 89554000000130139595 3030 06915119 9560 03738093 CD02F2AF969C6D08 2F82D139B0EA5AC54AC66738ED3629D8 0200
724400013013960 89554000000130139603 3030 62281852 0548 90668555 B4ED497B47BAAD4A 98B574F4A4154EFE4DDBF9F8987E594A 0001
724400013013961 89554000000130139611 3030 44644243 3074 26601039 372598A529F858C9 29897BEDBCB8A9921AE8556B45FD7EFC 0002
724400013013962 89554000000130139629 3030 85578830 4614 60022226 EEE4C091BDD238E4 925BA280870220FBE9146113EC1B1D5B 0004
724400013013963 89554000000130139637 3030 19981686 9594 28189938 403E618D2F3E4C03 1904041148E4C1EA3357062819291F4D 0008
724400013013964 89554000000130139645 3030 31372999 1268 43124383 CEE4B79BE7CAEF31 2914010111941C144874CE5927CD505F 0010
724400013013965 89554000000130139652 3030 06687487 3712 41045402 63C07A8CE4DCC971 9A6DEEC5267BD41AC1F1451D0EE47BF7 0020
724400013013966 89554000000130139660 3030 44634029 6512 30268062 288B2AD174554C71 7063EBC60C3EA833C6E7B5F58D5A28E4 0040
724400013013967 89554000000130139678 3030 58952393 2507 97245876 6551CC5B3A83528B D891A8448E4ABE53644F902271917921 0080
724400013013968 89554000000130139686 3030 56484275 1624 86268204 AB75E15D7AFAE702 4C9AA4BB46E497CF43ED9A9E4923A1C7 0100
724400013013969 89554000000130139694 3030 42315701 4307 88263421 CA8A442D087FE449 E61E396FB2DE1F9A924C7CFA87594E1C 0200
724400013013970 89554000000130139702 3030 25021820 9886 44369301 35E79773789E4835 780086A5113ECBE40E21C0C000537755 0001
724400013013971 89554000000130139710 3030 32784834 6536 46820861 2A0443F7D888CBE9 07D4A4AD6F4F4BAA003D3E37090AD3C6 0002
724400013013972 89554000000130139728 3030 83960095 5281 51274303 29089448EB446D41 C95F5FD7D36DA07F6A3C721AD374F740 0004
724400013013973 89554000000130139736 3030 19780190 6395 80389036 F3B41581245F75E7 613E2D07E1C240637BB65F79F22DEAE9 0008
724400013013974 89554000000130139744 3030 09124217 7852 05762079 D773D4E49BFC526E AC4A0315FF93679AAEC1D23E5B395036 0010
724400013013975 89554000000130139751 3030 24326582 1506 73651554 5F867D47B623A176 57068C003242EBA0BC7948560EC8B684 0020
724400013013976 89554000000130139769 3030 66658731 6573 16197789 3C588F57205ECA64 8F36A902F5CBCC1FCF7704D5FBE3B279 0040
724400013013977 89554000000130139777 3030 46910487 3607 54928061 84330DA6FDE510CD FB081B419897B1219FD4F7984E9585B1 0080
724400013013978 89554000000130139785 3030 95806285 8523 54513891 35B48DB831988097 E57879BB3DA27005F59634E9C136079F 0100
724400013013979 89554000000130139793 3030 87646912 7377 56831008 A185570868B99783 09FF69F4FBFAD4449B3ECA8D5D9D91D2 0200
724400013013980 89554000000130139801 3030 69142525 6131 82624552 2ADF6AFA8E059300 1C7D01B452A4F7F3BB33ED6B877A9C70 0001
724400013013981 89554000000130139819 3030 44423731 3848 50474528 42D7D725214456E8 52D27D357D69750A85B8083E3022FE15 0002
724400013013982 89554000000130139827 3030 43027901 4979 31059056 5E757E6C3CF55AD8 B2AFC4A06F617577A9B1520CF571251A 0004
724400013013983 89554000000130139835 3030 95657620 5711 71800166 B882848D5875950D 13E0320B60E7AD0FD45B5E7DB0124613 0008
724400013013984 89554000000130139843 3030 23301996 7900 08344353 FD074E9C1C5645A9 89FFE3567D999DEF54E2FD10A4998633 0010
724400013013985 89554000000130139850 3030 72995776 3578 86373756 BFB566955B2F6803 881EA69AFA8B6BEDA6F5CD7FA179CF1E 0020
724400013013986 89554000000130139868 3030 32977251 5255 31336994 19566F2323336BEF 9BFFDC705B7427251F771C7CD1BDC5BC 0040
724400013013987 89554000000130139876 3030 96678070 2682 94005649 2B4B422C32B13EDF 3606D40B6EBEC50A7621F84ADFDCF6ED 0080
724400013013988 89554000000130139884 3030 20006305 8859 16138457 70CD7D010265F5E6 D2490449139A5A4EE93B12C2B4A15D3D 0100
724400013013989 89554000000130139892 3030 71122996 3758 56943793 0CE70A14F0AE64B2 3E5F0D168EEF31C647D3F36B1ADBD3A3 0200
724400013013990 89554000000130139900 3030 09229292 1649 05426962 4F57CF6F1B055678 208312E0B967CBF0BECEE5447B3C6490 0001
724400013013991 89554000000130139918 3030 94285025 4152 45691606 F86BA717DF19802D D95A5A85EA422EB35F0B16EE986EE708 0002
724400013013992 89554000000130139926 3030 57354671 6885 68084943 44442AE32B1E19EB 45FF78EF5D1A105010FC7355C75D4FAA 0004
724400013013993 89554000000130139934 3030 50014722 5111 56605444 ABC2CD32A51CB9A2 98F9FDBA9A52103357529F2F92E7A416 0008
724400013013994 89554000000130139942 3030 44260733 7602 23822013 90BCBCF0A948559E 28BCF22C0D5559D54FE4735E81C018A3 0010
724400013013995 89554000000130139959 3030 86197197 4855 44302129 25712EA52633B477 C51CE65F6551D8E7E327CF4026B24842 0020
724400013013996 89554000000130139967 3030 37853108 4497 98485195 17579753B93BFC4E 93156B9BF22904655AB8747DFD2FC84D 0040
724400013013997 89554000000130139975 3030 33876543 1377 20706031 6E0AE6B67BCEBD60 C5FF713CE8C62F405276060A4C1F7458 0080
724400013013998 89554000000130139983 3030 37711088 5432 66932796 BAC8EDE17293C6B0 DD4E7B96944D9EEE210A434CD964DB68 0100
724400013013999 89554000000130139991 3030 82982428 5508 61322135 A79A3272F7D61BB8 2B6356E55857E2240456D658FCDDF71D 0200
724400013014000 89554000000130140007 3030 35915161 7581 72941626 C9FFDDA38B9756A1 92FC25305C141A5EB50F6A03742CB86F 0001
724400013014001 89554000000130140015 3030 35773394 2565 17671465 204069C28CF5DD78 CF78B6834C08E9A419282109FD376673 0002
724400013014002 89554000000130140023 3030 16465590 6168 40485616 E5255F21A6BC3EE2 D6BD49B9363DEB2656C36F45B3FBF7F3 0004
724400013014003 89554000000130140031 3030 10024895 2877 06481093 1AEDDD9BC21DDDFA E9AD2492A3C779989C73CB4CF2C35CCF 0008
724400013014004 89554000000130140049 3030 84430890 3145 65832560 FDE285C789A1F0FB 77C24A3D6BA1A6AB8CF1272DEFB7CDA1 0010
724400013014005 89554000000130140056 3030 29240771 5608 61931418 C7F7DD60A1894B3B 3920B6BD1A0C820B9A373610756E3C1E 0020
724400013014006 89554000000130140064 3030 13591919 3287 37759740 0118D3AF829035B2 4CBA80141DC894488E17A0CD0B441181 0040
724400013014007 89554000000130140072 3030 31349402 3139 97974791 8D5DE3806C980FA2 F16FD0CD5FC639EE7782DE149422FBE6 0080
724400013014008 89554000000130140080 3030 89789239 6944 88379418 25B3649FEFEABAAD 3AC40FA371D2C4E5DFBB21459F5D6AA1 0100
724400013014009 89554000000130140098 3030 29267690 6080 77565960 004C3724866E557E 6C6B99054D2FDBB4F393582581C6DB73 0200
724400013014010 89554000000130140106 3030 24091112 7186 10257792 6466F5E4D936BEA7 83E80F02482AA6EBCB704596632D6AF0 0001
724400013014011 89554000000130140114 3030 96604925 6967 65077941 FA869C90EDC4127E A84882062A3791F181930E5E08B33152 0002
724400013014012 89554000000130140122 3030 78955601 2338 22215996 25FDBD6A8B242002 B462FD2892482B3CD2C7289A4AF87645 0004
724400013014013 89554000000130140130 3030 69858027 0067 22048097 2AEE2AD9B9D49202 805B3406F9DC8E4139B85806D756B537 0008
724400013014014 89554000000130140148 3030 69002705 3386 81355486 B137658448FF2C01 B184ACC04EBF58B2D009073F3286BAFF 0010
724400013014015 89554000000130140155 3030 60496536 1792 92120221 9034C321AF22B96E 49458ADE077B4DE1B931116DE6C79C88 0020
724400013014016 89554000000130140163 3030 25030437 9013 51212825 C81B7DBFEAD21DD6 309CBD926BCF0C9F701ED56D1A5C4449 0040
724400013014017 89554000000130140171 3030 59332627 2978 47030881 FD30A17BFD1F1EB7 C03AA1BF9176DA1144D2487363086FB0 0080
724400013014018 89554000000130140189 3030 83784011 1715 48716942 901D7B8453C06CEC 797CC33BD74B3E4A7A08673C0D813C5F 0100
724400013014019 89554000000130140197 3030 61801683 8151 56629150 A88DD32B4A4BB7CB C9073813C01A2DFC4A2010CF1859C235 0200
724400013014020 89554000000130140205 3030 93902640 3657 18097611 91EFE6030CC62F71 FEDDF2E939EAFDABAFF7B94ECA450D01 0001
724400013014021 89554000000130140213 3030 14094343 4487 88833141 FC55F61A477B7490 4EF1F1E701AD201395AD2382CB6AD925 0002
724400013014022 89554000000130140221 3030 99779435 4988 95934638 C85ABAB5D24FFC2A 6BF024EA15FB7BDD151C740E8A601180 0004
724400013014023 89554000000130140239 3030 99152320 5848 07126530 CEA26EC38F7B7933 F75AD07A8EEC15B91A37AD989CFDC3B6 0008
724400013014024 89554000000130140247 3030 74237773 4152 96156021 8395B49529BE14F7 BAF5E64EF9A0A97C6BE763478B0ACC5B 0010
724400013014025 89554000000130140254 3030 27223534 6262 13534929 08D5AE18D80D56A0 165935DEE36FD26E5DE0F6B4598E0DBC 0020
724400013014026 89554000000130140262 3030 45874982 6764 98131537 349800F1F2E50D5D 5C134D33016E518BEF053BC82A409703 0040
724400013014027 89554000000130140270 3030 19223076 1531 82423245 9BE5CF67907A7E20 0442217B6EBF95C8A0EEF8411CF3F979 0080
724400013014028 89554000000130140288 3030 95127581 0927 29859898 74C9B1522432C3F7 333B14CA6DB52C02D481939129090E44 0100
724400013014029 89554000000130140296 3030 21479823 1860 16185024 B9B5F6A4F52F1472 FBC0A50F208B96748C6C697BC12E75D7 0200
724400013014030 89554000000130140304 3030 35953513 3886 93838192 68899266044582E0 B941456D19D914CE1810B2A6A7404606 0001
724400013014031 89554000000130140312 3030 13924543 4353 48340646 97A0151E68230C7F 7DF1D2D7FFC955ADCD09DBE6702B822C 0002
724400013014032 89554000000130140320 3030 83628599 7746 02102382 830B749B45449A93 B1FDCA3EFB521EDB0B678093444468B5 0004
724400013014033 89554000000130140338 3030 61626628 7659 45865118 B14C6305885E86B9 19C6C27B8D59E5A71C7460176E3D86C1 0008
724400013014034 89554000000130140346 3030 80492670 0140 49180531 923C87231CE6AB81 B310E897081C5DAB4F41C64421814ED3 0010
724400013014035 89554000000130140353 3030 10006070 8102 10539928 9749A007374060D5 526DA8D20B4620BD8617D5C8E950B9B7 0020
724400013014036 89554000000130140361 3030 23473945 2616 60910814 775C451D412365B7 F3439766B0B1716DAB11FF8E8A8E5F0B 0040
724400013014037 89554000000130140379 3030 03985105 6302 16418580 5CFD98E2B7E60933 357B52CE0FDBDA6A9CDB08416D02ACCD 0080
724400013014038 89554000000130140387 3030 01202907 6916 41480761 7A061B8D12B3122B 37E3F62F7F68682B34EE727B04D22C82 0100
724400013014039 89554000000130140395 3030 73420823 1867 61357551 A865456AC7F14374 8F58C601A262269F76A0FEE9ECFEA81A 0200
724400013014040 89554000000130140403 3030 11557710 1472 11433445 F0A240C514C7CBC3 4F83304DDF89054C91307CFE82C3DECA 0001
724400013014041 89554000000130140411 3030 24418196 7317 31713673 6322E5A6FFDA5FA2 A2343BAB9953202DD9E9D9D73C2FA050 0002
724400013014042 89554000000130140429 3030 67558790 8904 18829998 EC4624F61B916262 CC8021AB6F81EA4F8281042EF9EEAE8C 0004
724400013014043 89554000000130140437 3030 97953144 0324 90520343 E7128A83DB8CAF66 DFD3CABBAB03C503753CEC6BD1146A74 0008
724400013014044 89554000000130140445 3030 42634429 9358 71149155 0E8CE70331AA513E 634D963713A3CAA52A8CC29525F65702 0010
724400013014045 89554000000130140452 3030 48326936 9820 49209860 72BDA7BC1CFD4549 67C7FCF10014D6AE28B171ED0C3B8C44 0020
724400013014046 89554000000130140460 3030 44583470 8339 31072437 3729DAAF81B498DB 260BD82B87B9FBBBCB32D74C0CDDDAE1 0040
724400013014047 89554000000130140478 3030 75327392 3305 20426408 AFAF86913F22E5F1 39008E7BD8A550BC705FE5EF6B0BF3F5 0080
724400013014048 89554000000130140486 3030 56758054 4736 72512863 2876368B86FF673B DB1232A8B8FC3DE2CC0D522358D73028 0100
724400013014049 89554000000130140494 3030 94345653 7809 44024844 F5F93BAE3CA0E596 6ADAC675CFC4B23D041F05CF825BB469 0200
724400013014050 89554000000130140502 3030 04263727 6959 99751950 E905726FCB1418F9 E528B33C31B8FB5591E0F8203B5CF3C2 0001
724400013014051 89554000000130140510 3030 22920615 2389 43801890 2F42BBF4667A78C4 D7387931D2E14B1839966E1139514985 0002
724400013014052 89554000000130140528 3030 66520165 7020 06643490 BEA1A86B9547A793 D5893FC464E198068F94E11B1F21772C 0004
724400013014053 89554000000130140536 3030 60970893 8457 89774947 0C9476B5D5AA0C1E 475B1209381A7E32F2E9094AD17AEADC 0008
724400013014054 89554000000130140544 3030 37543697 8721 29969260 582AF454289369BD 9C3A4CA45089663FE79531848485159D 0010
724400013014055 89554000000130140551 3030 01415466 0194 89150549 2F6682AA0371C464 E8EFEF2A142BE72709F8364A98593CD4 0020
724400013014056 89554000000130140569 3030 65942052 3453 12289114 36E40B10C07AD9FE 104644E6DA22B2A2883FA3C2FA13D838 0040
724400013014057 89554000000130140577 3030 38806772 6445 54628733 5B4E4335FDBB414A 82B7C63A260D9F4E838D60E2F03132E8 0080
724400013014058 89554000000130140585 3030 95321702 6377 08607681 5ACA954065AA3A8B 5988C57BB142989914264C8CD959CBFB 0100
724400013014059 89554000000130140593 3030 32637191 2216 02148303 6F02522607AB7868 C4E06D2766480C123E23CD64BE3DBBA7 0200
724400013014060 89554000000130140601 3030 39294942 5336 73103615 84EB96496BC5FB02 2B3A0839B047DA9167E8488DAE98ECCF 0001
724400013014061 89554000000130140619 3030 53146343 0618 68680281 740D7696400FDDB1 703FD2B38C9613A283084D98EBB9234D 0002
724400013014062 89554000000130140627 3030 29524259 2213 36848954 AB7858E3F3E402B8 EC2A220887E65A91B4FA54C41DD02287 0004
724400013014063 89554000000130140635 3030 36874557 3563 85205912 149437527CEB531B 81256083DD4F189C2A82B5C3D706B1DA 0008
724400013014064 89554000000130140643 3030 70242476 6816 40770568 67E5C6C83A8CCFC3 DB41F34A7DC02E7A019C7A6214473CB6 0010
724400013014065 89554000000130140650 3030 65405263 8029 74626755 5960C4AE4D68094C 6F988ACEC60705B681BB7C43ED4AE166 0020
724400013014066 89554000000130140668 3030 81245575 8430 26301743 458B4BBD703E7ACE 92B61EF98F41E64339C950CE4239FC70 0040
724400013014067 89554000000130140676 3030 59071784 7028 00731986 7960D6CCA79EF11D B5DE89625BEBA1779F940461633EFB11 0080
724400013014068 89554000000130140684 3030 08941251 4748 78037387 7B9FD584DD7F8549 08F1A8BDF9EC73D141CB374E273DAD9F 0100
724400013014069 89554000000130140692 3030 87024889 9907 43232746 A934D3E6B827FFCD 6B446260A99DE2ABBEA8BA147151B52F 0200
724400013014070 89554000000130140700 3030 69283593 1615 45582626 24107CBB93CA2B56 78F3B8D8A535B45B66662547179FE406 0001
724400013014071 89554000000130140718 3030 27802201 0408 38277725 6E547955DFF5AB2C 8E5F689059EE4EE94F0B35DF71BB7B0F 0002
724400013014072 89554000000130140726 3030 65015485 4145 27271159 52DEACC8F140AB4A 86FD4B5B4F8BDF2B723E143085025750 0004
724400013014073 89554000000130140734 3030 54635845 1548 21941201 BC0468ADE355AAB3 5581FC5D8211C128A1E7CD727CBC67E5 0008
724400013014074 89554000000130140742 3030 73176338 1416 60142030 A19463551949D8AA F7C8B84BB446D61AAD9A945893A2476D 0010
724400013014075 89554000000130140759 3030 51000347 8450 41836332 25CBDA5CDA95719B ABD5D13EFD20D81BB6EAAE82BC703F40 0020
724400013014076 89554000000130140767 3030 04442268 5149 32372532 BD8899054C7C779F 431E78AE0B6A080C7E65E1488AE5ADB8 0040
724400013014077 89554000000130140775 3030 24489671 0672 69553997 44C52219DF11117E B9A134E9C00B6A49973902A70357FB99 0080
724400013014078 89554000000130140783 3030 98651730 4499 97876299 0DF047B4CB534DAD B25DE011EF75C85DDBBA4FEEE326CEAC 0100
724400013014079 89554000000130140791 3030 69032241 4259 53992952 58073D8D212B5318 21E400B1A1C88AA3ECF42BC2E6506A8C 0200
724400013014080 89554000000130140809 3030 31496900 5184 13537450 CA42F1D1EEEB7CCB 95CC92C4A2C032AA69C8D4BB79475F4B 0001
724400013014081 89554000000130140817 3030 71013771 8944 15301676 2FDF1996E868A866 1393141624CE997F83377F552769F4D9 0002
724400013014082 89554000000130140825 3030 75659928 3219 82808258 A4837EF3CCED2C47 DE9B7DD1701B508E1FD68D838F42CE77 0004
724400013014083 89554000000130140833 3030 84655090 6563 56803938 AEEB421B16EFD5C5 23FCE6547730B3D1F86DF1588C9DFBC6 0008
724400013014084 89554000000130140841 3030 23579762 7523 14071409 C57502F79331D413 921AA411E3D7865EC4744BB6331AC4D4 0010
724400013014085 89554000000130140858 3030 03230600 5557 75605644 11B3C2AD8860F14A 768BB11CE372B713A5C30D45A5441264 0020
724400013014086 89554000000130140866 3030 17629873 2004 25983917 2736E4A4ABAE9D95 90F03B51C0F286CA5044F2F337A81258 0040
724400013014087 89554000000130140874 3030 25563513 6954 41121042 42C5C93E9E89AF46 5AFED97086DD98A48B6E007C0FE9521E 0080
724400013014088 89554000000130140882 3030 12042018 5289 86258732 8BEBAB252A92747D C9485A2436834E2E43A6D406D076DDE1 0100
724400013014089 89554000000130140890 3030 21890769 6622 22243402 5A818B94A800344D D2D209F01E071BCAAC4BA109CB5B9BCC 0200
724400013014090 89554000000130140908 3030 05610721 0798 48047811 D620A46AB969D510 D49FD2F2679F011B96B5DC41A070393B 0001
724400013014091 89554000000130140916 3030 99834311 5621 47050547 75C6E49B0ACA5CB3 25A47909B8E8392BB30FE3CA0BA19497 0002
724400013014092 89554000000130140924 3030 13836303 5520 37039291 9F7CF49A6B8D240E 9DBA338BF5D9FE1482A34A04E0D2DD59 0004
724400013014093 89554000000130140932 3030 46473099 2368 72204447 6843690E040558C3 67C346237E68D5F9A7DD95D3C8F18252 0008
724400013014094 89554000000130140940 3030 24476799 1654 88975085 2D633CE41686E867 2A4464EAF2EBC0FD615C272236D2E982 0010
724400013014095 89554000000130140957 3030 85486549 9484 32581939 61A2B7427B313892 F8D7242D4579B3D9826FE3F200CD6720 0020
724400013014096 89554000000130140965 3030 16632912 0506 28999139 E2F486892F2F671D A4CB6ABAA4DBE2104EDF1044AD6C48D0 0040
724400013014097 89554000000130140973 3030 20095949 2040 97993852 2DFA2B792BD52AB8 26AB354AF90E8A16BBFDE57C181EE4F1 0080
724400013014098 89554000000130140981 3030 56700245 5143 96131551 5626C08AF6172F6F E8D22DEFB4A791A988973DBE1368C67D 0100
724400013014099 89554000000130140999 3030 34609243 6074 49547409 70D5A936BBC55AEB 48E4FCA430270A1B1D3B41C256C31542 0200
724400013014100 89554000000130141005 3030 66845970 9042 40216434 15FC1BFC46E236C0 623E963DEC92CC963367A607DAE03E5C 0001
724400013014101 89554000000130141013 3030 54496030 5012 22660219 9A46B2E889D307A0 0B2DAA1FD846B46353748B880EAD034E 0002
724400013014102 89554000000130141021 3030 13625094 4500 13771352 DF3FC87150F9E8C4 0700F75499C3EEE16AF11998CC38A62A 0004
724400013014103 89554000000130141039 3030 84270061 5708 08697914 369331B28CFC842E 78E66A26AC7858BC928210683D873352 0008
724400013014104 89554000000130141047 3030 49933062 3360 60877235 4652B798B006AFDF DF6C8A4D6BE0D12934DDF238A64B3A95 0010
724400013014105 89554000000130141054 3030 94384412 0433 33068253 099EB7B685EA6ED2 3AC11B3B16CE3BCE0E87914F75FAF0B4 0020
724400013014106 89554000000130141062 3030 70845147 4767 67668186 665F82B03DE090C5 59FEBEAF4DA888D3A5B38A892D6EE2A5 0040
724400013014107 89554000000130141070 3030 46873523 0845 12511376 6BFAF1BAF644EB2A 86924C71EC8B5039ABAC889F0FD086C4 0080
724400013014108 89554000000130141088 3030 86781157 0748 19648046 2B5EE44B0F8E13B5 CEB3749961AB5C9E879A6F667292648B 0100
724400013014109 89554000000130141096 3030 83518540 1337 62430358 837A8AFDD66693C4 15EF52D9603ACBA651C2D3D15774D4F2 0200
724400013014110 89554000000130141104 3030 10976179 4962 86447491 24B4EA7DB5280033 6CC91BC156D60B61D3D4A0F9D46DEE53 0001
724400013014111 89554000000130141112 3030 52451931 1589 83986080 D06DDCE46282EA63 30241393D55CCD34715403907D41A0B8 0002
724400013014112 89554000000130141120 3030 87528245 8264 88201404 715EF9B0F5CC2936 3BAE54CBE3E26684A4A12C1FE1BC07DA 0004
724400013014113 89554000000130141138 3030 08006402 8410 24780477 4DCE6A0FE67A407F CC687008F25F7AFA3590FF8DFA1AA839 0008
724400013014114 89554000000130141146 3030 55388464 8114 60199452 E5983C7259EB5F1B 7D8A6BA16B2C6235D160D8D6ABF7C6D3 0010
724400013014115 89554000000130141153 3030 43529669 1696 50908485 C409B644525B52A7 1B93FD3F083D31EAC97AEFA7F90B2796 0020
724400013014116 89554000000130141161 3030 17256118 7464 92534178 664F278D417AB73E 42DE68E5E64D826416ACDEFA661A6769 0040
724400013014117 89554000000130141179 3030 43010962 1993 09489968 F43F6157559D39D8 2287D6889BD01685BA556875A123104C 0080
724400013014118 89554000000130141187 3030 52702966 6515 60919577 AB1470AD4AF731A8 FFDC7D33B2D070AC75E4BCDCCA3FFB65 0100
724400013014119 89554000000130141195 3030 22367272 9211 61632865 2239AE698B443AF9 4C8E9FE3DB52D8CB2D517E916E8A4CBE 0200
724400013014120 89554000000130141203 3030 86239086 4690 16770093 83CFD4CC203F62A9 A82EACE6CBC46B00370D2D26FE1E1E6D 0001
724400013014121 89554000000130141211 3030 89462231 2279 47478376 7888821821DC1875 48D0D73775CD94209FA6C0F6662ABB78 0002
724400013014122 89554000000130141229 3030 64323478 5800 55268809 DB3600FDA819BE91 383AF77737C0E1C11345E2FEB69E6DAD 0004
724400013014123 89554000000130141237 3030 21607720 9135 99223455 3414C3E476208DC7 9A89CAA7A228DE124779189DD49922E1 0008
724400013014124 89554000000130141245 3030 66585438 3341 55476297 37967C528741CF33 0F11C2DEE18EE49CC098C0C788491FBC 0010
724400013014125 89554000000130141252 3030 58144653 7669 28459061 CAB3AFD3DD43EBB2 7C636E3E17E2F5309B92DDDE55739594 0020
724400013014126 89554000000130141260 3030 39178047 6454 83686345 93A6452298C414AC 3507804AACEECF620342A7780796FBBD 0040
724400013014127 89554000000130141278 3030 28944423 6967 35230777 EE78163C14EB5AC0 78C4F76CC005B31F5697918ACF1A5856 0080
724400013014128 89554000000130141286 3030 76170025 0809 84000012 CFA2217BBBB35FF6 B48C01E7224638DE5B864C8FCC05844E 0100
724400013014129 89554000000130141294 3030 64651133 5503 56533061 91AD8FD1BC2B6754 F663EAA342356EF16AAC53E1B7F93161 0200
724400013014130 89554000000130141302 3030 47395067 7654 02344469 5841FBB595ADFBAE B44E61B2616C66C656A29F061220EE57 0001
724400013014131 89554000000130141310 3030 06966749 2622 55635736 BFDCE2AA2AC27195 D1D15A7AC9307ECF38B264A9E20EA3C8 0002
724400013014132 89554000000130141328 3030 28767941 5942 50086921 389D1FC98E5B2B6B 622898D43692E7CE6CF0DB043C67922F 0004
724400013014133 89554000000130141336 3030 73862621 3885 84333540 CE2A30A673C8FBDB F17DA24B9AFD0150F202728CC7D545D3 0008
724400013014134 89554000000130141344 3030 98201571 4373 95274694 417F37093EFB8803 2E118B3C6E37ED31CA01A405C5CD5DD4 0010
724400013014135 89554000000130141351 3030 80827213 8602 34077390 513880CBEA4D764F 93B615950F55E7347B48BBC483455F18 0020
724400013014136 89554000000130141369 3030 03941181 2809 41417580 BF41724B61D2FA53 DE0978CE9E7D3290C1C1620C7C166B9B 0040
724400013014137 89554000000130141377 3030 50618464 1988 57816731 7BFD047ACA0334CA 2C95F263DE3946A15505E08DC808F72D 0080
724400013014138 89554000000130141385 3030 90118461 2386 39824215 B2CF60738D5A32FD D2E0EF000BF470B477A5AE4096448F05 0100
724400013014139 89554000000130141393 3030 71037648 9467 65155553 4FDD75CDC7C79438 391F3F347EE34828F5F28DD195FE8FFE 0200
724400013014140 89554000000130141401 3030 36258305 0850 17331628 E92118AA48056C76 8F1EFE978359558DD6A6C607FA17B400 0001
724400013014141 89554000000130141419 3030 34928146 7040 69297631 43BB2208031490DB E12FBD93B1334B69AAAC3425A722BADB 0002
724400013014142 89554000000130141427 3030 21809965 8124 62130520 B407B51FDFC27AE7 151B3EB79C5CE50EF005132BF6D63752 0004
724400013014143 89554000000130141435 3030 51976645 8744 44719054 B992DD67AB4C1B94 51509C03278D6D732B15D549E252D8C7 0008
724400013014144 89554000000130141443 3030 68963341 0749 24392601 F3098A3FB09D161C EE3216B81C475557E5843E8323B57D2A 0010
724400013014145 89554000000130141450 3030 34373683 8100 00308227 E718FC6155345BFC F5276CFFDC99DFD4FA67187CAECDF9B8 0020
724400013014146 89554000000130141468 3030 80247191 4487 36837918 991A0213F2E96894 D5D63C641077823F36CFE5C6E483CDBC 0040
724400013014147 89554000000130141476 3030 54831923 7269 77005002 EF212222E2D89B45 A668ABFF613041907F873A46DE987FEF 0080
724400013014148 89554000000130141484 3030 32200170 2709 46340474 4AAD5DF4A33151B0 9A5386288175861E9C5DEA46106CDDB7 0100
724400013014149 89554000000130141492 3030 23398580 8567 11376078 56679F3468A727F3 E43716D605B426EFBE28FA0DD5949558 0200
724400013014150 89554000000130141500 3030 94220266 9579 75910740 6D83A5B64B44571E 61F5DF1CD310A5FEB69B398B91400F77 0001
724400013014151 89554000000130141518 3030 30964716 2070 38181519 5F8FFFF8CE4E178E 21854E2906B2A90477112734854701EC 0002
724400013014152 89554000000130141526 3030 53719539 7050 86005432 407BDE53CA1C20A8 03F69B9BA0FF4D35A70E405F0EA2DC73 0004
724400013014153 89554000000130141534 3030 78484791 9863 14780664 C01280F962E3C574 BAB40CDB1D1557A310B60EE516673151 0008
724400013014154 89554000000130141542 3030 51580023 9065 67537770 0EBDDA14FCA64D22 1FAFC362C2C2183C72CDB6CFC073F21D 0010
724400013014155 89554000000130141559 3030 46495411 4147 96312342 25A5017B24E15609 ED0E49F227B3432E430228FBEB71CA98 0020
724400013014156 89554000000130141567 3030 69147216 6597 07039480 107423EDCEEEF851 26270666FC1C147A7908926FE2943B20 0040
724400013014157 89554000000130141575 3030 01169178 8799 09182405 D2BFEA8496F419F6 247E0D38D2875D8759F78A10C688C683 0080
724400013014158 89554000000130141583 3030 07413548 7169 75625782 07CBCA4590807301 8F02A4902C4B0DD016CCB1A4A76598A7 0100
724400013014159 89554000000130141591 3030 70251452 0735 97580659 3CFB2938512C5CA7 19091F185026001FBCA856A1773A3461 0200
724400013014160 89554000000130141609 3030 16250307 7091 60980272 83026C6C90BF2694 EE7FD29FF3E2EC3CA4A03BEA56E44946 0001
724400013014161 89554000000130141617 3030 39208756 3825 62847577 1C08E79B2BAE39A0 A7466827AAE3A95B1803D42364265D70 0002
724400013014162 89554000000130141625 3030 38965209 7607 18411235 AB5A6D62E7200109 9C632903E4D609478EEDE5BA3099335D 0004
724400013014163 89554000000130141633 3030 43256814 1368 25136391 17DEE19C1A89E52B A4B4DC1DFB6A0EB74638C5A7FAB22A67 0008
724400013014164 89554000000130141641 3030 98898199 6258 85590042 129A52E2B1A85D55 3178357B91B45F8C8BBFD94652D8889B 0010
724400013014165 89554000000130141658 3030 03074525 6867 24131424 515A037F578FBE41 A4D059CA6DCFAD12142647B9C97D841F 0020
724400013014166 89554000000130141666 3030 52886364 3543 20621109 C33D88135D03A5AF F36F838083366365EAC9DF50553FB0DE 0040
724400013014167 89554000000130141674 3030 85143533 7737 97167910 CEF7F39234DB90ED 12166B3863E4E4860647E2F2C1D6F037 0080
724400013014168 89554000000130141682 3030 52354007 9931 61565464 FDF183AE7C061D75 55CE5A937366CD09955D5C49014C36E3 0100
724400013014169 89554000000130141690 3030 26324779 8084 18807162 95F5970DCCD152B3 1DCCB6ABE7D16B758437912B31DEACAD 0200
724400013014170 89554000000130141708 3030 43835595 8021 69809619 7C6EFBCD13435EC8 9E36D4A2E283022C89366D81FDFBEC94 0001
724400013014171 89554000000130141716 3030 70842947 8810 54653359 DA374022E78E483A ACE7307AC76C040A9110EDF8F9934966 0002
724400013014172 89554000000130141724 3030 41844678 3427 84816315 117EB6C1E37EFBD9 686DE2E8B12F0B66CCA9DA06AD9D560C 0004
724400013014173 89554000000130141732 3030 45505502 6652 25657350 5A68AD4F40158960 0258481C329246A896B50AE3EC2E5860 0008
724400013014174 89554000000130141740 3030 79246169 1614 14714103 99F76A286D0CF454 89AF7D0981DB1D466B5185FB92417BC0 0010
724400013014175 89554000000130141757 3030 16924683 2757 76397455 D8DE5076A3927BF7 50C0148882282434673948E289A99241 0020
724400013014176 89554000000130141765 3030 18152131 8014 77721343 1AC428B33E31524C 22F3F72FF194A683F9F442E7FF302E95 0040
724400013014177 89554000000130141773 3030 96864493 7013 16957798 1C3C68BAB0729148 8B46029F301F3881AAEDA4DA9B0EB2D3 0080
724400013014178 89554000000130141781 3030 57349129 4917 79257885 83218216B487DBEC F36DC07EF1855FF4B961A323A2F08C55 0100
724400013014179 89554000000130141799 3030 70493591 1679 03796478 9E0931343F6D1E03 65FEA54AF16A48FFD186A6DF225F82CE 0200
724400013014180 89554000000130141807 3030 19163647 3918 99085630 D863A51CB7245377 88CC5A5B53396D3F28B3E6AB80611453 0001
724400013014181 89554000000130141815 3030 23215754 7962 65821634 85B906273982479B 578B89DFCEF8B04517291BED59A358DE 0002
724400013014182 89554000000130141823 3030 85572353 0239 76185373 20378CD3A0CD1634 E166548DB5230061B663392446B71444 0004
724400013014183 89554000000130141831 3030 69148658 7545 15972072 54FF0B5F77D366AA B8DCE102643C3267B70661510148A023 0008
724400013014184 89554000000130141849 3030 82489187 8387 72202270 5F4A74F497AB2B6C FADF1D6299EBF43C3A7631F5D6714629 0010
724400013014185 89554000000130141856 3030 74675331 3371 18473989 E7CE96B642461DF2 909F9533186827A41495012B53A0FA67 0020
724400013014186 89554000000130141864 3030 40243501 7536 56468439 9409DD472FC5E5C0 4779B1430C80CFA3670E1033A0E0BE27 0040
724400013014187 89554000000130141872 3030 31313881 2077 48797001 5D808589F8CD7954 25889632EF64B5EA41A1CDE81FBEC28C 0080
724400013014188 89554000000130141880 3030 56243767 1202 14345496 A0E232549D98D531 8D761FC6A04463EB3FB14A7E05FB1D9B 0100
724400013014189 89554000000130141898 3030 28846308 3945 61927022 B07DB25FB1C070C0 E11F8F44B9E58E3BA7A11E3DFC0D70C2 0200
724400013014190 89554000000130141906 3030 64205838 6063 19524799 3875C316DB306F5F C1F512D978284CB991225E0E3B2B0CDA 0001
724400013014191 89554000000130141914 3030 95759580 3834 86287563 DF3C975D1EBCC9B6 65A116B5EED6093FA4E2869EB2376DB1 0002
724400013014192 89554000000130141922 3030 31082262 4192 98122824 8ACA49CC87D1735C C72E1DEFFC8B585E7DF86C246E47039C 0004
724400013014193 89554000000130141930 3030 02573442 8064 84030631 F92A6663EBC02945 B495E18262EF3365362E91ACE424CDFB 0008
724400013014194 89554000000130141948 3030 94661581 7230 56991850 6D42442DB0B1353B 888C675E32C8D431C180A93B53A58DB2 0010
724400013014195 89554000000130141955 3030 22235442 5259 40415060 BBAF606B6CA3761E 3C1A0765FF0B87CCCF0AC0AA0860B41A 0020
724400013014196 89554000000130141963 3030 41992914 4920 57545533 29C4336B7B535627 2B1E516041AED429B7369EAA63C48C0D 0040
724400013014197 89554000000130141971 3030 77877726 7937 89902475 E15FD3E547EAD7CE 4AE8D4E75E29F29F699EBEC459197022 0080
724400013014198 89554000000130141989 3030 24263847 8570 33204512 3F3BE311A496C0F1 50241C82C411C088AF13901CF9EC62E4 0100
724400013014199 89554000000130141997 3030 37415961 1101 57663153 DB4E56BA3132A6E2 C2559C9218A04591E67E57B78225862B 0200
724400013014200 89554000000130142003 3030 48737375 3617 65653700 D9952DCD84859F68 DAE5339648EF1C37796C2954995DF475 0001
724400013014201 89554000000130142011 3030 07682181 4498 77749670 11944872DEDEBC8A E0DAAAB0EEFC0CA3B7E441FF8AC0A005 0002
724400013014202 89554000000130142029 3030 34046524 4164 62331973 573DE92B98CF869B CB5DBD855A2E9E4E2A4B0591E098B4FB 0004
724400013014203 89554000000130142037 3030 66789781 7694 59843948 E4156AD1DAA60101 ED072C8176E0A9C5F6C4B2EB7B00E288 0008
724400013014204 89554000000130142045 3030 47868496 7251 04392316 4AC0CF78A0F4D323 627DA47AE3AA3813D4D5ECF6E56EF440 0010
724400013014205 89554000000130142052 3030 44313546 7600 19429583 325C3551E6B50229 7A0D2D02A1E25B2455CECDFBB0849DCA 0020
724400013014206 89554000000130142060 3030 82605751 1062 11845986 AA1227EE86DCF85A 1713D431C939BA3A8CF0FCED05F0364D 0040
724400013014207 89554000000130142078 3030 60396713 1319 46754099 3DBFB4E1AE869FC0 4D5E292E487AFD7A8749D71690BA0EFD 0080
724400013014208 89554000000130142086 3030 76298237 0553 89392377 ACF5D1827E24C5F2 126DDBE09956C3D3C7D4F828CB07BEBA 0100
724400013014209 89554000000130142094 3030 91760624 1849 06936831 199F481BA4EB36C4 A62A88C1CF191E98BD2C0787A9D7DCC6 0200
724400013014210 89554000000130142102 3030 16340602 8748 46160715 E0335032B075786E 71DEFE5555F4DE0F5D34B966D015A9CD 0001
724400013014211 89554000000130142110 3030 43451168 2133 95588801 E42AA63F895B9D1C A5062385AC6BF75ECBFE12FC91831E42 0002
724400013014212 89554000000130142128 3030 56368537 3653 51881933 D37688B0ECA6A88D B80B00701418FB017852D09711EE836F 0004
724400013014213 89554000000130142136 3030 13247149 1362 43175721 B6628E713F381DC8 BB26A96AA8D33946043DAE7CC28461F1 0008
724400013014214 89554000000130142144 3030 70451342 6800 85546320 41D2133DF7EE327E 9AF28CE47F649950FF787D579AA62A13 0010
724400013014215 89554000000130142151 3030 89842130 8388 20944633 0DE20488E0322D41 A6F9F3AC55D6382501014D104CF90E10 0020
724400013014216 89554000000130142169 3030 44865474 5926 37309576 93E525C4AC200A41 B166E3F8219CC905A899F8989E35E0FD 0040
724400013014217 89554000000130142177 3030 84194009 9564 75211031 14001ACCEE2A2F9F 87390918095F71FFADC31466194151CC 0080
724400013014218 89554000000130142185 3030 47660472 6940 40737740 B07319EF215D31E5 E2ACE7CE5946A7B901D8A2B856242A29 0100
724400013014219 89554000000130142193 3030 00721513 9003 66071938 84F9F6B4190029E3 4B37D3C39BF746E01F740BB94AFB26BC 0200
724400013014220 89554000000130142201 3030 81147064 2382 19721746 389B749F37873FFF 680C0C59D09AD52D6064EC61B5525E05 0001
724400013014221 89554000000130142219 3030 94204722 2823 69029327 30D5AB56A649E99C BD57936E0F56D65E76AE1148DEC7D7CF 0002
724400013014222 89554000000130142227 3030 13190837 8492 44808251 F5A9F971B029459F 7D0ABFF4EBEAD0ABE126CD7301A5F488 0004
724400013014223 89554000000130142235 3030 84819074 6933 94162996 8C045F7D92780E57 349B682DFCA2962F73222AA881B522EB 0008
724400013014224 89554000000130142243 3030 69121403 1489 83660800 0614AB0056590275 30A10EBCC815A8AF9EE28F035BDE57C9 0010
724400013014225 89554000000130142250 3030 53970864 4331 27842103 C71A7B085611E873 EFC9BD52A2DBDCB014C553109E557730 0020
724400013014226 89554000000130142268 3030 94626455 7398 80526348 519A77BC6A979794 29459FC30567C5B2E8024F8F5D931E44 0040
724400013014227 89554000000130142276 3030 47233771 0361 96444246 3FC0724A61F96058 20DAF637C84F4EB6463CA25AFE0E2546 0080
724400013014228 89554000000130142284 3030 86139004 0533 78969734 F6841AFE7BA919E5 7BB5F622E7BD8736E8F3FD400AB92186 0100
724400013014229 89554000000130142292 3030 13763075 9719 08554211 7CF969F9C957EDDF C7AAE8A4E49834B3F21F00988D3E1F50 0200
724400013014230 89554000000130142300 3030 31178521 1414 27385951 93FAA5B21F71A7E8 E860DD7144B9537EE7E816C8ED93DDAE 0001
724400013014231 89554000000130142318 3030 52682984 7445 69142154 4817D85BF93E5CF0 1909AADD458F07E1164E1692670524A6 0002
724400013014232 89554000000130142326 3030 15223641 8749 40171125 1C9FD2F42C62FAA1 F51E8B58D765091820A9978549B2E249 0004
724400013014233 89554000000130142334 3030 84020005 8069 90351030 6376C3221BA08B58 F9BB90FB0D1EAE4C74FAD8C9DA2939FA 0008
724400013014234 89554000000130142342 3030 59705019 9157 61398538 E2BB4660713404A4 86F7E522CEEE1A5069C1987436B48798 0010
724400013014235 89554000000130142359 3030 14833809 0772 10573780 56C2D49FADA35E99 477BC6D42E3BAB167A420E2056215092 0020
724400013014236 89554000000130142367 3030 58156156 9175 26228252 FF7712CE6A4197A9 6EE46BB5C18183DB34F64AFAC32DECA7 0040
724400013014237 89554000000130142375 3030 07166059 0773 29485131 F21E242850BC5C15 9FBE7F5247A386024879CE00D5563D64 0080
724400013014238 89554000000130142383 3030 50535878 7008 29771921 78DFB1A5703FF787 7A84A5D577F8BBD38A1AF9095FE19D78 0100
724400013014239 89554000000130142391 3030 24267874 0450 73431305 D7B66AE9AB5A2370 BBBE0506282BDE04990B7889715511E9 0200
724400013014240 89554000000130142409 3030 22774019 6914 46008029 A74358B1373AF106 410EC6D0BF7C4096849C4D50812BAE50 0001
724400013014241 89554000000130142417 3030 81512247 5205 09062652 1CCCC6939224DD02 6CC917DA62764E872D4884A9EA61EFC9 0002
724400013014242 89554000000130142425 3030 79564582 5223 05973703 BF092BDF475923FA A36270E677BD19045FECBC5882B8709E 0004
724400013014243 89554000000130142433 3030 18820206 3095 45376972 3B6A4E427076A161 8BA39310CE8574EEE702D4D2E09AECCF 0008
724400013014244 89554000000130142441 3030 34655364 1544 09667652 2842283CDBA457E9 1A8DB748B20267DFB74B123E8F53ABC8 0010
724400013014245 89554000000130142458 3030 49413114 8833 64198315 6B6AD0FD7DAE2265 E91A1ABF553DA640D544BABB4518F4ED 0020
724400013014246 89554000000130142466 3030 54961515 4046 05233649 6F207792EAC49028 471F51B8B8C2E32B162A52B9BA25B683 0040
724400013014247 89554000000130142474 3030 96592083 8574 78703385 905BFC138AEFFF8B A9226C56CD95350AD6E6DD1F2B60F701 0080
