****************************************************
*             HEADER DESCRIPTION                   *
****************************************************
Customer:		1Cel
Quantity:		3000
Type:			PLUG-IN
*
Profile:		01.00
*
Batch:			00005
*
Graph_Profile:		25.05
*
SMSC:			550402101000
*
SPN:			1Cel
PNN:			1Cel
*
Address1:		R Marechal Floriano
Address2:		1586
Address3:		Santa Cruz do Sul, RS
Address4:		LIVE
****************************************************
*                INPUT VARIABLES                   *
****************************************************
Var_In_List: 
ICCID:		8955400000013010430
IMSI:			724400013010430
****************************************************
*                OUTPUT VARIABLES                  *
****************************************************
Var_Out: IMSI/ICCID/PIN1/PUK1/PIN2/PUK2/ADM1/KI/ACC
*************************************
724400013010430 89554000000130104300 3030 36003490 1662 11590254 B1C1E8CC8E1A1385 963DFC19849517A01872873111427D27 0001
724400013010431 89554000000130104318 3030 00909419 1970 38658589 3F94D0CA6646167A 05009783CD441FDC9DE4D376D531D59E 0002
724400013010432 89554000000130104326 3030 97879758 6249 63905810 8D5FCAD5ED097022 636697849656FECD944AA46E7A996720 0004
724400013010433 89554000000130104334 3030 08366042 6919 71020475 A3156B19DD55D1D2 9241490FC1C7A1A315A4E1AC488339D2 0008
724400013010434 89554000000130104342 3030 15820097 5028 72463680 68DA396220351421 31F96BE76F277A3C3C510F43FC0D9569 0010
724400013010435 89554000000130104359 3030 84828074 4626 98993662 6B0B9CF7394FF3A5 E20DC06205CEADAD368AA3C91F0224AD 0020
724400013010436 89554000000130104367 3030 92892531 9818 86608487 7EAE124237B86F4E 2DB16878BB285EC68DE73EECA3F0C395 0040
724400013010437 89554000000130104375 3030 07911951 8173 15107828 B2DE58EB5ECCD3EE C67F3DD8B1549E06F67485AD0B4664A1 0080
724400013010438 89554000000130104383 3030 63813347 6558 75046935 122E2A0B5EF9DFD5 C849D5058EB887786C1AE45D5401A973 0100
724400013010439 89554000000130104391 3030 80366663 7896 56969742 144A757D5A412410 938DDA06494F00D3D55E73C79F367FAF 0200
724400013010440 89554000000130104409 3030 51434682 4075 75246235 AE47FB272E8EDE7C 56B52E0A8CC005BB111ECB8BFFA172BB 0001
724400013010441 89554000000130104417 3030 11575036 2714 07472463 C11E97FFC31AEDF9 A406BCE944783923CE1215B9F8DA1C15 0002
724400013010442 89554000000130104425 3030 54215306 1939 65724299 0938A91C715DAFF4 5D3B8DF71EC22B76C8AD370F360477A8 0004
724400013010443 89554000000130104433 3030 54574239 2405 83128679 2288DF887C6D5D66 645FEC388B2414610D8904D6E09A8B8B 0008
724400013010444 89554000000130104441 3030 78372167 8933 88955360 D756558076CDB968 8A00391AB18FD0684656B2DF3D1F0BED 0010
724400013010445 89554000000130104458 3030 62450036 7619 52435723 89C0FC0D24DE946E B7C61A79F426DD2D267660E34D64F7DC 0020
724400013010446 89554000000130104466 3030 15012198 1382 21906898 B4D861C2704C25D7 7FF48225F267303F8DE7352F4AC33151 0040
724400013010447 89554000000130104474 3030 15201958 5013 11216221 6FADDAFE6304C368 70190E4F39D48BBC337A077050DEC059 0080
724400013010448 89554000000130104482 3030 48467783 9275 83156335 ED97A9B4432B2E5C 318D2FE20190C77AA164717CD90CDF9A 0100
724400013010449 89554000000130104490 3030 14213892 1062 34824948 223D42485F4A796D ED4366E58ABDC3790234BF3FD7EF9965 0200
724400013010450 89554000000130104508 3030 82978690 7030 17485320 C61DC3E607403D7F 49528B5D77FD749809FCF4F47AEB232D 0001
724400013010451 89554000000130104516 3030 47309547 7644 07955038 F9CD5F887ACE34E2 454087A8C0BDC7AAD9E40F4BFE9338C7 0002
724400013010452 89554000000130104524 3030 45377448 7236 75946175 51A5233C8B549562 57733F6D8E2D378E97D337122C6F61AD 0004
724400013010453 89554000000130104532 3030 00570647 8142 96149897 DC29CB636F50C7DD 975C9D3C76AB847CD8F8019C27588E48 0008
724400013010454 89554000000130104540 3030 53017524 6945 00092763 0631520472A352BD 25AB523AD603FE0F4D2FA191975FF7EB 0010
724400013010455 89554000000130104557 3030 80687450 5333 95522979 EC7052B88F292A8B 153936E96A7C45CF5DBC9FEE57133AF6 0020
724400013010456 89554000000130104565 3030 30742078 2225 98897554 B642F571219EB396 866675A66E82C1236B800A5372AB6DAF 0040
724400013010457 89554000000130104573 3030 35517523 4793 57586738 8EC2CF6A292349D8 04B03B282235792A8471ACABD17EC459 0080
724400013010458 89554000000130104581 3030 24576421 4688 86355566 FFB7FAE0495578E3 E8ED3A65AF10AAC53981B2714B163C6E 0100
724400013010459 89554000000130104599 3030 78250260 7610 80589125 75F108C48B7C18A0 58EFE3CF7AE75FD2AD36B6895AE09FB8 0200
724400013010460 89554000000130104607 3030 74799174 2316 62683519 2BDB5FD0130441A4 443D46B7134D19D6817AA8537786292B 0001
724400013010461 89554000000130104615 3030 99500392 8789 09193198 D2D7B49E127967B7 CEA2CAABE849F90C1B20528621B0625A 0002
724400013010462 89554000000130104623 3030 80861751 3106 23320635 0FA4647A97832904 5A13A6C247B414E010B2EFBB995914BE 0004
724400013010463 89554000000130104631 3030 75576971 5072 20147628 EB6F9A38D09D0D8C 3E124A62A1D4698F76D8DBA1FA594445 0008
724400013010464 89554000000130104649 3030 68233430 8655 36364448 17A6CCF2357544C8 36F2C922284A795FEFFE28991A898A5D 0010
724400013010465 89554000000130104656 3030 73885746 6203 43018577 7231D5D0B6C3BF3F 8970D9FAE4FF5190BA60D747C339D084 0020
724400013010466 89554000000130104664 3030 90209298 5265 20851794 EA7D6583056859A3 F3DCFBC7080CCE63CAAE41457597686E 0040
724400013010467 89554000000130104672 3030 37256207 6652 05887848 2DA895C38E7F21CD D0AAFB98C202D4220AB2FE520E499136 0080
724400013010468 89554000000130104680 3030 36530668 0377 79761662 05C69E98288BE7F0 2B3977792C754E4E2A23E6D5CAB1B843 0100
724400013010469 89554000000130104698 3030 16975239 0897 37302435 C9AACA6512620F98 759E6B274E6A3F8B03CCA838B1BA39B3 0200
724400013010470 89554000000130104706 3030 34875698 2401 36514764 F5015FB42BF770C8 462B444767CBAF917CBE91919BD9C188 0001
724400013010471 89554000000130104714 3030 21939110 1101 60451826 59F041C2BF69CFD0 F63CEE3966535F6E53A0B86DC139D1DC 0002
724400013010472 89554000000130104722 3030 81291434 9948 88567636 9AF8EAC7EB58392D FA4C7EEDC461366CB0DD529BCB3705B0 0004
724400013010473 89554000000130104730 3030 38312700 8087 27963072 60CACC58DFAD890A 957C91E58A693ED4001E0CC17C428B9C 0008
724400013010474 89554000000130104748 3030 72905072 5954 21726393 AAEA1DC0DA078A60 F01EF76DBA33FBC9FB257AE54134EDA8 0010
724400013010475 89554000000130104755 3030 55876916 3878 34633870 10517BBC40425ED4 0EC29FEE6B181FC040CB36258DE8AA72 0020
724400013010476 89554000000130104763 3030 84637722 5683 46066137 209ADD76D13AEEBD ABCD0F213BBAB5F06822CED40057ECC1 0040
724400013010477 89554000000130104771 3030 68604976 2393 25154024 944A514C472C5C61 2C7087A66BB85257EFB7DAFC1ACFD96C 0080
724400013010478 89554000000130104789 3030 40067824 1252 37969131 F4EE8E318FE2211E C0D8378582C9581F4152FC6E2A1B732A 0100
724400013010479 89554000000130104797 3030 12880231 4974 13036475 3AEAC4BD3DF4BCDA A7A57DAB2D37BAD97D5BB9F7161E23D3 0200
724400013010480 89554000000130104805 3030 70179561 9559 85253670 E07FEFC5C9071BA4 055580B53825E66E13811656C2A338F6 0001
724400013010481 89554000000130104813 3030 59120987 5449 74890220 A52C9115ADBA9F95 41586C978991AC9109BBE6A1268BD91B 0002
724400013010482 89554000000130104821 3030 38909113 4261 33510487 15470E82F02B87D7 A0E1A7F98696A5279F4C24F917BF0B13 0004
724400013010483 89554000000130104839 3030 50773880 7502 03948866 A8D0391CA2390CF8 FB41C4D8DD43EA062CEFBAB651C63620 0008
724400013010484 89554000000130104847 3030 01886716 8261 95156877 3260A29E985D0129 1BFE05A00700947F75481D18AE7C02A6 0010
724400013010485 89554000000130104854 3030 10501164 0288 38986674 B2A8BC029B574442 F2433747A33BE78851F1CF4C4DC3955D 0020
724400013010486 89554000000130104862 3030 92930821 9455 86999284 7065135D9BA8213A 3E92E158B30968B8716FC9B0BD6139D1 0040
724400013010487 89554000000130104870 3030 16364840 9467 65770193 47C34AF863C4CAE8 74EDE7806118DBF9A813817BC5CD9E26 0080
724400013010488 89554000000130104888 3030 36119251 5800 12445109 3B934C931537D2C5 0D91143F85B2BBEAB6E53F98E85C9F45 0100
724400013010489 89554000000130104896 3030 02256261 2222 51314936 F52E907FE67D6464 BE8850AE289C0F2ABDDF6B781D29A3E3 0200
724400013010490 89554000000130104904 3030 59149941 8098 18420534 4B4ECDC3BE6F2A0A BABC0D2D03D85A3F78962C490A346998 0001
724400013010491 89554000000130104912 3030 14047452 6289 57099449 4593B916C2B13738 D43C12A6E3CC8B51064E860B1847E287 0002
724400013010492 89554000000130104920 3030 30999658 1945 59615337 9E10F645F6186427 D7B3E005FD258A6756EDDE52E3AB2B75 0004
724400013010493 89554000000130104938 3030 39147499 4488 53823176 8375E6616B86688C EE1693EE7C72C5B967630D990905581B 0008
724400013010494 89554000000130104946 3030 65516380 9878 09030374 87CFA0B97F984200 14C982C550F243EAD2DE186593A4228A 0010
724400013010495 89554000000130104953 3030 37577850 3401 75257079 8A495E042B98C176 2F61327C8B7F5617722B5AEE173DEEB0 0020
724400013010496 89554000000130104961 3030 77415748 3959 37712690 9D88221D380ADF47 4A546B4D53418AAC6F2E77CB5681D25F 0040
724400013010497 89554000000130104979 3030 29138658 4895 93341757 535A00D43E2306F1 F9B9FF8573440995C5632011730A7381 0080
724400013010498 89554000000130104987 3030 82392368 5159 73188365 A6F6866AD69A7B57 BD2EEC4AA514EC843069B7D1AB3C33EA 0100
724400013010499 89554000000130104995 3030 30077900 6277 64103821 FBD12F594D7B9DA5 62D6D7DCF2307E5566555A6155F1FF38 0200
724400013010500 89554000000130105000 3030 23725675 8189 19674740 662146BEF5C0503D 2415674B35994E73794C2A9B85E9704D 0001
724400013010501 89554000000130105018 3030 08829076 0994 40852086 688462D5C33D70F5 D4487963C712AE61CD14002C67402B84 0002
724400013010502 89554000000130105026 3030 18277494 0793 02883838 46B13BA047D79FB4 2CFD1CD6D892B5F7384724A57CC1C764 0004
724400013010503 89554000000130105034 3030 31483682 9183 14200881 24B10AC4F20C559C 157ACE5C4D9CE94918987187231EDED5 0008
724400013010504 89554000000130105042 3030 22621517 0499 70209071 FE99F4020894E81D 9DEFC078C75B6BC91B7A474BF814FF15 0010
724400013010505 89554000000130105059 3030 01631310 8961 78106191 FDAB6C32FD6414B7 9AE07E8F2D50C5F47859AF98DF7704DD 0020
724400013010506 89554000000130105067 3030 39583986 0305 33763933 57EF40D7A23824C4 D5329261A2786F900759A12BCBDD879F 0040
724400013010507 89554000000130105075 3030 46110081 1446 99533613 403AF58631BAC69C 9DD060338B41EB266701649F99601FB2 0080
724400013010508 89554000000130105083 3030 19920834 7238 28918575 C90559092E922C57 75C0AAF00672FC2A843D0F0A3BEB1E94 0100
724400013010509 89554000000130105091 3030 70089370 7568 04065624 6F8314973F4BC449 DC3561D66E0D3AE9D2A7243C57F6C3B9 0200
724400013010510 89554000000130105109 3030 93658462 3278 29745729 CC888BA07D893314 AA76F699CC0DBE56BC759EC603FE0F44 0001
724400013010511 89554000000130105117 3030 29443447 5280 86738345 C6ABB8152710F669 F1407631931FCB9D69ACAC92DCD0DABB 0002
724400013010512 89554000000130105125 3030 60867033 4081 70111426 C6D56BC729811D78 066951C0B1E9DA9A3358BE5034DEF88C 0004
724400013010513 89554000000130105133 3030 39654919 6384 03868589 0D19A96FD4580DB8 37B8425A48427FF3C8B642A72E26D9ED 0008
724400013010514 89554000000130105141 3030 58206196 9970 99143389 FD9C4B01D7126D41 30AE632BEAF181E323EF7D568B266AC0 0010
724400013010515 89554000000130105158 3030 03583352 1148 66239755 D63EA483B5368568 91C35F7F6DE3CE544A6428B36F669F61 0020
724400013010516 89554000000130105166 3030 63419936 2424 68134113 90A38E645680D6D8 91A7EA4CAB2BDD57DC4CB6AA9D610FF1 0040
724400013010517 89554000000130105174 3030 47052411 5594 52022966 78C2A47412BECE4B 207A5B11AB362CB6D52C51EA2A639C6B 0080
724400013010518 89554000000130105182 3030 52563849 7209 99699048 6FA2ED1AA9B5EDD1 E12C0DD8FFB85DCE65749ED81FB40567 0100
724400013010519 89554000000130105190 3030 06561495 5015 77286712 FFB7CB2941C8D362 E1963E67AE1342081A980DBBD399CC95 0200
724400013010520 89554000000130105208 3030 99232865 2739 64098449 E1A69857D3561F67 F9E3316990608E8C5F342564D10D8532 0001
724400013010521 89554000000130105216 3030 17141424 2043 47221669 6879E39D01DBEA43 A5900D04B36318DA59555B623C14EB63 0002
724400013010522 89554000000130105224 3030 12094070 5268 10475900 620A149ACB29A49B 22D93E6093F3642A986B2A6060FA00C5 0004
724400013010523 89554000000130105232 3030 24765123 5683 41010177 5E8524326959F5D4 389F5AC66322715C643F1AC60B1B7AB6 0008
724400013010524 89554000000130105240 3030 65539416 9859 06578985 EECFC478DC08FB2D 558172B85C43EA4862222B9621CB7B99 0010
724400013010525 89554000000130105257 3030 58513592 7968 36577363 82E1334227266D32 3569A015FBC6E40672F2D56F0F66E61A 0020
724400013010526 89554000000130105265 3030 95546131 0511 67683684 A972235F34D6707C 383A027A1D5596002091B079FD2AD95C 0040
724400013010527 89554000000130105273 3030 13377038 9568 53991565 C75806C3BC819D4E 732D10683DF1DEF40DCBFF8985893908 0080
724400013010528 89554000000130105281 3030 18202315 6938 64596431 4093353E1A882ED6 B85E5C3937B32C35AB57DF252ACDA236 0100
724400013010529 89554000000130105299 3030 10676710 3064 61132304 7E44D4F955A19BB2 B061BA6E873B6361F3C1B31A16C33A34 0200
724400013010530 89554000000130105307 3030 46672763 0709 33107743 86CF22392F7CC9EA 623ABCF94393BF615FAB4E0485027661 0001
724400013010531 89554000000130105315 3030 19040548 2797 06219308 A606C9C638CAD05F FE9D0F329E1241A3B9C93EE967972421 0002
724400013010532 89554000000130105323 3030 36730652 6238 01716788 63646538C35775B9 EA86B2623E72C089FC96EB1AF6F516A6 0004
724400013010533 89554000000130105331 3030 27085675 5643 61589973 58413A5EA7A8A89F 7F39E2557EACDA8BAACD41DBF187C11E 0008
724400013010534 89554000000130105349 3030 58025206 0225 80912101 54F5322988787C37 901D93B7DAA49922A82F5A4078CB70DC 0010
724400013010535 89554000000130105356 3030 73860864 7489 03995124 E87DA35FE3C7CA95 72EB23F2DAF5D3CEF15352375D927594 0020
724400013010536 89554000000130105364 3030 29234118 6728 11651851 24DFC2CCD9D0EE78 A62B580FA6285A509B2BE04C3AE98134 0040
724400013010537 89554000000130105372 3030 71175048 7587 45731071 B9E116036FE059A3 244285241E946D41E0C91BF62BCBB884 0080
724400013010538 89554000000130105380 3030 96319492 2755 46264666 369F0D1D4818A160 9CC184988FA2079CE96F064C6E8974DA 0100
724400013010539 89554000000130105398 3030 61021455 7159 19211081 4E62AC2F0898FB20 94936275728361DB31B934DD8F9AFBF5 0200
724400013010540 89554000000130105406 3030 29378527 4380 74541737 E41924E8576F558E E09E860AAEDB86EAD28CB3ED67E68F69 0001
724400013010541 89554000000130105414 3030 10978375 5858 62736214 7F829C02CB73B337 8EC3F4252D4F39280DDB18C996C98D32 0002
724400013010542 89554000000130105422 3030 11834890 7598 73727117 3445241FBE27DADC 2B56DFF1D9DFC39BC77FEDC4DE6B2614 0004
724400013010543 89554000000130105430 3030 68130500 1588 93463524 0614A0B6A1CC0C7B 1307526A95419068A2D259D6DA999241 0008
724400013010544 89554000000130105448 3030 52064290 4415 88250674 52CD16D3083FCFAC CB6B18F6C675AB2ABF357803E8CA1530 0010
724400013010545 89554000000130105455 3030 92055075 3243 78628702 F7F9FCA7CB405687 134CE53FEA87AD150E11766FA5B1FBFD 0020
724400013010546 89554000000130105463 3030 02397488 5191 54179168 7C1F56AC05FFD48A 66123AEE2D2CA6A0243258F56552E168 0040
724400013010547 89554000000130105471 3030 36569520 3375 80916661 9AE108656A0C820E 0D0FE0F998489BEA039155BD48388C35 0080
724400013010548 89554000000130105489 3030 19989646 3501 15719464 1BFE5D1D68420FA9 815B4FA7A2EE507F9CD3B30C936DE8D5 0100
724400013010549 89554000000130105497 3030 26342409 5395 10131019 E21582FEF7C2DB51 A1391948B3B419E7AF97789FF668F105 0200
724400013010550 89554000000130105505 3030 09646672 5655 93528004 45AFBF0DEE15D61D C2311A32902D8D2626E4BE4769451A03 0001
724400013010551 89554000000130105513 3030 34465680 4150 16565462 89267F1B96A6B07B B9132412831B7DD57D587166DDE95516 0002
724400013010552 89554000000130105521 3030 38717082 7120 90100321 A4B4FB0657C8DC0C 3D13E844D3F41718ABA60EB6BC9A1948 0004
724400013010553 89554000000130105539 3030 34307860 6942 95039600 6685CC7556A69FFE 252312A71736578DF4F9ECEAC27C72DC 0008
724400013010554 89554000000130105547 3030 37041537 5999 39349010 499B2F372E206E90 0C9C56729B5242B210324FC1B5F06EA6 0010
724400013010555 89554000000130105554 3030 85565914 5720 45867471 7F1F3FAEBE166F07 EA765D2B0212335E7658922026022F29 0020
724400013010556 89554000000130105562 3030 87651115 7005 37476703 EE5C2F701102121E AF99F4AA50541062BEE2109EDD3293F6 0040
724400013010557 89554000000130105570 3030 62079510 6839 34233021 70E20426F6CB75F4 F98E8E2B082DF6254C773C5778BEC6B3 0080
724400013010558 89554000000130105588 3030 14758982 4542 17302504 B516448F63DF5009 639DF984EEE9919F9980558B11A6DE27 0100
724400013010559 89554000000130105596 3030 12432116 2194 59381665 BE4F605FA4A950A9 1FD209D8BEF30FA9CF494091D5AEB6A3 0200
724400013010560 89554000000130105604 3030 70008130 8514 48780115 FB2A822274772DFB 0F598D327E01318627B32A96D342C81B 0001
724400013010561 89554000000130105612 3030 68708593 2618 79036545 4D355654BD0BEC64 C70CD69E60872F70F3A82FA0A1D89416 0002
724400013010562 89554000000130105620 3030 32713072 0739 34833634 06C58504355E672C BD95DCFBACD0900EA9EBC348DB3388CC 0004
724400013010563 89554000000130105638 3030 32263056 1807 18768368 3A3EEF875E1E7683 CAE217CDFE5854AC10C68B68D8E583A8 0008
724400013010564 89554000000130105646 3030 22787504 0295 13870768 F9296371C4F96F18 6F455C3D830E8D576BA6D7DA0CC1B3F3 0010
724400013010565 89554000000130105653 3030 08200072 0356 08893405 A77AA51C664382F3 D8D2DA91C0E3C3912656A5C9702A04E0 0020
724400013010566 89554000000130105661 3030 04865490 8950 70465760 2DFB852D1168FA3F 1ECF1FF97D58C9F2C2FBA598FB5B2701 0040
724400013010567 89554000000130105679 3030 59344344 6106 38153375 D74844FC18610212 BC8C47ECFBF830CD5586960AA979F365 0080
724400013010568 89554000000130105687 3030 14112291 6980 41297803 02F755E79DE1D0C0 FC462F9E0D0E5D33BB01547B25D20A23 0100
724400013010569 89554000000130105695 3030 05177137 9053 82117684 5104038011B3AC85 59E8CC03DEE3519ED67EC5311EAFE442 0200
724400013010570 89554000000130105703 3030 11161977 5116 12621924 131CCDD91CEE02DE 8BB93617E717F634C592B3A743F6824C 0001
724400013010571 89554000000130105711 3030 23113824 2594 69100556 4E18D3A32E7B4EF1 4E60CA71429FDC979B10B4F5A5754A23 0002
724400013010572 89554000000130105729 3030 74751757 0805 36422136 28AAFAD5A5E36227 175D10C2524A1AE62D060622464394C3 0004
724400013010573 89554000000130105737 3030 16758830 3192 41138522 E7AC0D1A7F167017 77298ED0E831B2D3378D124E48BDAF90 0008
724400013010574 89554000000130105745 3030 69173877 5087 14580679 238DFC8F8EB0614F 25E6D66E2654BF2C735120AF6385D340 0010
724400013010575 89554000000130105752 3030 36291909 3113 43810141 722E1B0266336F28 46920C6AD113144E1E00BE5AB56BB3D1 0020
724400013010576 89554000000130105760 3030 19825525 4051 66707373 D87383ABB1E2AB28 A8557D5AFF7F2DA0E98A159C274F0F6E 0040
724400013010577 89554000000130105778 3030 38476632 4782 06686421 3077B3226709F802 D77E9BC3823F9A3DB761FD4F838B0C66 0080
724400013010578 89554000000130105786 3030 67463414 1143 32012651 3424331C9613DC0B AAF1D3DEE1292941B0D01B07709C55BA 0100
724400013010579 89554000000130105794 3030 84240352 2874 94511391 B44AFA99920105B2 AF7BFEAE62A80ABC892585F12D4B8DF6 0200
724400013010580 89554000000130105802 3030 13767756 3855 78195844 D11D907A2BE7F2F4 80FBD84B9180A8BC349C8BC132F1F12F 0001
724400013010581 89554000000130105810 3030 87607031 8701 35231330 76FEC0E052E37C32 F519E8C3EE3C6241E6E1F2B824D43C51 0002
724400013010582 89554000000130105828 3030 95423943 6494 79388997 BD891A70D991665B D6BACE2534AF8764040B247798572985 0004
724400013010583 89554000000130105836 3030 90035223 2800 71606878 561E2A110CC8A80E 286226845B36F664EA16F0E6DC4C1DEB 0008
724400013010584 89554000000130105844 3030 16301038 4951 41611461 481148B7864C4CD4 C32869638A41E8205B3BEA059DA065AB 0010
724400013010585 89554000000130105851 3030 53341560 7275 89906466 4A6A0D36A1757A2F FCE20271927585B87050F2AB66B86BE1 0020
724400013010586 89554000000130105869 3030 65265354 5773 66342177 AF4143CE6D5DAD6C 7C0B5891585ADCF4EAEFD0E033C33BBE 0040
724400013010587 89554000000130105877 3030 04684014 9928 69704512 4C82248654553F8E F289A096E2BAA808B1337624F9FA968D 0080
724400013010588 89554000000130105885 3030 20231871 2811 59497194 0CA3C987A4FB6C15 5C4D85867477CDE6F20F7B1032642DF5 0100
724400013010589 89554000000130105893 3030 67792073 8831 93039329 7AB753537B2084CC AF60C59795BE569B8F98F36063E066F3 0200
724400013010590 89554000000130105901 3030 86872127 9439 86129199 4FB136D05D38BA65 35FEC2A4E1C79ABFF58744EB8C1EA22E 0001
724400013010591 89554000000130105919 3030 10522142 4338 68270929 4634801709F3A971 3575CAC0B25D93CD7C456063967B6227 0002
724400013010592 89554000000130105927 3030 35436665 0688 38062660 E9073053F56065C8 B44313BFC11D8ACF3265EFBABBBACAAF 0004
724400013010593 89554000000130105935 3030 80424956 0039 25922195 ACF228DC87A3EF8C DEDB645DE74CE19DCD0AAC6A18E80204 0008
724400013010594 89554000000130105943 3030 84090242 3603 00359402 E310FA2D17CC93C1 6A95F1E04F3F8C9E7D31661AF3FA79C9 0010
724400013010595 89554000000130105950 3030 92485640 9479 27591727 91EAA07AE95B487C EA36C7DCA92EFA9B7DA2B6E3680EF103 0020
724400013010596 89554000000130105968 3030 83360660 3522 24634775 4D320421BF1B5AF7 215150F5EF2B6CA93536D4CFE50EB449 0040
724400013010597 89554000000130105976 3030 36066369 9970 45370578 67AC9E1AE9B6BCA8 CE1162E5E190498C3C3131B63748FA72 0080
724400013010598 89554000000130105984 3030 89382825 1226 91402868 2C9C7DBB7F7FC633 246853DDF3F4D06AB86FDFCC841E0DCE 0100
724400013010599 89554000000130105992 3030 92576768 3762 58536953 47F4BE6F66E31B4F 58863F38752D38196A03A1EF90A1EDA5 0200
724400013010600 89554000000130106008 3030 16744055 6349 55185471 9A3CA5BD73A68035 5213A2C3DF4EA7EF4E1D7A64A9E5BDB5 0001
724400013010601 89554000000130106016 3030 44309575 6446 53996195 3DE9621F97AC1516 B6701C5A20609586C053F997EDE63A4B 0002
724400013010602 89554000000130106024 3030 83155436 1033 91660547 7C0A5ADA3D5369B2 F4C1F8BB0A930CEE51C659AC691B0E10 0004
724400013010603 89554000000130106032 3030 36509453 5610 85600829 03AEE5F2A487D876 765CD0E358C76B7F4986A8C16BE24DAA 0008
724400013010604 89554000000130106040 3030 08264452 2628 09963976 F20574719478A336 247B38682B242A097567411D5A6541F4 0010
724400013010605 89554000000130106057 3030 75999943 5968 82356054 9D8F78AD5AB89881 D65E2F88753D14DACC4525353D83FEE2 0020
724400013010606 89554000000130106065 3030 34359490 5211 38418894 B1720CBEF103E677 269DCF8A78DFE919F013B3B7E7D415E4 0040
724400013010607 89554000000130106073 3030 72288675 1075 32455440 191E925FB6F8FA2C E6B73B3E5381DE0CE0490C0F3FEDD1E5 0080
724400013010608 89554000000130106081 3030 66417051 1209 50136575 CC67F71A82A96795 89B65553E937A813FAF8E5FECB5CC6AF 0100
724400013010609 89554000000130106099 3030 74593927 9164 25137074 4077688AB01E6DDF 3E71F8EA51930A9D7BBBB5BD782886B3 0200
724400013010610 89554000000130106107 3030 28962840 1732 24327347 61B020429F55484F 053F3D730E50296D13A2FFBE9DC1F2EC 0001
724400013010611 89554000000130106115 3030 83521895 5927 99280902 8E372E11F8BA3AF7 EF4E8E10CE6C8BBCC6CDEA3140095B61 0002
724400013010612 89554000000130106123 3030 92496497 8468 99666501 17A6040BC2C3742E 6A4ACAA2011A8A61A4F752F08BFB4239 0004
724400013010613 89554000000130106131 3030 72249445 6403 67178650 13C45928F60D62E4 E34D94B935F919E1E5632D382A3B5C04 0008
724400013010614 89554000000130106149 3030 52257100 4708 35078694 DA504E77957EA533 BDC3ECA61E936F556A02494CF4D3E2AE 0010
724400013010615 89554000000130106156 3030 64407641 8404 87313434 3C2ADABB00840A12 2BBBD4B4617EA73BDB974BE0FF4D5A41 0020
724400013010616 89554000000130106164 3030 25686189 7767 26055442 4B4105D435E54706 38D7F6A3EAC07C7910F8D030DC446018 0040
724400013010617 89554000000130106172 3030 42328752 5458 26638826 7E97927600736D92 AB4E25A9C1C41AF9D108BB3E63BE40AC 0080
724400013010618 89554000000130106180 3030 17826259 7158 30530246 60AE3B6B7A4A7BFD 24E3C1779F3508984F79A37C95CC7269 0100
724400013010619 89554000000130106198 3030 45769119 3973 22194156 50513FA3B995D7BA 519E5A82303B22BC3784B254B72374BE 0200
724400013010620 89554000000130106206 3030 76127216 9086 00260382 ABB75EA863C4518E 5AEC2AC3835CCFE0708E691F0DF47E73 0001
724400013010621 89554000000130106214 3030 01544618 7078 01500150 FCA2B3C26E785F1A EB81FB8DA775546D60069F0570204330 0002
724400013010622 89554000000130106222 3030 25639782 0217 82468052 03F97DEADD7A8887 5ABA13FA4B4BB84397DDF6FD9CCF2BA6 0004
724400013010623 89554000000130106230 3030 67822618 9191 63459053 E14454B8C8E3CCFF 1A4004E1386CB08FF29AA042D1F3A95C 0008
724400013010624 89554000000130106248 3030 86423187 9671 87542372 B6D31D22073216BF 4A8C555EB81202573C54AD3B2CBCA506 0010
724400013010625 89554000000130106255 3030 79366817 4439 89550456 A4C3BA747BD7C908 AF83589E9730ABF62BEF3506C1B95ECD 0020
724400013010626 89554000000130106263 3030 25175615 6208 30285259 A8293C8C09D4946D 588A523D63F9BDF3C941F4C02CDFE651 0040
724400013010627 89554000000130106271 3030 29925446 2419 58977354 400063E006DA3808 D01BA11D8388047719D3B1784D8ADA44 0080
724400013010628 89554000000130106289 3030 79463938 7528 64388937 2D4DAC25D7B60F46 2B3B69E4BCAD7C401B2B51798C887893 0100
724400013010629 89554000000130106297 3030 46606802 4982 97052792 B6CDDB480F0E499B FE2003784589AAFFF6492686D17742D3 0200
724400013010630 89554000000130106305 3030 47283413 2529 52435215 CA9489BEB5FD0EFD 11BA5DFE42EA545793D817CA2E17A546 0001
724400013010631 89554000000130106313 3030 29721174 9274 10556183 2DEFB81667D8F205 7D234283FB7C7D8861B2AE3E4E703EA9 0002
724400013010632 89554000000130106321 3030 03805970 6822 97774281 51CA8ECA119B30AF 5A21F3B6ABEFCA3865F2228848165E32 0004
724400013010633 89554000000130106339 3030 37510650 3706 38331727 073FA6DB5F8F7D28 21D68BCDF3DEC7327104ACC0BD9FFCD5 0008
724400013010634 89554000000130106347 3030 50055587 3587 40203299 EE08B50CAFE8AFA4 0D4C86510821CAE941106577E23CD178 0010
724400013010635 89554000000130106354 3030 74425845 0485 07305190 9F0D484E1B19532A 9217283944FFA905EE47B503810CE2FD 0020
724400013010636 89554000000130106362 3030 65601136 3078 82752634 70FA85DDEA064599 66F95AC74BFF88F5450940D15E23DBF7 0040
724400013010637 89554000000130106370 3030 35913865 2151 63348849 565590E250C6F928 A02A3BEA4234EE18C93C4593F55C3864 0080
724400013010638 89554000000130106388 3030 43543045 1908 09579423 316F72F265DEBB80 E9AEE475DA88CADD9F5EF81158A16299 0100
724400013010639 89554000000130106396 3030 93952322 8331 47360590 65FA62AA51A975C9 6936B854563BD5E21E3AC2602C75564D 0200
724400013010640 89554000000130106404 3030 10164992 0613 50139086 E3F5438297CC7F29 75B35AC59F6D3D0691B5BCB59BB1D487 0001
724400013010641 89554000000130106412 3030 10424434 8386 63605818 DEE8CECFAA2C564F 06C0CBCDC4C9713CAB59C21275797F95 0002
724400013010642 89554000000130106420 3030 13291721 0132 33110272 0A811989D7C74A2F DE04F689CC12AFE1D60321BAD9A03789 0004
724400013010643 89554000000130106438 3030 76971978 1888 60631997 D72F9E452F8F0C21 71D87C66CC14CBF29F3452C1BCC9D18C 0008
724400013010644 89554000000130106446 3030 43217616 0571 39981567 2C1B7C7B10C257A8 D26F3BF428FCDB84243E82A54EB945F1 0010
724400013010645 89554000000130106453 3030 78562168 0145 58794601 3D53C747631A0108 AD7B43FD86C3B70EBD85E3F7DBF6075E 0020
724400013010646 89554000000130106461 3030 08110942 4845 84441713 7137B2732059BA5F 8763FB079418EB824DC3B9D82C92D49E 0040
724400013010647 89554000000130106479 3030 64183985 1256 97541942 A821AD60F14265CA CD06A13DAB5254952D3CCB102BEAAD75 0080
724400013010648 89554000000130106487 3030 21083015 7973 40858352 9C3758F7E69D6890 4610725BE4E1AD70622AC494B71311C2 0100
724400013010649 89554000000130106495 3030 53425525 2366 01512532 0C407B59CADBAD31 D14763F2D7CDB5E165E2EFF9C723B4E4 0200
724400013010650 89554000000130106503 3030 60688587 3007 86652577 6BE886A6B124B25F C4BDD4529C8865054F868F0A169981A0 0001
724400013010651 89554000000130106511 3030 99313292 2107 00876895 0AE09849C98A3A57 3E4D3C002928A82269B9B40B52F27857 0002
724400013010652 89554000000130106529 3030 27631198 7889 64684402 20B4FA5B30B64FF0 78E452C8A93CE28BB409EF357426604A 0004
724400013010653 89554000000130106537 3030 65142688 4143 33620893 3C29B11F354274FD 6A41080A25EE683712376C2F414EAABC 0008
724400013010654 89554000000130106545 3030 97409222 3235 78532291 22F83C3F27DF05D3 CE2555F2926C17A5FE3447D880CC1519 0010
724400013010655 89554000000130106552 3030 96282083 5434 82501226 8C8CA180EE2438E8 4E1CD960D9AD04AD0D1449C96A65735C 0020
724400013010656 89554000000130106560 3030 70978572 6223 86956169 E5090332A30CB3C9 6368B891427016A64EBCED501C2F5021 0040
724400013010657 89554000000130106578 3030 39807291 0410 08755640 493F17AFA3E8DA06 6077D85D34F0335C255BDE3CD1B0C033 0080
724400013010658 89554000000130106586 3030 60820518 8479 15777427 4C63E17D36DA54CE 38AB97FC876200D5F4B7CDDFA8F1816A 0100
724400013010659 89554000000130106594 3030 51242935 9564 69012930 386D7972B526983E FA220EB0F0FB7E3E500EC965AD853D9E 0200
724400013010660 89554000000130106602 3030 26507944 0860 67007124 1A5828127DA40811 6E01D04B55EF6433260B2E182FCD80EC 0001
724400013010661 89554000000130106610 3030 09289846 8734 84984323 529553BC33008793 5399CD606A2B60BB6B82885C7470DB03 0002
724400013010662 89554000000130106628 3030 41503263 5220 21472033 E199E1475C06A381 8F12EF049DA4ECB52A8B633BEBD5606B 0004
724400013010663 89554000000130106636 3030 62503153 9420 36995187 B21C6C75D3E3F926 5E79E24C251A539845B6598A7EC54B35 0008
724400013010664 89554000000130106644 3030 64803730 4934 39779216 8D38DD0323A0145F 7B129C03622C7DC7555FC887B505EB18 0010
724400013010665 89554000000130106651 3030 26828206 2194 79128814 F54DCE7A3F5AF652 FA154E70E65D8805CF392E5DAFBB5D46 0020
724400013010666 89554000000130106669 3030 68882701 2334 52675572 A07A4E037D0D64C4 F51D7B9757DF854F97451F182380F8A0 0040
724400013010667 89554000000130106677 3030 53747920 1562 02822768 6C470661F226E81C 8FADF0B8290A33475B82DFFDFF62B42B 0080
724400013010668 89554000000130106685 3030 17829523 1663 00048922 6ACA0DAAEBD1E830 B667E76ABB4EB98BF5230E22539D373C 0100
724400013010669 89554000000130106693 3030 03356745 9291 14567631 DDB109F37991784D C906833E2B306454B6C3A0E7AA8B9A34 0200
724400013010670 89554000000130106701 3030 66567350 5474 95479706 70A61D4C99CD197A F0682985016DAF8560BCCCDC170764C5 0001
724400013010671 89554000000130106719 3030 27735802 3101 78328261 1345F697AA25B2C3 3047E45AFDA31FA778D14E62FE6A75C1 0002
724400013010672 89554000000130106727 3030 59114376 8244 79693835 10188BF22F25CA30 5FCCFB1661AD34BE5CCFEB4D86E0A325 0004
724400013010673 89554000000130106735 3030 70564246 5593 73009338 DA698443B2E17639 D33DAFDA47BC86FFF676D0A22AB21C41 0008
724400013010674 89554000000130106743 3030 47325597 3378 65801657 00DD36270BFA54DE 0A2FC7545A866B9918C435BB2CF1B269 0010
724400013010675 89554000000130106750 3030 55075983 7891 85936411 1075B00D95C6F394 360886272775309DB68E05C4D567206B 0020
724400013010676 89554000000130106768 3030 28984892 8741 01665111 D7BBB830AFC18C8D 5A69E0B6733E24133CA713076D16B547 0040
724400013010677 89554000000130106776 3030 72778563 0053 18890830 F1E6B8538316F6C9 B6F7D95EB9809AAD8D5438B81A7C2F5F 0080
724400013010678 89554000000130106784 3030 27072427 7601 19201535 467AF5B2EDCEBD2D D0C75A1ECC22A651C54B4ABEB2BD832B 0100
724400013010679 89554000000130106792 3030 23181384 3113 33766052 E225D054797C33AF 1F005B1E687EE1FC949D82C573C868F5 0200
724400013010680 89554000000130106800 3030 18373470 2012 78580820 944EAE443EC4271B C3BE6EABF6DAA885CC2CC6BA6794ED98 0001
724400013010681 89554000000130106818 3030 69906462 9660 15385922 1DEA9BDAAE10456B 18B802672CF52286F58088C633F77031 0002
724400013010682 89554000000130106826 3030 08112610 1411 32772705 498C273C455B7D50 A5A2E44AE7BED0BE3F61FE5AD79FD989 0004
724400013010683 89554000000130106834 3030 81421278 7896 62586215 101DFF403056145F 53527B2AB4D5FD243B825361C26DCAE0 0008
724400013010684 89554000000130106842 3030 40380640 9782 83638660 B94B3DAA6B0D51A8 2417A412B4227E65C19670A678EE8287 0010
724400013010685 89554000000130106859 3030 79220647 0635 18510922 F400B70E644FA6BA CAA82B8BA13EDD7C75895EBAC8680F9D 0020
724400013010686 89554000000130106867 3030 83497765 6044 30144984 9C8627A2EECE67AF 960E8F6B93C7654EAE0E396AE4853220 0040
724400013010687 89554000000130106875 3030 29188438 0742 08575838 33C7B48448F98DE7 10A4B47E23DFC472F2B80A2DE3137BA9 0080
724400013010688 89554000000130106883 3030 73433135 0231 41908883 CF056C1B9B0EC67F E183456249E7B1078051ED64F3799EAA 0100
724400013010689 89554000000130106891 3030 42425448 7493 94653653 EA3F4837CD6B57A4 448E01F807B07FE357B91E7631F85EB7 0200
724400013010690 89554000000130106909 3030 87106096 5820 34116914 EF0188F91EA43A63 25A71881486E520B38F18BC850F5EBE4 0001
724400013010691 89554000000130106917 3030 70719738 6281 14650882 770980B1903110B7 B040457B77B3FC769C0A4D31BB4D2B23 0002
724400013010692 89554000000130106925 3030 62785455 9740 18427776 1498E68BE618DB9F 49501FBDE03E08405499BB11EE865993 0004
724400013010693 89554000000130106933 3030 56804104 6549 81828642 10BA65DCBA31635E 856BA9D2A030394200F0856B8AA4088C 0008
724400013010694 89554000000130106941 3030 20120206 3679 39872981 38CEB658DECF32A7 C06A084A61A9FB568EF3AAF3522A78F0 0010
724400013010695 89554000000130106958 3030 73628751 4360 72125871 8ED4C3A87B539757 0AA14761ED28FEA77CF0E26A74AB69CF 0020
724400013010696 89554000000130106966 3030 98735426 5968 51941544 D391C8BA01688EBE EC7F1868DBBE3B3AEE270CCDEE3A05B7 0040
724400013010697 89554000000130106974 3030 43252625 3362 63987759 09AB71D816293E8D A7DDE0BF82DF31EEAA996170084FABCF 0080
724400013010698 89554000000130106982 3030 52287645 1173 56601349 787A7EB38FBCB6DF 2CBA527F67719E2E89C4F4AB09E9199C 0100
724400013010699 89554000000130106990 3030 96121933 3108 81896550 DDFE6BB9A841E3D4 397887925BE3138E1076E0F08093E6AD 0200
724400013010700 89554000000130107006 3030 00991346 5346 92146118 547CF9B34F74D951 64733183448294CDDED9AD7668A4EE40 0001
724400013010701 89554000000130107014 3030 21118825 4930 14173213 20361F784ECEF964 3E5CDA2B89BB0E7697ECD4B970D6CEE1 0002
724400013010702 89554000000130107022 3030 91405897 2548 01634090 737919DA6EDDBC92 0EA7633FE819B87FB653A6C774B33A97 0004
724400013010703 89554000000130107030 3030 53565582 1901 10743736 FAE61B2C007377D1 2880AEB4CD96799E7AE4FBF2F0F97F45 0008
724400013010704 89554000000130107048 3030 12520475 9415 38728512 7B503EC408A4D1ED 2890B161C8844E7DCE511AA3D90B2ABB 0010
724400013010705 89554000000130107055 3030 77987337 6154 00822203 2DCBE58219EBD8F8 9213D7019445D2EB459E6D3159A80AA5 0020
724400013010706 89554000000130107063 3030 99274511 0508 91611627 FD9C7DD916FCB9C8 8CABFCDB134ECCE2FCCD58955666CE1D 0040
724400013010707 89554000000130107071 3030 54500667 6753 43464945 CEE696150A1CADD4 2CD40D1642641A9CC6E34A08286DD6DD 0080
724400013010708 89554000000130107089 3030 75287485 9732 28501897 67159B4FAEF64731 0064AFE47E62F05FC794BCBE58480F3E 0100
724400013010709 89554000000130107097 3030 47193114 2180 09734241 DC717150B8918D20 E0A651744FC7B80D08CA07E0EB25FD29 0200
724400013010710 89554000000130107105 3030 81310811 4545 66210502 34EA06356A46E34C 1DEE63CF50E2AACFFAA5B0BB12D3498E 0001
724400013010711 89554000000130107113 3030 16798369 4181 16294687 8AB66D2BEC3C279D 3D4FEB01DBF5D9FBFD69478A249AD288 0002
724400013010712 89554000000130107121 3030 85483487 6160 11569760 3588273015DA3392 011DEE4E593C9DF76595568768FC612E 0004
724400013010713 89554000000130107139 3030 55314792 9761 37186533 177EB7A86A6AE387 16D582CB7CAD24EE994D37C0382BDE6A 0008
724400013010714 89554000000130107147 3030 12506056 8797 56782589 5965972450BDBEF9 5A8B8A395513B71B850A97F771E972C6 0010
724400013010715 89554000000130107154 3030 89248492 6476 67379485 4CE762818D334208 B13C9361AB01DC610B8DFFF23AE7C376 0020
724400013010716 89554000000130107162 3030 90071082 8419 13109478 EB97FA93BCF93463 78B6F3BC29A8933A7CFCF27BAE91BB0B 0040
724400013010717 89554000000130107170 3030 26355486 8845 85779271 9AE6783396887AA7 D41316D4BE90581EA817398A9B87823A 0080
724400013010718 89554000000130107188 3030 80414991 5893 62178356 6627E90EC67E1760 C5098DEA943F973C3BC6795EA22CCE6E 0100
724400013010719 89554000000130107196 3030 21174962 2352 22000445 1C76EAC4ADE94226 B11FC0C7A5101CAEF9296898653A6F2A 0200
724400013010720 89554000000130107204 3030 26003207 1111 60988145 1338E838FAF49CDF 075BBFB31442C143C454DAC0F5E9F698 0001
724400013010721 89554000000130107212 3030 99475944 0045 99949617 05031207BB764AF2 8F7D3E91FFC60E5880EFCC6BE28D7A78 0002
724400013010722 89554000000130107220 3030 03858103 3325 98771081 AB13D500929B26D1 94868A8C494E1D1EC2698647D5BAA0DF 0004
724400013010723 89554000000130107238 3030 61871489 7193 29778247 9A696229C039F648 91A8B5E2886751E213BC529816C21B91 0008
724400013010724 89554000000130107246 3030 01060081 1527 33611500 50FC13EE34562A30 57EF257801B3644185D619062B5535A4 0010
724400013010725 89554000000130107253 3030 31325353 9732 46077971 645E236E0C292FBF 9E7CCE9823D098E84307BE92BFC5663A 0020
724400013010726 89554000000130107261 3030 35301285 3116 10627720 E33AE7730ED1C170 8EC25FD076E198133B313CA51EAA2D2E 0040
724400013010727 89554000000130107279 3030 29108953 7206 47538098 B324E49DB64A351A E73EF2C479682420FC59F2276420AEDB 0080
724400013010728 89554000000130107287 3030 13501289 3630 30531012 79EAF21C0F896CD1 0890CAAA90505D8B3595156BE51F2E3F 0100
724400013010729 89554000000130107295 3030 12120470 1710 00781984 5687693E6F2E211E 15D5FE3F653536F07E94A294F59B0678 0200
724400013010730 89554000000130107303 3030 75879572 1048 73113971 23261D608F72B4B0 DF7E92E3E2E86F7BBAD59318902E7749 0001
724400013010731 89554000000130107311 3030 25095127 7455 10456134 FDA5C079C4AAD552 33E70D4E6DA756003845F97B8A5DBA88 0002
724400013010732 89554000000130107329 3030 97266385 4225 72137303 EBCC97C86DA11235 113F3ADA5F0FFFA09C7658389A64166A 0004
724400013010733 89554000000130107337 3030 66283462 1353 77792169 5E2DD03A8B87B20F 0558320446EE51AAAC5AE93852E9FD19 0008
724400013010734 89554000000130107345 3030 40405914 6510 18390281 CFCAB62F5912E434 FDF8C176F3A61C312BCFEC975A7D2520 0010
724400013010735 89554000000130107352 3030 26290682 1857 68875590 6A4D6BB8ACA44886 E95181E0EE53130D3D8D492A2B4A2CA0 0020
724400013010736 89554000000130107360 3030 65006435 4367 22561475 1749C2A7BFC34754 9742418426A39106096B87C47E855EE5 0040
724400013010737 89554000000130107378 3030 76857768 1317 24266425 60777617A8CF2318 421A71391976D740717E58AD6D90D915 0080
724400013010738 89554000000130107386 3030 31843600 2604 67056305 00D5C31CCAA54410 32CA85E8120785BB322B7A7BA6CCBC72 0100
724400013010739 89554000000130107394 3030 56959407 4427 24753485 351380291391547E 1EAC423F10E2845476871404FA5422EA 0200
724400013010740 89554000000130107402 3030 49338532 5221 19145228 E77C733E487FDB92 24B717A93DC813783FFD2D26AB2EC062 0001
724400013010741 89554000000130107410 3030 85953450 2585 94079057 7FBEEBAF5A07C472 1B8F7D094EAEF9512FDB152A116E1D37 0002
724400013010742 89554000000130107428 3030 04454414 5668 97192693 CE0421F00CBF0F69 6C49203EA841FCD93D5866382E9DACA2 0004
724400013010743 89554000000130107436 3030 32454407 5984 83446258 AE4ED44C40A1FB2B 111D9A5E5752268BD4887E7494FBD0C6 0008
724400013010744 89554000000130107444 3030 33449856 4197 46792864 C28E72A845BD07E1 B5BE5DEE0A1CA882B4D6B56DA23815FD 0010
724400013010745 89554000000130107451 3030 59012481 2932 58509746 73DA69380767354F 6B7F508181B3053CADC8E91101329CBC 0020
724400013010746 89554000000130107469 3030 39100778 9433 55261371 2C41F2CCADED13FC 6DBB62AAE596FD5003E9D05B3808DFE7 0040
724400013010747 89554000000130107477 3030 15937568 4846 47349260 EE630FF9CB800237 BD35271C850532F79E28C404B0E2DC20 0080
724400013010748 89554000000130107485 3030 16805676 9754 70734229 7C3DA947427661F2 7D4CEDE37165CB2736C7CAC3FE053F91 0100
724400013010749 89554000000130107493 3030 84450319 6036 32555936 A0E930014E54D256 8ADE354BEBD03EBA453B7DBC355B1AF4 0200
724400013010750 89554000000130107501 3030 89825955 4724 01744747 01DDCCB27A641A2A B4CBAF045E73CF9A68F6F1D095B57603 0001
724400013010751 89554000000130107519 3030 16126378 9616 45636573 BF6D8C89D9B27296 8E2EC2EE88AB950AA35A2B42E574D75B 0002
724400013010752 89554000000130107527 3030 81894295 2013 60797353 0F47EFD443E06670 1180403B5C47A57E61B74AEB82656380 0004
724400013010753 89554000000130107535 3030 93039061 2106 13736057 F6B2E98FBD58F68B 30D4DE745F8EDE926A0669DD0BDC8B7F 0008
724400013010754 89554000000130107543 3030 44899975 8672 43867890 C5F1B89BD0D62083 D728AFE0CAD9F1C836CE68B0035A04EA 0010
724400013010755 89554000000130107550 3030 00531945 4172 44748566 F84C74E9CB2599B0 C2DDB0FC9C0912EF685A1EF875F8B642 0020
724400013010756 89554000000130107568 3030 95224108 6767 77096996 144A9B442B08F502 2A4979D204CBE801D62EC11E8DEC4A9D 0040
724400013010757 89554000000130107576 3030 87726281 4347 29120922 3B1CAF1F7B83956E 0611D5EBFC918DD9BA8AF44E9C363FDE 0080
724400013010758 89554000000130107584 3030 89855245 7519 00194734 AC54F1F72589950E AF34843EB6A71812B165098E5D8C281E 0100
724400013010759 89554000000130107592 3030 29456599 5454 42017414 6CC948634480E527 3E5B95204382C402579A12C3B3950BA6 0200
724400013010760 89554000000130107600 3030 17907181 9701 01465442 D0C696C48D80A47D 5EBF327CD8AE4C3FEEF92175BA1220BF 0001
724400013010761 89554000000130107618 3030 06629788 6078 23167230 8E2D8ED2C6E577CB EE3E1A2F99DC7EC52D18FA9FBB13D7FB 0002
724400013010762 89554000000130107626 3030 72317649 2151 65308198 013E085A7DDAF191 DB415EF8226C9B514C0D6F5CAAC1EF4C 0004
724400013010763 89554000000130107634 3030 73897545 2491 75604306 91A6A362946A7BB2 14763BEAB74A1E926B449DD9F4C2C0DB 0008
724400013010764 89554000000130107642 3030 28431393 0785 04952774 1B034713FADBFEAF E763C524DC25CD3CA40E9B7EA1E2325B 0010
724400013010765 89554000000130107659 3030 61683895 2470 32162242 DAA1C11BA7EDCA44 BF1A87266D283C21FABB3705D917D2EC 0020
724400013010766 89554000000130107667 3030 72846309 1482 56262763 A3BD177A7C09E9E0 78B1C7478D351D9E4049068F58075D8B 0040
724400013010767 89554000000130107675 3030 62035014 5635 86577041 6F382444EF98C74F 9396650DAA9FBA2EFCFF1B27C24CE938 0080
724400013010768 89554000000130107683 3030 42165816 5056 60117327 F596D6A50D88E3A6 DCE82BE176E569CA6468EFA2B9DBE91B 0100
724400013010769 89554000000130107691 3030 14031829 1186 75954544 9D84C070CF4D6C2C 43A6751F0F95AB29BCF3E43B918D3FD5 0200
724400013010770 89554000000130107709 3030 86982906 1685 78963766 394003D180EF2045 ADAC8749DEE78C7AFDBCD36E77FB0C72 0001
724400013010771 89554000000130107717 3030 30990405 9741 29087521 ADEBCF840B9B281D 295FE99574F490B88DEBAF932DDAF2F0 0002
724400013010772 89554000000130107725 3030 66624761 8128 24374114 624023637621220E 98B903B984B84CA553501DB10C08A362 0004
724400013010773 89554000000130107733 3030 69504031 3930 08509260 5DA504C64FE1B29C 5C07E5024A534A47C2C1E184D4C25E3F 0008
724400013010774 89554000000130107741 3030 27511887 5945 30744733 1894D69EF252AD03 6D913F83BCF97E18001947327FFE1C0A 0010
724400013010775 89554000000130107758 3030 22867006 4176 01538628 0454E3B8A838D34E E997C7F79CA42B568C5982CF51687FB4 0020
724400013010776 89554000000130107766 3030 75280974 6062 50503494 8CE5B08BB63C6B03 49793300D7A610E3B4E81463311B6371 0040
724400013010777 89554000000130107774 3030 52705352 9176 54722515 5B5E94CDFFEF7CC7 75C69AC06DCD37AC5623649496AA1BCA 0080
724400013010778 89554000000130107782 3030 21789440 0692 62448313 2E4C67728A3C05D4 D4F2FDF367A6369FDF023CF81C274218 0100
724400013010779 89554000000130107790 3030 23939003 3688 88191195 36D9F697242C638D A7A6577F210B31F0357C83298FAAFFEB 0200
724400013010780 89554000000130107808 3030 53059473 5157 36753039 29E83339DE0822D1 9DC5B46886E3C89558AB419C396AE676 0001
724400013010781 89554000000130107816 3030 06118531 2813 91682654 D2BBAB461D072DA9 660D54F6272EF160FF25261987DFFB54 0002
724400013010782 89554000000130107824 3030 14428075 7841 44725538 34186DF7692F3DFB E5296089917C276C8022E0B1A8F3277C 0004
724400013010783 89554000000130107832 3030 61657533 4617 07278717 E4566F49F0DBBE48 A5D9B375EA4BE720B3C19501E6D27973 0008
724400013010784 89554000000130107840 3030 60505824 2245 74239531 7D53C0F1100B7B34 364C2555C9B9E226BBA4934B38A9D370 0010
724400013010785 89554000000130107857 3030 82678155 5312 32251169 E667996BAA998209 E2E1247A21829F0DDD4A3C6A521C6309 0020
724400013010786 89554000000130107865 3030 14451177 0244 06366552 B3259DDC706C0F0F 8BBE34323294CF9D9AA2FB367AC8C8E4 0040
724400013010787 89554000000130107873 3030 14550915 8976 73028820 1166098EABEC8F30 60732E4DAE10FD8B7CA4CC361893DAF3 0080
724400013010788 89554000000130107881 3030 02605600 7902 80525174 9E2AF13E0C584E46 8960904ED62D099A4041E499F68B169A 0100
724400013010789 89554000000130107899 3030 26000138 2902 87839749 E8F4CFF9E3ED3F33 E0F3D4385892D49DA2E712BF8C834F91 0200
724400013010790 89554000000130107907 3030 08895978 3644 36665716 8B160A0A5B699B19 DE5B603FEAB10E6A557D781849091B10 0001
724400013010791 89554000000130107915 3030 95796473 4459 33958926 628F6B41E4339402 C0D51C515957D135D28A9DDA2E9631D9 0002
724400013010792 89554000000130107923 3030 36173202 5806 53408250 439072C293164569 DD35DE9EA664FDD414F5F7D8CB1BBE0A 0004
724400013010793 89554000000130107931 3030 99214716 2837 77829688 F3DC579AD58CE70D 5D4BEF47815D7765E90552F264683077 0008
724400013010794 89554000000130107949 3030 91415669 6146 73204268 A5ED22DE195376E6 C74F6861C99C57A39EAA268C923C214F 0010
724400013010795 89554000000130107956 3030 39670328 6917 32375613 5BB55D74E2DAF39E C2BA7A52F36C03206BF8499F1C33DE10 0020
724400013010796 89554000000130107964 3030 05593974 9577 89117323 56AD5B0107FA58CD EB472896DE1E6B216293B060BEB08AF6 0040
724400013010797 89554000000130107972 3030 83418587 4643 16244218 0867C0FCDF15B8DA 2AD09BFAD8EC84C90997ECD2400D3087 0080
724400013010798 89554000000130107980 3030 51377120 2958 37628845 16D742010F786942 9D998B9DFD8CA46AFCCDB89E4403AA3E 0100
724400013010799 89554000000130107998 3030 37179490 5322 77429496 7C08B6A85B0D25F4 C43E748F3B48816BDD47652EA1E92E7C 0200
724400013010800 89554000000130108004 3030 01980800 5795 01521084 265237D2FEBF01CA 811397D12A04A8A40856BCCC5678E74A 0001
724400013010801 89554000000130108012 3030 63021595 6094 90850620 4B4BFE25D438D696 605C222E21389830237B9A6534D1892F 0002
724400013010802 89554000000130108020 3030 75414469 8081 43543099 DDBDE7F27861AF5B B2A6B9872575A37CA6156255359B1B61 0004
724400013010803 89554000000130108038 3030 72379809 6379 90490024 933FDE2F5A75925B 7A5EC57CAA641853174BF24B65838BBB 0008
724400013010804 89554000000130108046 3030 63207846 8204 92124358 65C6D3F06234811C 05BB487BF2989B3BD12823E89C3B0870 0010
724400013010805 89554000000130108053 3030 62633473 3836 51516401 CE1EF84437C0FAEF D7C65561E69755CA0E4EC5A2E315014A 0020
724400013010806 89554000000130108061 3030 04551657 8902 23979414 46541F03FA0F13CC 0B0ECB88E460598EEFD6448951125D61 0040
724400013010807 89554000000130108079 3030 01921699 8818 53878271 F8B32B0285A2CBB2 C656EE321D0E573FD53A49EE30D5C46B 0080
724400013010808 89554000000130108087 3030 82063616 8671 29953554 B1C6F397B0BF71CB 5FDD1FD55B6E0B441F4F2607C460C4FA 0100
724400013010809 89554000000130108095 3030 36292793 7266 85953323 337F1AA18EB415FC 43D52C09D0038D2ADE45727E9981FFE8 0200
724400013010810 89554000000130108103 3030 51324969 9727 58271182 817CEED4C4F2F395 DD8E92F53B114D9EA7E0A2E92B876AA8 0001
724400013010811 89554000000130108111 3030 28340910 6690 66071601 70BC926A09F00F54 1233ABEDA65AA25DDBAB3EFC5B1A59AF 0002
724400013010812 89554000000130108129 3030 70564954 9945 17668449 47209CAECA50DAF3 A22170DE49F1CC44AB8E6F3611CB9E3A 0004
724400013010813 89554000000130108137 3030 64019544 8601 74514439 633271DAB77B152E 44DF4874B1227BE68D9D3A72FB82CBFD 0008
724400013010814 89554000000130108145 3030 02360549 2062 05426134 6D747FBD67A881BB A18ED24AFFBC6CB4D762A272187FD61D 0010
724400013010815 89554000000130108152 3030 52564223 1353 39688881 86B90380CE066406 236EFA59B383F08B75FF431D29737370 0020
724400013010816 89554000000130108160 3030 27977541 8030 66349182 3941E687F43E969E 090DA7A8338B942DB61D32CD669429B3 0040
724400013010817 89554000000130108178 3030 65273504 7725 79540277 D53CBC6266FE695C 4EAE0D834B8B476FA583BAABD717536C 0080
724400013010818 89554000000130108186 3030 20583009 8348 68199513 5562AC016F891F1B 94AE4A05B20DF644FDB846D8BDEB3F8B 0100
724400013010819 89554000000130108194 3030 84015990 8932 47098111 22302417D600D5B7 FF94F10E0D803F396CF2B9F9B2BB5E09 0200
724400013010820 89554000000130108202 3030 76646848 3889 13956446 2F3100E8070AC6E8 E3997561D2342FDABAED45A9D971BCB0 0001
724400013010821 89554000000130108210 3030 53733861 4687 44729014 397D1C905424AA21 23C770AC80A25FF88E34EFE0B4052B35 0002
724400013010822 89554000000130108228 3030 49754981 5298 41910480 493CB5AAE41E3ADA 4F9C0C9CBA5597775AF67CF8DCF55818 0004
724400013010823 89554000000130108236 3030 09906454 4220 70353958 850AC95A624E88F3 DF0EE2E26217F6448CFAED336C851E34 0008
724400013010824 89554000000130108244 3030 93581518 4779 15179388 9128260D4B5F9945 CFA718A8DFD18CA6957944F64900C4AD 0010
724400013010825 89554000000130108251 3030 84032815 9760 36093122 A9F3774F1183BAD1 FCB50B32C812179883EB6CEC9026CAC8 0020
724400013010826 89554000000130108269 3030 15123715 2016 26499963 C6A58312846BDC41 54FC12041735E5DC18324A0FB0BA30AD 0040
724400013010827 89554000000130108277 3030 78034585 4038 65632427 F2D26866CBA439AA D7F9ADE7F130FAC2B6715701B72E5BFD 0080
724400013010828 89554000000130108285 3030 97692617 8839 71380467 47E3D60EE88F1386 663D90BF26FDA1000468B0350AEEABCD 0100
724400013010829 89554000000130108293 3030 01027858 6223 31470050 F9DA6B22CABB46EF 6D1BB4F9F5D098298B6B259BCF0CCC53 0200
724400013010830 89554000000130108301 3030 73208720 8004 56168828 EF4B75C13473EE0C 974829129B2BEB1F586E2F20CB1802AE 0001
724400013010831 89554000000130108319 3030 06408604 6596 92153580 18119B9AB8011F12 45577ABA55ABD243EB3C97CBE8DBC9C2 0002
724400013010832 89554000000130108327 3030 70556813 2801 33309429 704B4AD62966D860 12E61A3FD8912C5CF283057455F34963 0004
724400013010833 89554000000130108335 3030 35583932 2989 56684944 9D7CF3CE72D1FC59 FA29A36FAA05DC9A8AFE01EBC09FA5D5 0008
724400013010834 89554000000130108343 3030 74732175 1785 40420851 01291B296530E2D6 29421DE7F1936522C203AEF19A607656 0010
724400013010835 89554000000130108350 3030 38625814 1305 14499676 4CFF3D22C66DAEC4 26D2401FD7A0E7F6791BDD654381CDDD 0020
724400013010836 89554000000130108368 3030 53075693 6728 43590104 89A2DC4DE337749F 7541C08667F39D69C18EE4819384CDB1 0040
724400013010837 89554000000130108376 3030 03983827 8033 65583528 9D2509BBF521055C 88E8F3DD5F2A9C8DED34369754986D35 0080
724400013010838 89554000000130108384 3030 04208588 0962 15036903 CF1F8E4E4C169995 5337045C01543B11EB391961448D969A 0100
724400013010839 89554000000130108392 3030 19648697 8204 41371158 DD84C27743BC4698 68BB86AA71216F436BCA127A3045EAD6 0200
724400013010840 89554000000130108400 3030 85450598 2960 26853577 E7BD7AA76785185D 085C0083B66A0B397D9CE883D44D97FC 0001
724400013010841 89554000000130108418 3030 50011844 9495 18295855 DA5D0019BA0F4E66 1618817510BE9AA314E0B976F7783C5F 0002
724400013010842 89554000000130108426 3030 27279685 1162 82297445 016F849CE7C2CE92 ED35A2AE5F3EE66330D0E8E03B8E86D3 0004
724400013010843 89554000000130108434 3030 00786768 3929 61514240 FE850A793AE2460F 85BC0882F9145C6760642252ED0E84B4 0008
724400013010844 89554000000130108442 3030 10676913 1656 48905314 15731754F90B014C 24654BDC6A4EAA9564844F81B901ED43 0010
724400013010845 89554000000130108459 3030 04743023 6496 69855089 0710A6EA92C429D4 239981DBF03CE7E12082B4FE4C61AB41 0020
724400013010846 89554000000130108467 3030 68689793 8881 54763630 EC6866266A196EDC 51A1A6B56E13B2BBA7496D9A6920C07B 0040
724400013010847 89554000000130108475 3030 52704591 4033 24246805 A9797DD8F42F9BF8 30054BC9C4CA92BBF2935159B4C8828D 0080
724400013010848 89554000000130108483 3030 51737720 0115 77730041 235DD5B34662C5CC A02F274638B65D9C8042F45F43142EDA 0100
724400013010849 89554000000130108491 3030 22061251 8721 39711858 EAB06B488BD18292 49923699F26E69992747074FC51E1B91 0200
724400013010850 89554000000130108509 3030 25327919 3528 18016451 0DA3DC51696E6CD6 D6ABD903FEEF314CBBC1402EC7843B60 0001
724400013010851 89554000000130108517 3030 33977334 5249 69281070 DA4F7A857E2C505E 3E8FB8D00C2ABCBD78066921D06282BA 0002
724400013010852 89554000000130108525 3030 83890662 5876 98117896 2C236FC6686E7DE5 BE4F4A35F651169606802C528D426ED4 0004
724400013010853 89554000000130108533 3030 55049912 7446 45806235 199EEBC995C7547B 9D448549EA0131845B38014696288741 0008
724400013010854 89554000000130108541 3030 82891657 4452 92321469 B5258EE8AD261742 1799BE73F3DC559C402233A4E4DFB125 0010
724400013010855 89554000000130108558 3030 65908778 6035 91306523 3CE9AC73896C8B57 C93B324B94D000B8070067563E75262D 0020
724400013010856 89554000000130108566 3030 96475175 8435 59000961 BBD5D3DB0977D349 9D0FFFC75B26F41D8FF1EBFC30D9AF16 0040
724400013010857 89554000000130108574 3030 61015613 5585 88744997 12934A38B22C33A1 4D0957D43708797270EAAF34D20DCFF5 0080
724400013010858 89554000000130108582 3030 46757526 5756 17304005 07089D65C51223DF 6417AF85B1F96E4C9254E4169B870C8F 0100
724400013010859 89554000000130108590 3030 31201788 6637 04471738 CA7A4F7EDDEC2704 C49D3EEFC0C2BA6EF264A3680037BA25 0200
724400013010860 89554000000130108608 3030 41520043 7155 70029105 6FC27F46D387A281 8944E6036B204AE1AE9E119FE866C3B1 0001
724400013010861 89554000000130108616 3030 37964783 3541 63164637 439E4D1E31542B08 8C4BE5D5689CDD85320EBAABBC06436E 0002
724400013010862 89554000000130108624 3030 40073626 8121 77396994 7E407B011C15371F 70BF821DFD929A4C6B7B0C1A101F48F6 0004
724400013010863 89554000000130108632 3030 84492623 2860 38203829 8CAD86AF2539DEC2 E8FD70EA51F0E2F3C1F9575643DA0A41 0008
724400013010864 89554000000130108640 3030 95560775 9349 15717182 691C66AF4FF97F51 44549E09CAD9AD14171935853A152491 0010
724400013010865 89554000000130108657 3030 47756481 8935 57036861 BED70EE8310DC58A 5462752623D476F1BBA53A61526F5BCB 0020
724400013010866 89554000000130108665 3030 47097185 7571 18989641 021507D8FA9CE582 690D1E944439683269DCE142A506C2E9 0040
724400013010867 89554000000130108673 3030 73426752 9457 81575063 775C40871CC038BD 1742E225A44ABF67F633528A3DC71019 0080
724400013010868 89554000000130108681 3030 87132444 4798 74878375 63639D169961AC72 47BD3E7DC76A0743E968BF61A63DB4AB 0100
724400013010869 89554000000130108699 3030 47897484 2225 59991597 7BF8E5A7D7090D97 CBA8B2E06CEFF5697232B21D8BFA3965 0200
724400013010870 89554000000130108707 3030 30663470 6807 89652160 F22620C0CD530989 1845B4B761D1914D6EA4430207C3BA5F 0001
724400013010871 89554000000130108715 3030 89240899 4630 25541529 6D20B5842B3DFA83 01646F853FDF66B3032575C418B4D87E 0002
724400013010872 89554000000130108723 3030 92175850 6183 98970806 64C1A3DD4AF53A64 FA2D331F655FF8E95A7332DCBD8A9A29 0004
724400013010873 89554000000130108731 3030 67808940 6121 58645972 BC084EFAF95B8723 35DBDB46CD45F53F16F5411F7857EB8E 0008
724400013010874 89554000000130108749 3030 02661634 2573 54703808 9691B0BF48DF269D 079F5EF87070D9983B75E107D67FEB9E 0010
724400013010875 89554000000130108756 3030 79558163 6453 44267926 FA4CCFD9F4BF4581 98F7C0AC89FAA59CF8FAE0A68B47A807 0020
724400013010876 89554000000130108764 3030 04312808 0914 44340728 ED790AA3F1B9CB7C FBAFB99866B1C44287A215B6703EDC0E 0040
724400013010877 89554000000130108772 3030 16511496 6531 56731594 3B7B258D3C5883D2 F5ED39A9B365D7F433596F3ACE21A70B 0080
724400013010878 89554000000130108780 3030 40399401 7455 96622144 AF45AFA20006B30F 85BFF9E982649397A0D9CD25CA0A4F95 0100
724400013010879 89554000000130108798 3030 77815980 7345 72055807 3C1E5C0119DCA8B2 C7824701D65815E47F48003A624C667F 0200
724400013010880 89554000000130108806 3030 88206842 6345 42609980 39387F67785F54BE 7A194821C601E5B9D95BE093BE742168 0001
724400013010881 89554000000130108814 3030 21804360 7801 45508172 01B7541AD951713C 7D992D9F4D20765BDF6FC009803D7A67 0002
724400013010882 89554000000130108822 3030 84575823 5448 99724099 865A122DF826877A 5AE0C1B33DEFE7E45EA5FF82C7D5DCC7 0004
724400013010883 89554000000130108830 3030 06732913 3016 12241368 F710019D68ADDA57 F3FF9AF1B738643A9D2AA5DE608C8AEF 0008
724400013010884 89554000000130108848 3030 84183203 9079 78239204 BC03AC70B00860A0 3E0CC7D2A37F97DDB43E5912ABB7CDE4 0010
724400013010885 89554000000130108855 3030 01371396 7006 42133725 79A137D5B519CFC6 3AC24E3ADA701E89AF55D8BC706E1AFA 0020
724400013010886 89554000000130108863 3030 57569764 9351 83619874 B5F577EC517093C8 1EDA51DA7768DCA2629DB96D170A1990 0040
724400013010887 89554000000130108871 3030 85185550 3515 38731400 3746DE20E56F920D 852C7301BFC992478D005701139A568C 0080
724400013010888 89554000000130108889 3030 01783821 4224 51816884 DAA50DFE8E6FB19F B6814BE89B9170017CFA4A3C442A601C 0100
724400013010889 89554000000130108897 3030 89348208 5731 65602113 516A27EA9C13482B F6CD46F7D56AFB56727DF316E09941B5 0200
724400013010890 89554000000130108905 3030 70295256 5713 46731550 518514E4C34A19C1 642FB8D8EB6993FEA00C5587FB2D211A 0001
724400013010891 89554000000130108913 3030 20929880 2910 51698385 6FD11DA51AFE0307 333F3EEDB4CE905947FFDF83E3D17D7A 0002
724400013010892 89554000000130108921 3030 58195662 6701 88431540 37560D94C80C364B 84CE5F51C00662E50B760B215F04359B 0004
724400013010893 89554000000130108939 3030 61222131 2685 76105595 32D24FAB4F142D31 8DE5E4373C84D673C19804F0D11C82A9 0008
724400013010894 89554000000130108947 3030 86719802 7462 89929561 3BBC9A67C5B25310 80D7B34259CC58CBD2343EFAF9929D8A 0010
724400013010895 89554000000130108954 3030 41912879 1052 54339537 1CA95163E38D3642 24CBD00D6381FA36DCA1B260448E71D8 0020
724400013010896 89554000000130108962 3030 16100958 3924 94750257 4E96F530D5BF51A8 7AFEEDBDC6943F5486B839F5C5ED3904 0040
724400013010897 89554000000130108970 3030 52380543 5486 58044324 798B377CE4B944C6 556ECB67F7F052F151FBD213D5CCBD3D 0080
724400013010898 89554000000130108988 3030 69303630 7784 59881781 9039AB063A56DC87 09A93990A9ECDC4849E037E062ACE8C3 0100
724400013010899 89554000000130108996 3030 00705639 4589 03456269 2B1C208B68A1C6AB 775CB704E8BE743D045A869431AAA28A 0200
724400013010900 89554000000130109002 3030 40698153 3930 73122334 8E9557826E1EFD1E 1AC3A56099F50568C3FC4BB14F6D18A1 0001
724400013010901 89554000000130109010 3030 77717843 7697 45274541 81884E3FCAF6E505 DDC7DC2B6C577F345DA605FB0735782A 0002
724400013010902 89554000000130109028 3030 06342077 7632 89898391 C634584804261DF6 BBAC56AA63D818D46901E18AF20839F4 0004
724400013010903 89554000000130109036 3030 58421034 4071 12339669 BF9979CF3575B99A 9A01B9B1435F3C212DB2E7185AB6453A 0008
724400013010904 89554000000130109044 3030 66560275 2276 88440004 0AC76C8A23141E83 B8E44703538F386ABDB607142E0058D3 0010
724400013010905 89554000000130109051 3030 04827153 3007 63910494 6A8ADA9D7CCFE26B 74301B940F112E00911ACBEF2168AC54 0020
724400013010906 89554000000130109069 3030 34860986 2713 36663886 80FC82A3FFE2BBF3 BF53383E3FD600F18BDFC916079C1A13 0040
724400013010907 89554000000130109077 3030 98514631 6015 49617161 E2368970AFBBBF47 5EF4F9C08A41113A54119A23991E0681 0080
724400013010908 89554000000130109085 3030 12891368 0849 61130034 DC07EC3CC61A0902 1D1085116A00DA40E50C3EB5E0EE13E7 0100
724400013010909 89554000000130109093 3030 65044099 5491 25280326 B58A53DE46EBC9B9 1DA61CA78D998AA5B1CB42A252C46324 0200
724400013010910 89554000000130109101 3030 98677942 5313 32245204 7E88A92669B1A381 0C88AE5F999CCD1088309057B8545301 0001
724400013010911 89554000000130109119 3030 91946126 2992 68467227 4655EEA92CD79B29 30756C789B846AD11A22201D6516A35C 0002
724400013010912 89554000000130109127 3030 45892105 5915 51047585 142254892BC1BD9A A9D8620F1FD33C06989A94B807895E53 0004
724400013010913 89554000000130109135 3030 66861996 5474 92569478 0BA278433BEB7C2E 983ADB79E8C995BF145D1F4093758AA4 0008
724400013010914 89554000000130109143 3030 62395876 0904 70231114 C1E1972A76664295 B6B39168073F3AAD0626EDC8BB8878E2 0010
724400013010915 89554000000130109150 3030 05494850 8855 54455621 59933B65657E1542 BD4FB52A81E2BE34706C76D3E274FE03 0020
724400013010916 89554000000130109168 3030 38611306 4857 35815484 EB3D3E1B38C5935B 8FF175802196CBC171E12354CC1D9AE7 0040
724400013010917 89554000000130109176 3030 90788161 9814 47779399 28A387AE86F52D46 6468CEC0CD153B907259EFEA143417B7 0080
724400013010918 89554000000130109184 3030 20915756 6318 93082713 2F6588A106C88731 9E2676E9CD80879955735282FF8D5133 0100
724400013010919 89554000000130109192 3030 63903046 4044 54798948 7A46BF612EBFC205 240C867549F02E00FA87B39007A95B3A 0200
724400013010920 89554000000130109200 3030 15556803 8281 03188681 4437B9DD7DCBC094 C25CBDC739C115880BA31482EEAFE2BE 0001
724400013010921 89554000000130109218 3030 71032671 3794 75309385 1CE58D0F3C78CF4E A4D7BF6A73EA274A4299E7D703FB17A6 0002
724400013010922 89554000000130109226 3030 32347854 4903 04290605 321DA4A47D1AB73D C54C7EF969D401FC3DD2BE2808ACC78B 0004
724400013010923 89554000000130109234 3030 01111106 4860 36435934 6F63652825ADED70 A13D5A1604B3AE2D9BCCDC3596D62C86 0008
724400013010924 89554000000130109242 3030 10956882 6377 09595437 F68F90095B7E7D7A 7C746E185A5877493AA7A46F37ACB1EB 0010
724400013010925 89554000000130109259 3030 27458055 3259 63163905 EA8E53ECC103EDC5 5392F0688071AAD5CA6614FA5C0D1717 0020
724400013010926 89554000000130109267 3030 11032715 5221 16315709 C222E306DD5AB55F 9536B608C4718F35360C5E7369681A0F 0040
724400013010927 89554000000130109275 3030 87183643 3468 82594637 93139F0997195E40 7AF0B3814C6F1A64100A73E59DD6299B 0080
724400013010928 89554000000130109283 3030 46935546 6614 84361699 C0AB7C72BFEF4819 D60A00C9659EAA6E10D6863E95FB35B6 0100
724400013010929 89554000000130109291 3030 31442782 4556 77722722 E5A90866AD976304 1FDDE311C5BDDCCD6C8861D85F13A644 0200
724400013010930 89554000000130109309 3030 22490436 2855 58266993 1BFBB29CED8EF1E5 24572EF49A290E55197942E25AF58562 0001
724400013010931 89554000000130109317 3030 90011335 5585 64828605 3921E22DD7887D2C 254379B783A451143A3D0C199ABDB40C 0002
724400013010932 89554000000130109325 3030 27816697 1634 47079799 3EF02D39EB63231B 304A17E1A1C6AE9155397E86A5230B99 0004
724400013010933 89554000000130109333 3030 88868078 5103 78704911 90CC7ADEC445310D 1DD21466D17B7B6E5BD9B76752BB4C66 0008
724400013010934 89554000000130109341 3030 99621148 2081 76628026 A9C36797F3744F5E 394D5AFB777A06D07FBEE97498335FAF 0010
724400013010935 89554000000130109358 3030 61115626 8094 96133748 460B0E2CB997B70B 1DAD058B84C0E79F407A66353BF47757 0020
724400013010936 89554000000130109366 3030 33708736 0327 69567949 A0111536C73A1B50 266A8187666AA1EC3B744BF2FEFC559A 0040
724400013010937 89554000000130109374 3030 71543317 9964 11637683 67E7934E45D08C91 FA268FC9DFE4606FA02397CD2981CD36 0080
724400013010938 89554000000130109382 3030 14070801 3574 33189986 C7B828215C58A489 5ECB405D74D0E740B10A48D9418E7422 0100
724400013010939 89554000000130109390 3030 49351310 7002 05234867 66ADB833EF0197A9 829A4EE2970E6613249BDF9342D6CB19 0200
724400013010940 89554000000130109408 3030 21455738 6325 36251390 98BC86221F215210 7EE5EAAC4C7CA5302CE44D9E2EC63D8C 0001
724400013010941 89554000000130109416 3030 92255281 6243 68225712 52D36A98921D0164 90530411FCE22ABBD667F8A09EAACD8B 0002
724400013010942 89554000000130109424 3030 64204145 3612 45291865 C30096A4AA461DB2 16F78B4696545470A1800AC6C61524D9 0004
724400013010943 89554000000130109432 3030 06117745 0646 53197560 514E1BE32429D47B A7A42798D544DE1748D2851A1F15D2AA 0008
724400013010944 89554000000130109440 3030 29557800 3882 41556781 C9AA95185C801E08 6946A3EBD05A26974157143E7C32A1BB 0010
724400013010945 89554000000130109457 3030 25022123 6543 15518076 201F7B8F369F2265 477E130D683870A7777452B28EDB317E 0020
724400013010946 89554000000130109465 3030 67864767 6132 26893571 4E85C0481F549557 1F26A09798E8D6A57788343B88B8CDDA 0040
724400013010947 89554000000130109473 3030 97149628 1780 84855484 6C7D0702BD3B70A8 0CE298BBD1C3D79F1985B27566628A00 0080
724400013010948 89554000000130109481 3030 69045686 2348 90561466 1DCEA3412739688D 10B1E7670353FA92411C9685FFD0CE3A 0100
724400013010949 89554000000130109499 3030 20162526 4721 68310401 1EC237EBDAEEDA46 A31B3093F6A9D84E7F289146181F9193 0200
724400013010950 89554000000130109507 3030 88903351 1211 39844681 25F48543F82E1CAB B4C463BFEB785F1232756DF472D7C6BC 0001
724400013010951 89554000000130109515 3030 17821452 7647 85680749 209825A7C26C2BB6 CECA10E423A233FE45829B5545537E26 0002
724400013010952 89554000000130109523 3030 38576806 7644 56992453 EDF30D5DC07F4671 AE299DBF12E953782B62A7D393D2DB13 0004
724400013010953 89554000000130109531 3030 83346096 8822 23434436 34B32053C05F39FF A544109A560C2F7F8CC9B249C710203B 0008
724400013010954 89554000000130109549 3030 30569898 9705 73587288 190D572791FDF8C3 6AD521EA14EFCC5F5A64DCA53C223423 0010
724400013010955 89554000000130109556 3030 63092874 0709 60829539 42939742F0A787A2 18E17B1F21AB810F573C81238E3E6462 0020
724400013010956 89554000000130109564 3030 22631964 9585 83513907 BF59CF568F46C4E8 2518E4077CDB2412A0DDC522E5DFED47 0040
724400013010957 89554000000130109572 3030 88913245 5781 53283904 EB567FADAA6DBF16 00D5CA40E459ADE992ED2CC788303688 0080
724400013010958 89554000000130109580 3030 42545620 7414 18687348 97ED584B52540615 14713E29302357A5C4AE7647C012BEB9 0100
724400013010959 89554000000130109598 3030 11345887 4965 79576478 94B27A4A3F8AEAE6 8FB3A1B4B4521653162B7185AAF4C3E1 0200
724400013010960 89554000000130109606 3030 65915692 5178 75375615 8EFE495EEEAFEF20 02AD8A8CB577BDF3A365E0883F9A9055 0001
724400013010961 89554000000130109614 3030 91854420 7029 45196823 BD429AF131AF684A CDE3D42DA413CDDA1D04762CC7F28960 0002
724400013010962 89554000000130109622 3030 64875719 3910 96858904 03D5854DC7BE2F33 40323A4775C1064153012F58EAAEB52A 0004
724400013010963 89554000000130109630 3030 00905753 6271 89025905 B60A2FEA6A9AE4D9 4D49FD7AAD661DF58ADCA82A885F1B02 0008
724400013010964 89554000000130109648 3030 80305519 8627 83259090 E5C846A9F0F72947 14607D91C95B38C0D1947B6D3C60F14F 0010
724400013010965 89554000000130109655 3030 47447394 8644 72015414 708C75D36AFA9EF0 0F0119453DC1741907CE155C2A36617C 0020
724400013010966 89554000000130109663 3030 39295925 8661 36633921 D9D4BF2D5557E015 F8F1CF9D30220882B60983B3CC779525 0040
724400013010967 89554000000130109671 3030 66675825 5482 50541550 BBCD17ED55644973 F3CFDABEDABB7E656C69FE6110F35710 0080
724400013010968 89554000000130109689 3030 52688034 6429 14733839 3781D00E4533A7EB 9D821C119DD3AC774701D4FAB9DF5285 0100
724400013010969 89554000000130109697 3030 16561528 2339 05567642 EDCF4715525A98C7 1E8AF933F325B4BB76E643AE67BF1300 0200
724400013010970 89554000000130109705 3030 67149996 8805 36700664 399E46D7A76EDD6C C54CBF7DB364ED602C8AF0F6AE5012C3 0001
724400013010971 89554000000130109713 3030 08397140 7772 11091851 45E4715EFEFDDD13 10C69C939C23DA92F56791173B513F17 0002
724400013010972 89554000000130109721 3030 21185429 2291 05030475 AF4ADD20F7055090 1DE418CA472F0EE151662DA4AFE8BBB7 0004
724400013010973 89554000000130109739 3030 38410015 6702 70460526 2A07F5AF28FB031A BACC67B23BB5F4FF5650A9BA4A95F77A 0008
724400013010974 89554000000130109747 3030 44983861 4945 52716222 74D78174CE6805C3 34758A2F6942F5608A701E9F1B598803 0010
724400013010975 89554000000130109754 3030 92769115 0232 14131639 199173B57300562F BCF8F8DFB0DA69624C484D497CE9D9D8 0020
724400013010976 89554000000130109762 3030 16071374 4821 45851721 24D1BBAE67904F9E 94785F7CB8B55988BD565AEEB2D49409 0040
724400013010977 89554000000130109770 3030 34836429 9041 36655885 F724E2BE8EC7DB45 F1F953859BF1660BC328111086B0C0B7 0080
724400013010978 89554000000130109788 3030 24960776 5600 81307150 9FAFA408CD580E02 3971003931CD8033E6EF9B1FAD7255D3 0100
724400013010979 89554000000130109796 3030 31330035 1250 88248405 32237D35158E914A 701B861054172ADF8E94B0E104D3B60F 0200
724400013010980 89554000000130109804 3030 12796444 1315 73729913 2D085CB24772DBD9 12B53917059B58AE9C00896554A762B4 0001
724400013010981 89554000000130109812 3030 42608668 1495 36616704 49EC0FF038FB1A1F D3DF4CD1F0BD706F4B1A162423C577AC 0002
724400013010982 89554000000130109820 3030 39929610 1785 75663244 B12FBEDFF490E835 9785AA8DB3E8E82C55A2BFCE8730109C 0004
724400013010983 89554000000130109838 3030 77374796 9020 14111510 DC60BE3924D99542 483A6021AF412BCFC080B08876A38123 0008
724400013010984 89554000000130109846 3030 81328530 0804 08079715 B57C4E4C7536E926 FAE73BA1C670CDC0EEFE3640B001AA19 0010
724400013010985 89554000000130109853 3030 31976924 1753 56082085 676E1213F3C8310D 28AF62A2C38590384E379ADB2E6A8682 0020
724400013010986 89554000000130109861 3030 08982170 6822 03224075 E645547F4E59C998 D7A468D44A6F8C5C229D6B4AD04CA854 0040
724400013010987 89554000000130109879 3030 14129383 2035 20574869 751D02625283543D 8EDB5512039821FE423AB3095D220154 0080
724400013010988 89554000000130109887 3030 34392826 7564 05740949 99938AFA91997638 3F334F212E639AF1869DAD5FF1EAC543 0100
724400013010989 89554000000130109895 3030 62954081 7766 93531094 4990768D6FF85F4E 4F5BD3F0C79D3353A3D8EEDC87E98397 0200
724400013010990 89554000000130109903 3030 69364300 3247 36459092 F4F4233559D9F5DD 3ED529F6E7D3EEED602D2AD52ACA7568 0001
724400013010991 89554000000130109911 3030 59472358 1883 27983072 40523658F1A4DEA0 DBA51FFFFE0F124ED36FD40E0E4E6683 0002
724400013010992 89554000000130109929 3030 50321741 3370 09721673 57EED23144620E52 986AE59710865A89BD6040C74043E9DE 0004
724400013010993 89554000000130109937 3030 77963764 2525 03947165 FF662D7090CAAB7A F6670EFD4460443E2B8B7BB01E38831B 0008
724400013010994 89554000000130109945 3030 10376091 0749 61093809 CC32D76F6435BF74 F2796C030A136B5E9E7A8E8696AE0E55 0010
724400013010995 89554000000130109952 3030 28204701 5515 68496269 98E12CB5753B20EF E90879C9C4C34490C001D0790EDC0BEB 0020
724400013010996 89554000000130109960 3030 14753940 0970 21915746 AD0CE2438F1BDE87 01E1E2AAC5E860E9F05E142D499CD1B6 0040
724400013010997 89554000000130109978 3030 57564243 0136 90019650 667238054DA505B7 573AB614E054D679B222D996DDBA0C92 0080
724400013010998 89554000000130109986 3030 84310610 3630 75886973 37B6BBC22F0E76A4 F55A8964ED7D9A5C3F8C5246D62793B7 0100
724400013010999 89554000000130109994 3030 22548579 3950 17912329 C25CB15323DB582D 856649527FA62F41BFB175B98ACA03F9 0200
724400013011000 89554000000130110000 3030 78525648 6500 50023515 29D7ECFE7162EDD7 60ED264D419D996861DA95A343214240 0001
724400013011001 89554000000130110018 3030 94041366 6732 91355989 0EC82885B93B52F8 23D9616C4F4CECBD6D2975FF00D677E5 0002
724400013011002 89554000000130110026 3030 97434072 5639 17662554 B5EF73AAECE9313B 383DDE0C21B49E7D3B1C598A24B15E74 0004
724400013011003 89554000000130110034 3030 85322268 9184 41189426 F58925C4F32F0462 2D6E80E407C790AF8F9D5915DA7F6308 0008
724400013011004 89554000000130110042 3030 42234202 9291 67644219 4D563FC47377E1CB 59539EA02AAF30F391BD5B9A778A4564 0010
724400013011005 89554000000130110059 3030 57652307 0983 91652817 78CF454821EC5C68 D914687344A0075D6DCC15A15D44E24E 0020
724400013011006 89554000000130110067 3030 79900268 2552 85754635 4AED917A51A84148 2B3415A0AAF714FC0563C0352829FBD3 0040
724400013011007 89554000000130110075 3030 41426232 4131 04045268 AF4F7DED65744BBC 7D715FD8714CEE1B9885BBE2679C5FD2 0080
724400013011008 89554000000130110083 3030 67977250 4680 94227209 9F9BFE280D13CEDC 0BBC027F642276EDF8BF56831E644865 0100
724400013011009 89554000000130110091 3030 05700828 5523 14536364 5B915E14816CFF86 05009718E391057582DCD8759B513288 0200
724400013011010 89554000000130110109 3030 42264510 6261 42290388 DAB2AD4E04993E06 B7C7BC58D76584AE854168AE5204483B 0001
724400013011011 89554000000130110117 3030 15980540 0540 79683554 612594000284A647 3ACD7ED7CB69ADC88F2816F8E4150E36 0002
724400013011012 89554000000130110125 3030 71069325 1972 92156638 AF7107884E8C348E 86A549105C2F3672C18F7FB2301F09D9 0004
724400013011013 89554000000130110133 3030 19131394 2928 23196917 DEF1711664ABD785 2BD7BF84646113A2AFDDD23E1A3D828B 0008
724400013011014 89554000000130110141 3030 61025859 0435 51054425 43D373E29C084FDD 6255A7D7424A9286931F3741728E581B 0010
724400013011015 89554000000130110158 3030 88537860 1546 31272858 B0864A9C2AB1CF26 DDE663A817A77F098A70155B7304377F 0020
724400013011016 89554000000130110166 3030 07996362 6352 08140982 BD9984D69F480C77 81DF68C6BC0073D76FB8B20911232968 0040
724400013011017 89554000000130110174 3030 21568843 1111 29722657 3FFEC60ACE63034B 2048AA6A0A8A306F8C1E20D8CD121170 0080
724400013011018 89554000000130110182 3030 06022739 5346 60969507 08BF937F900A61B1 E9C463F3A06BC8F55DBCBE346DC152A7 0100
724400013011019 89554000000130110190 3030 81337916 0920 02366141 55C9CB9195DA24BB 6D1707F49E3AC66EEF08101764FB1A90 0200
724400013011020 89554000000130110208 3030 42265254 8407 74185509 124BA2AA7D954FB0 9138B89C45EB53A467152370D4A9D91C 0001
724400013011021 89554000000130110216 3030 88535892 1584 66242805 8067DE284388970C 7F96D142CB23203AEC81E8D2BE912F18 0002
724400013011022 89554000000130110224 3030 02082337 6697 51211023 6FC722FF497B311B 5B4EE017298FEC75C30303007C1C1583 0004
724400013011023 89554000000130110232 3030 95444952 3652 52821328 1253D833AFDAD907 048E6E65CD1F098F4BC144340384BDFC 0008
724400013011024 89554000000130110240 3030 64528523 6364 40506087 42FEE671A7593E71 460EDC53B9E699D9F56461A7FD1BD647 0010
724400013011025 89554000000130110257 3030 42791443 5553 56919097 C09B88993016E22A 8CF918245E96AE7A5DA2D5C852FE807A 0020
724400013011026 89554000000130110265 3030 94604493 3943 74104270 0F36E234DF8C1B6E F7D42C8F42585ECF65E29462AB09DC50 0040
724400013011027 89554000000130110273 3030 46168578 7488 72985505 A33C705FF9D7C73B EAE048DB07CC313543E8D9560C5DB000 0080
724400013011028 89554000000130110281 3030 16225888 2465 94406835 906CD7955F55F1B5 375F07BF3753AAAE20F865708ACF706A 0100
724400013011029 89554000000130110299 3030 62883343 9347 29331467 29643F4E3D33EF35 242E88DC36E1EB86094CFF9E7AE00B89 0200
724400013011030 89554000000130110307 3030 20240093 9528 06315531 C2A7E6E0D8E67C8D 79B1F2B4CAB8E3A130C46EFD109D152A 0001
724400013011031 89554000000130110315 3030 33836004 3702 16296161 EEE74D9E0A53D775 0D0A12AD301FC6E572FFC24B28A54D47 0002
724400013011032 89554000000130110323 3030 99596443 6926 33212899 05D056846F9B764D 94262BE5427D1360E27D06C6C1ABA5D2 0004
724400013011033 89554000000130110331 3030 07820213 5322 83110885 F96D08DC1390FD0F 941318CAFDBF063786B2D5A802A19CA6 0008
724400013011034 89554000000130110349 3030 01494510 1048 60201611 58984CD46477FE33 684487CB6AF4BBC31D5DEBCFDE84AD1B 0010
724400013011035 89554000000130110356 3030 51734422 3391 42154095 73160D5CA31EC6EA 76A855648EC5A0219527C1DAF5FF2291 0020
724400013011036 89554000000130110364 3030 19890723 5126 50323850 9E96D1AE4D37159C 404F5BEFDA0BF0ECAC370B0018F994E4 0040
724400013011037 89554000000130110372 3030 19300838 4546 53059408 16FD5A2E51C9AE0A B6440B50674405EC3C979B54CDF99B26 0080
724400013011038 89554000000130110380 3030 46044646 7786 94047076 1297B15CB7221FCE D8CB38C16F312E1594F11AFB0D7A9E26 0100
724400013011039 89554000000130110398 3030 81663966 1464 29730034 150A53C27C39FA2C 20CE1F65554E47AEF9FBA2D5FEE2A9AC 0200
724400013011040 89554000000130110406 3030 94435780 7115 67890617 C35135A876B2539A 1B0FA92C4A16AA58A76EB0D345D08206 0001
724400013011041 89554000000130110414 3030 34967790 0288 50285480 C65B019F69772DFE ED1F05B9A1EBDFD19EF5AFB49264FF55 0002
724400013011042 89554000000130110422 3030 12280275 3152 59870034 89B5E3542E77EBEB B23919FC5FFD8D304F9E965CE6DBEF6E 0004
724400013011043 89554000000130110430 3030 39588173 1280 89997252 8B34CA513109388E 6D3BBD9E844F0001B835C5BD653D4DA5 0008
724400013011044 89554000000130110448 3030 62828718 7449 73940067 3D8DA64281A3A5C4 83C715C77F192B2B57DF913AE01410C2 0010
724400013011045 89554000000130110455 3030 65094380 6375 20059623 F70F9D2548AEC2F5 7948748036771D5A5AB9C9AFB119279C 0020
724400013011046 89554000000130110463 3030 09602916 0224 39935770 77A921393F4CE7BF 047FEB535812907D069DBD09E5CE4E14 0040
724400013011047 89554000000130110471 3030 99394962 1418 52595627 3AAF9445361D5995 64E1DBD30EE38F68E2C20477718A32A7 0080
724400013011048 89554000000130110489 3030 43501682 2444 14289135 1BCC4232B95563AC E366DA2BAEA1C853BE9DB0DD8206537D 0100
724400013011049 89554000000130110497 3030 65562466 8906 35213018 14AC4ECBDEC5BEA2 1A3DF585B859A5F4C4FF662AB517927D 0200
724400013011050 89554000000130110505 3030 19359485 9263 82911346 FAAA6B838D9B1FB0 37469DA24E4A0E6F147FCF8A5632F3FA 0001
724400013011051 89554000000130110513 3030 36842711 9990 98476425 F69D3BE3A338F9A5 9164F74FF7208114341A5F8058568388 0002
724400013011052 89554000000130110521 3030 21879767 1613 32229102 E636A58044980EA3 849C958125DF4BA3629520F8405CF2BC 0004
724400013011053 89554000000130110539 3030 81633013 0410 81527428 443178A7CFE3F99D 429BD044C605BFD1B3FAF8078CA7373E 0008
724400013011054 89554000000130110547 3030 70514199 2132 58264289 3740AC418699E6EF F379B8489034EA241DB28EACF2F1DE4A 0010
724400013011055 89554000000130110554 3030 29021121 0416 22563728 2B7F1FEF3758C6E0 6C7EE6ADB4A6F0DBED5359E414859EA4 0020
724400013011056 89554000000130110562 3030 54435969 2495 73166741 B7A0117882BF58A4 055EE4EE4E84128BB4B340BFC892CFCA 0040
724400013011057 89554000000130110570 3030 54045129 3306 45782710 A03305C436CDC5E2 40D70DDAC743A05B74094D5B84835B09 0080
724400013011058 89554000000130110588 3030 28247084 4463 58568278 D268C98D6E66F692 3B38350FD71DABB3B6AAB23B6FE0D176 0100
724400013011059 89554000000130110596 3030 47281042 7838 39273386 F0B61B5FD016E8A2 348447F5586EED1E27AC7EBBC79A3821 0200
724400013011060 89554000000130110604 3030 43004283 5579 78681611 B84E580147946E75 716FFCEA59933628A8B489C99A582234 0001
724400013011061 89554000000130110612 3030 99317011 9488 36097977 E447821C9EB1D087 D2011B59DCC7921F23D534C765B6C483 0002
724400013011062 89554000000130110620 3030 37931000 1129 24072221 C723FD1DDB59FB6C 4E2025EA8964B6771DCD675D8DA2D992 0004
724400013011063 89554000000130110638 3030 86668116 4145 57488357 DEF3FA2FF42957DC 51F5430D7FC5DB3A5DF271507950370A 0008
724400013011064 89554000000130110646 3030 06664341 8429 90958959 2159137494656773 1DFA6A229748A7124C7F5BC1CACA0C24 0010
724400013011065 89554000000130110653 3030 08839099 9117 72617813 BFC2761059128F03 C334FB53DA4E5E2C9ABF02ADBF5FCD62 0020
724400013011066 89554000000130110661 3030 91091238 5983 32876622 DAD234F9D827263E C9EB404D1DB6272A747422AFF98F03BE 0040
724400013011067 89554000000130110679 3030 12426363 9291 80508573 730FE8F7E930609B 67EA659257C84F2A2F364FFD81971850 0080
724400013011068 89554000000130110687 3030 91390846 3213 61859103 BD9AFC20BFE7FD57 A5E2870CB1FA0077355ADBDFE3E615EF 0100
724400013011069 89554000000130110695 3030 76026879 4877 65530318 3D5CB6E5D13F591A D376BC55FE0C5E6D8AC8F70ACD57096E 0200
724400013011070 89554000000130110703 3030 61251612 0073 97712246 1B51F4658D78BE92 391440DF30A81EA1525FB589AABDB6FC 0001
724400013011071 89554000000130110711 3030 38096002 7280 14545632 11F2F0DB0D7B7CD0 5F7226D6480CC82E48C4CA00148F6A24 0002
724400013011072 89554000000130110729 3030 83344047 4803 05522274 DAED3E151BE7C751 44951F6AF9E112E88181B3A29D88676B 0004
724400013011073 89554000000130110737 3030 62471840 8879 95370966 2974DA722CEBCD1B 5AD482989805B282FF57E95128D6C61F 0008
724400013011074 89554000000130110745 3030 13164957 8184 00447184 CF4F0F04FFDF6AE1 ED8660ECD7A077879C8240521735CBA8 0010
724400013011075 89554000000130110752 3030 49302552 6100 20829958 6A936AC6A1413586 DA33AB32CB48956AEA05FAAF001466A7 0020
724400013011076 89554000000130110760 3030 20905433 5643 26391734 5C5F1B1693E9771A 9ABB5F27ECF0ED2422EA73E9CC627D6D 0040
724400013011077 89554000000130110778 3030 97720860 3356 21222846 3A20FEE6907B7EF8 230D41E2BD72393CC5B9685BC6DC598C 0080
724400013011078 89554000000130110786 3030 94727925 6518 60444942 57BCA9E96CEF1F89 049BEF9B151CF81E479AF49914BEB4BA 0100
724400013011079 89554000000130110794 3030 23309647 8529 55779137 4736E407D92051D3 88E34F39E26F79CFAA63E23B73AAE4FE 0200
724400013011080 89554000000130110802 3030 43331298 2608 31908865 B4B8FE140FF5E21D EAE4A3185A356A8AC58EBF314F620061 0001
724400013011081 89554000000130110810 3030 04197977 3848 04581707 85B556095D176418 F0720FCC515D4E740E7B59C4E9AB9A23 0002
724400013011082 89554000000130110828 3030 26942987 3855 74400288 5467EF7E5581D5E4 A986F46B6D56A511D5149961C24BAF06 0004
724400013011083 89554000000130110836 3030 11353150 4921 37243325 81F121B40BED6C4C AB60C14E87D810DF2894765185B16089 0008
724400013011084 89554000000130110844 3030 24413813 2522 07127025 04FCBE2927355809 231331CE8F628FF2B798EEC5CCEF1DAB 0010
724400013011085 89554000000130110851 3030 91477433 5714 55515843 34D728D8BC859E5A D600AD17E64C33FF83E69CD423B9252A 0020
724400013011086 89554000000130110869 3030 95265229 1251 45399965 8906B6451C8959A5 2BC7A4C23B2561BA0169229D8AC771D1 0040
724400013011087 89554000000130110877 3030 03482255 6095 63349711 CD0F9FA9AB885686 2E8CA4781671CDC0CDC3815747369258 0080
724400013011088 89554000000130110885 3030 14570062 7410 73269024 907DE1786CCE9382 1D7719416C9973FCAB33135F3E710C73 0100
724400013011089 89554000000130110893 3030 03939800 8517 66926933 B3BAB7D1544A5FE1 E09958836E19985FD60C40F147F5F5BA 0200
724400013011090 89554000000130110901 3030 27610171 2239 76507755 903B1DA5FE88A3BA 439C098F99A1A13CA1A622E160B3ABF0 0001
724400013011091 89554000000130110919 3030 29164999 0835 65752961 DD1046DE1163D16F 4D2F75F89F31FD55F39CA38CB2A87768 0002
724400013011092 89554000000130110927 3030 44174207 9378 56433210 F54E4E4F282A6B83 745D9ABED6826D59ED7EC7601C00B15C 0004
724400013011093 89554000000130110935 3030 23725113 2262 06849088 BB6DE1E9E2770553 572CADB73B90C6B46CF1C182672380BA 0008
724400013011094 89554000000130110943 3030 75607817 4506 72926327 02392175AE763AB5 9F1411EE82EDA7523EEBB4D1320360AF 0010
724400013011095 89554000000130110950 3030 55520561 5397 43377886 374F9687CCE0DC24 93CF80A2F4275539FE42C21755CC4B62 0020
724400013011096 89554000000130110968 3030 32046671 1357 02462754 79AFF2AFB71247C6 235DB5109A9E5670F635AAA5BFF5F5B6 0040
724400013011097 89554000000130110976 3030 83932410 9531 78357646 E81313BA6A08ACEB 9ED8D6AACBFC43ED8183A3343A21BD4A 0080
724400013011098 89554000000130110984 3030 42332528 1882 65007804 0B1C16122D4F881A C1B9A4BD793E42B8401B6778F0ED284D 0100
724400013011099 89554000000130110992 3030 64714353 9370 59920960 AB80B66C0EEF63ED 2B21DDAD7339F14E1509305FA678F314 0200
724400013011100 89554000000130111008 3030 48752245 3368 88917991 A3640FFA93A521D1 F11085CF099C7556B5E8A2D056C027DF 0001
724400013011101 89554000000130111016 3030 34982216 2177 24150353 85D2995C8DB3C033 D988F9CFB06DAEDD68BEE4F06C1C6FA2 0002
724400013011102 89554000000130111024 3030 07243572 3743 87224877 75E494AEF0C267EF 408014892902F8D173F5C282C4BA8B91 0004
724400013011103 89554000000130111032 3030 71271201 4935 50292964 6FAF33E619788A39 00E5BC6F5B218C51B2BBE9BE04A0C77C 0008
724400013011104 89554000000130111040 3030 92672719 4717 40593207 5D86E699E99C9DBF 935E75DAAFBA8BB6F830134A158F002A 0010
724400013011105 89554000000130111057 3030 30433132 0443 10760675 16FD72B00C762358 C8F7D5E1D523A01F693A86EB6B3B1A87 0020
724400013011106 89554000000130111065 3030 53955434 2007 70226915 E058DD647D98FEA7 B8762C4D7825544A10585D7BBC25D2BD 0040
724400013011107 89554000000130111073 3030 63161393 4335 30434600 951C03F7DC917EBD 4ECD5BFFEF6A57325642CCEBECE5A1CE 0080
724400013011108 89554000000130111081 3030 49285859 0795 87879372 0C3E53B7EF99F547 66F48F57D492274EEDC5E404862FFA8F 0100
724400013011109 89554000000130111099 3030 68511198 2525 06921414 C69F0A37A9B832ED 49CE7107D9AA46E903769489ECF502F9 0200
724400013011110 89554000000130111107 3030 51649700 9444 42506345 94A4D90E8B28DF75 F5C5D71861F63445C490BC2763164F4E 0001
724400013011111 89554000000130111115 3030 72773021 2279 40141960 9952318813C6B2C6 7F61331E60FD6951015C1A7C3062E7A0 0002
724400013011112 89554000000130111123 3030 20999871 0098 39164974 F2A9965F9B4F6A8A CE7C05C9A206791EC6B0F673DBE381E6 0004
724400013011113 89554000000130111131 3030 81606744 5808 14086270 3057A19C30E410D1 E79E371504ED243FBC300B3A68E43500 0008
724400013011114 89554000000130111149 3030 18296932 8884 26032372 0D0425B5E8AFBB0F 9B20B631BE6D951B8248224F639B63B9 0010
724400013011115 89554000000130111156 3030 00155264 6747 25452468 97F29C2C55B55419 D412B2978B743805A1AAB6E8E97191FC 0020
724400013011116 89554000000130111164 3030 75692875 2938 30217185 B2F1C80B3347798C F4BD50C2B08A06A52FFB052586F67304 0040
724400013011117 89554000000130111172 3030 43496610 8155 54999261 60AE466E584A8A27 1CF6E911B806D622E96DFF6CE91C3319 0080
724400013011118 89554000000130111180 3030 24411731 6266 22782250 DBCDA2A17C3FF69F F36313A64F74E5587C7F4FBE54DCE16E 0100
724400013011119 89554000000130111198 3030 48303284 4243 15069209 6061B00AEFF784D8 A39C13445FFE709DF84FEB3EF67E58E8 0200
724400013011120 89554000000130111206 3030 92512029 5442 54164576 2EDBD248C7C6BC36 2C5A9E3D085C2F9CC3D494832984468D 0001
724400013011121 89554000000130111214 3030 04121182 4979 92849727 795BDA41FAFEB09D E02C19D704C9A6AF66937175F4AA2518 0002
724400013011122 89554000000130111222 3030 86035510 5371 33956225 C070A7852B6A224C 813D6C5F5A3023DE5C3A9E526EFF9C11 0004
724400013011123 89554000000130111230 3030 64242282 2210 93299985 26F77DE0BF95F3D1 BC71D54805F3785542F680D7E09C4156 0008
724400013011124 89554000000130111248 3030 38352687 4706 10488154 1F27EDB5DB505A8F CA10B12ED2BE80542A3D72284AF997B2 0010
724400013011125 89554000000130111255 3030 89840603 4727 25923394 4D9B104F48C643C5 8E69B1A94B05D7CE47D428D9D320FB67 0020
724400013011126 89554000000130111263 3030 47379364 6822 53942021 DC6476AD6BFB2ED0 0B9B3E7ECC9A76F392E4DE07B9AFFB94 0040
724400013011127 89554000000130111271 3030 99840913 7573 17824267 83B6083060E2A52D 9B140CBCF47569E7E399A49F4B0F8808 0080
724400013011128 89554000000130111289 3030 51148227 9436 76841737 D1A7CE52612C203D 6D5ED3D3A4518B72BB22A6E96F9ABE6F 0100
724400013011129 89554000000130111297 3030 42576550 3770 22542102 A6EBA3F96DD7941D D3E4B94C66EFF6AF4D3D9F0B672DA900 0200
724400013011130 89554000000130111305 3030 12649169 2865 81154572 750564E93B05E4F8 7BD4FDEDE3E4C336C8F271611F81CF42 0001
724400013011131 89554000000130111313 3030 64792795 4240 90012487 F482CDE081427F94 A174AB67B7B86FABBED44610EF100243 0002
724400013011132 89554000000130111321 3030 90246487 5270 91311216 2DCAA10B6B997FF5 53190D41237392876654D47F5498F3D0 0004
724400013011133 89554000000130111339 3030 87856656 0771 83926863 EC5D13B39A5C4DAB 09A8BE376668DA25AE689423A3466BE8 0008
724400013011134 89554000000130111347 3030 60073641 1679 75210911 9DAF39B946E7E038 D4B1C2D29E23268444302B881B7330E7 0010
724400013011135 89554000000130111354 3030 06839358 0283 84280683 9DCB776B4E76419C 202DE4831FDCA389FEFCDD184CFA2860 0020
724400013011136 89554000000130111362 3030 02484234 0897 59286061 C2AB321A0467C738 F4F4D014DEFC2628031207453A5311EB 0040
724400013011137 89554000000130111370 3030 33394470 8750 21642748 A4A54DB36C681E3A 0B6F4DC6D39B02EEF598F1B43CA111DE 0080
724400013011138 89554000000130111388 3030 88461611 3520 46588102 1A6E49D40AF0F272 BB3A5C9BC29CFEEFC3E1D1477A1EE7A8 0100
724400013011139 89554000000130111396 3030 82528158 1378 88794068 EFA7F8BB6DFE66DE 8BE3FB091C20A87BECAF53FA1DA88F30 0200
724400013011140 89554000000130111404 3030 73756034 1757 89233464 12C5E519EBE04423 E06C689F9055DCB5732720955D82F91D 0001
724400013011141 89554000000130111412 3030 34889915 5600 18115326 85668D56D423BF1F 507952F3DBE5CCE80CD55BF1226B60D6 0002
724400013011142 89554000000130111420 3030 29989632 2404 80009880 F486357DB210255E A4832D6AC40919FF835A53BDCACFF43E 0004
724400013011143 89554000000130111438 3030 11929485 7698 98296807 37BF3AFAC8770217 57C343D6207120D8FA26555A28DEF010 0008
724400013011144 89554000000130111446 3030 03747803 7009 90861829 98CD5A44411F96C0 6C2C91D2CC2CE57896B108DC1DCF8014 0010
724400013011145 89554000000130111453 3030 30108828 5810 12231931 371FC3704FB44570 9E86CD1CCC92FE8D767AC758FF7FF140 0020
724400013011146 89554000000130111461 3030 56331156 4553 63265855 84BBB160E2334027 3F2D20ADE5BD3489F299E1B6701F2433 0040
724400013011147 89554000000130111479 3030 89822906 4596 98586800 09C7C92923A8ED16 598E9A6E3921A5AE2307153ACF84A059 0080
724400013011148 89554000000130111487 3030 45173822 9813 58379632 5297FA6719A2DE09 399C51146C19AAD4DDB4C60D96E5F2AF 0100
724400013011149 89554000000130111495 3030 81884114 4213 14395381 9BECE4025CFCDA3F F1DA764CBA8E436ED733701536ED37E2 0200
724400013011150 89554000000130111503 3030 73085412 3652 78254020 549D4BF6FBB0150B 65B00377260FC227844E8DCB23F1FF42 0001
724400013011151 89554000000130111511 3030 75803129 0203 30454869 1FE56153E6F35F04 0DE2CF04448EC5497CE6D7E15499F55D 0002
724400013011152 89554000000130111529 3030 32718112 6975 40399433 E1BF9FE9DAB5E843 3C8859E9444EB008BF2FA3AA8FB00FA8 0004
724400013011153 89554000000130111537 3030 26238122 9158 63029304 19BD6484B0CE5C52 49725A3D3F5C6FC8CF24E6725CC47725 0008
724400013011154 89554000000130111545 3030 12648783 4621 62329086 623B535611377192 009DF26F35FE16607E2FF7EDF38CE3E7 0010
724400013011155 89554000000130111552 3030 96111092 4966 06672783 836640486D135005 D9666FCAFF0F954FF0918742371A31B8 0020
724400013011156 89554000000130111560 3030 87208248 2596 76917136 67D3561D86B15087 30DAD7B0824F6660BC1D06179AD0D1C3 0040
724400013011157 89554000000130111578 3030 98950307 6855 64195725 4FF12D99517FAE59 7664ED7CEA255DC0C775ABEFBABBEA2A 0080
724400013011158 89554000000130111586 3030 67149388 7622 10934486 8C51C38FDD6AE280 7AD67F4F89FE2803FD8F9E76E4389EE2 0100
724400013011159 89554000000130111594 3030 59478485 3914 91525590 271BFBD13F0F13DC EC5EB71E2834F6929171FE4A10CD0F6F 0200
724400013011160 89554000000130111602 3030 54167487 8651 35485788 CEEEDE43F2587066 1031AC98C157404BE729F80F788FBE94 0001
724400013011161 89554000000130111610 3030 94342849 0054 60264495 D0D3E3E87F983F4C 1719FDF67DA25080B81DCC9668EDAB40 0002
724400013011162 89554000000130111628 3030 34697747 6361 68183741 812C540F55F9E03D 7DB8A1B8C86585C8D2DC67772B21A7CE 0004
724400013011163 89554000000130111636 3030 52093657 8846 34707468 2C152B6BB330EC21 B0BF5B0DC49584815A0EED6DA6D0087C 0008
724400013011164 89554000000130111644 3030 24846086 0097 25206006 13F2091C388748F4 5665A185710893DE9F80101B91344D09 0010
724400013011165 89554000000130111651 3030 46202473 2880 10177699 4C7CA48B0C8A8026 4200D017074DAFE99E265F81AE34B905 0020
724400013011166 89554000000130111669 3030 03185776 3566 30805902 60B134930BF4B95D A449E122ADE4AE0B707D8EFA4C8AA87E 0040
724400013011167 89554000000130111677 3030 27364951 2103 13111337 C1B2608C830BF5A4 2275EA3415EA2E8DBC560F6C1DB5B2DF 0080
724400013011168 89554000000130111685 3030 36856008 9554 76835477 AE47BCA60EDE8F51 1093A0D45B8E96BEF764F81266BAE138 0100
724400013011169 89554000000130111693 3030 51759346 8172 25991346 F6E0D153596A602D DB204B364A041ECBD790B1EDBBBAC974 0200
724400013011170 89554000000130111701 3030 47230133 6161 20007194 BF14F5C6A576316B 84CAFABA2C83967D3AD6180255345C37 0001
724400013011171 89554000000130111719 3030 18250589 3263 26113675 2C61BEC41B8C9C2B 1B60339EB2626B82C8531B431EA33D2C 0002
724400013011172 89554000000130111727 3030 48029411 4786 89201170 E4627A0E995A48A6 0EECCB10755A8CE541541BF93D707BF9 0004
724400013011173 89554000000130111735 3030 15405482 0616 02339698 61975AAA006A529B 41E3616937152185F78D5E9662B1B353 0008
724400013011174 89554000000130111743 3030 91543384 6108 30680172 9CAC4ECDF3B6B8E4 6E0A2F388C5FD1D85D1480439478D021 0010
724400013011175 89554000000130111750 3030 54163681 0260 01178035 FD258C50A12282DD D483A57C58719FD9744B41B51A2AA383 0020
724400013011176 89554000000130111768 3030 98616475 2861 69334712 EE24DA346B92DAFE A8960A3944379857B401B7BFFE538ED4 0040
724400013011177 89554000000130111776 3030 52767270 5567 40978716 1EE3C134E303A34A 2FF90B639E33010DD1B3E05092394A76 0080
724400013011178 89554000000130111784 3030 89171457 4813 56524327 790EBE86F577C577 D0C1F93F0293FF84390D1E59F36BB6BC 0100
724400013011179 89554000000130111792 3030 68931659 6345 72824176 760D17CBBD697065 032A37D69B6C264F722D2FE4670415A1 0200
724400013011180 89554000000130111800 3030 19794694 0935 74016292 CB2CB44BF9646642 1F1AFB3390E989B99B4C60DBF213CFB5 0001
724400013011181 89554000000130111818 3030 73120484 2734 66349404 080C7BE38401B31F 8B14DC4046B5E2CAF76D421B673CEC64 0002
724400013011182 89554000000130111826 3030 07491935 4066 24401690 C4D9F7529DCB1ABE DBFF901B85F18C72BF41910DAC5A9374 0004
724400013011183 89554000000130111834 3030 93574189 4336 18323419 776430C586A55C5C BC84886F6605118915A856F0DF7F3C59 0008
724400013011184 89554000000130111842 3030 60559729 5483 88823893 E175FC43D6EEDCC2 CD35AFDACF117769DE2D513379C64C63 0010
724400013011185 89554000000130111859 3030 85867954 6070 18629074 51A48C7AF6CF5D94 F1445D37677092FDE868C1798402B147 0020
724400013011186 89554000000130111867 3030 89082545 6867 68662074 93D1B0CE708BD4F7 DFF9EB183B8A1DE42B6C210954802046 0040
724400013011187 89554000000130111875 3030 39790998 4311 19799909 F91A4C40D463631B 9947F7450C859E835E28E94152F47C0D 0080
724400013011188 89554000000130111883 3030 73938952 5572 50434969 10BF866DD40B1C7D B1DBDFAEE88CBFABA708621F838F1C34 0100
724400013011189 89554000000130111891 3030 37948572 9738 02231629 407B25E8C80B4BE2 C99A71E1181EB6A6156DC4AE42E31588 0200
724400013011190 89554000000130111909 3030 20181177 0695 91056320 05002CFEE49EA344 DCCA1D73EF1C626819483D06FECC17A5 0001
724400013011191 89554000000130111917 3030 81963028 0333 00127756 A9415E1E78524C6C 8E8A47D6DF4BB18B0A90C31627D4EA0A 0002
724400013011192 89554000000130111925 3030 64275392 8753 67688435 84B8A70A7C4D1B84 B38A6CD704B6015B30EAAC332592B294 0004
724400013011193 89554000000130111933 3030 54442947 5009 32113901 72ED7FEFB3B0DB55 BD5AFB7BA381B08EE5FF6846DA46CDFB 0008
724400013011194 89554000000130111941 3030 76439121 2404 61292138 8DF1B6A64757D7D8 9024748775C1943F043F47C8CDF57451 0010
724400013011195 89554000000130111958 3030 53602911 9466 35092190 B5856673D91F1546 74E8A35E11C9A70F0DEC8457CFE90E4E 0020
724400013011196 89554000000130111966 3030 90589218 7184 10504465 348CC4FF91EB170C F384F46BA6828743A91057830A0F2F26 0040
724400013011197 89554000000130111974 3030 64748320 3758 56777933 AA9ECC4C75A1456A 269CB06E0B705AE661B9AE1B55505622 0080
724400013011198 89554000000130111982 3030 53166015 2229 92772952 06D1285675086C2D D8EDA9E9DF6CADF01D391B4E14534137 0100
724400013011199 89554000000130111990 3030 98402689 1561 74447991 8498DD8A99DEB6B2 1E8067F47FCADB6506DE3CBAAF3AAF5C 0200
724400013011200 89554000000130112006 3030 62500450 8888 68694787 A385BCC6808B46B2 80D7C81CA7A14BC63BD3FB1A30ACF5F0 0001
724400013011201 89554000000130112014 3030 94871902 5722 21476270 746D371C93684A3C D5ABA3EDE31EFE6C37F468275534B496 0002
724400013011202 89554000000130112022 3030 31840126 4504 08857255 E7DFFA2ED69E862D C9B1C2D785DC2C470331DCC8CC4E9961 0004
724400013011203 89554000000130112030 3030 19590628 1130 27623870 F2CA8635B122AE3D 62352F8C3D0089F80D9CDE9F06AE5DAD 0008
724400013011204 89554000000130112048 3030 15302019 2021 04979198 33789607382EE63F 95EF1D98A39C4BF9ABBEA1A0B7D43CA9 0010
724400013011205 89554000000130112055 3030 20426938 3944 81889022 CF3BE77D970F0097 685977BF5E786F596EC9125C3BE707CB 0020
724400013011206 89554000000130112063 3030 82929591 6985 61395307 A09096ED94C91037 B5616E087CC7160211E094FE94F56B14 0040
724400013011207 89554000000130112071 3030 36033860 6914 25431194 B1FFB6188EDF9E62 EBA9BF453E485D0B37C6FE0156963978 0080
724400013011208 89554000000130112089 3030 45190522 0708 04216433 1949942397455CE8 9E2D5DEFEC167013E4743450C889237D 0100
724400013011209 89554000000130112097 3030 54369751 6256 05366161 B9803F40646A77AA D32F28CDFF0231825E62509D08BAD4AF 0200
724400013011210 89554000000130112105 3030 45474887 0308 69278521 1EB7518F3E7E0B0F 114FAC9EC5739BFA989EAA17B1A69A47 0001
724400013011211 89554000000130112113 3030 24233629 6508 68770033 7D3DE825F8AE952C BD9462EF0821BCEE22A58131C3E15B54 0002
724400013011212 89554000000130112121 3030 70586083 8540 35703625 DCBE2FE086380983 A44637C1E2099C58E451B4FC312376A7 0004
724400013011213 89554000000130112139 3030 54498762 6324 26209121 C155209031321A08 89E4CA58D98E31540F9541584864578D 0008
724400013011214 89554000000130112147 3030 38621978 9778 44623197 C1D43C7A566757C7 04BF8E2B91C6C0B70D73420BB9F128B1 0010
724400013011215 89554000000130112154 3030 31902635 2276 96422418 CB95A056025623D6 98F12E658BA42B66D3A2CB474CA7E741 0020
724400013011216 89554000000130112162 3030 17212208 7632 56954268 F2EF88E13D29914B D2CB13DB871D802285B84FFC7452B254 0040
724400013011217 89554000000130112170 3030 48292051 0285 11844904 E9DB293146298880 AC6760BDCEF28027FC8CD75E1A21989D 0080
724400013011218 89554000000130112188 3030 75661062 2516 32502512 165C66CDEE903F45 DEDB0A024FCAB1D7406E91767DF7AD12 0100
724400013011219 89554000000130112196 3030 29358901 6502 23867286 A98985C79C3C72A8 0D2FA8ED092F40DFC9A2D234BBB3ECBE 0200
724400013011220 89554000000130112204 3030 85317651 3113 54509526 1FAEE98A27FA5B7E DFC1E70860D700A5E64D6E38745E1529 0001
724400013011221 89554000000130112212 3030 35625679 9772 41690586 90AEE8AB03A15540 2D9C5F9AB6FFA7D092384C01553756CE 0002
724400013011222 89554000000130112220 3030 61102945 0139 89549191 258469AAAB0F6FAF 221A71BE24D2B799A1DA2F0B32F73EA5 0004
724400013011223 89554000000130112238 3030 28353276 6031 25568417 1EFFB309E426E266 991FB8BD66AE60ABDFC0DCF2E2EA19FD 0008
724400013011224 89554000000130112246 3030 43499958 7900 08830636 35498B61D86F9373 982D176159C2D755E46DB2B252552916 0010
724400013011225 89554000000130112253 3030 67423870 9566 79106427 6B9AD77D1CBE1DAD F01258B388D6E4BF5D02B277E751EEDE 0020
724400013011226 89554000000130112261 3030 71594652 9027 33901867 0BE5ADA1917C95F7 3EAA9D46ED6CA2D6DB7B26689FB0F15C 0040
724400013011227 89554000000130112279 3030 02100595 0269 30247119 4A67168AFD9C84B4 9E490B2537D9983E29E32A4CC804FE77 0080
724400013011228 89554000000130112287 3030 57734737 5985 03980211 A9616F5CCA865F52 014C8F4B6E5962F5C66C22EAD8A025A7 0100
724400013011229 89554000000130112295 3030 47682952 3584 76052995 1BA1E81A8280EFB4 DEBD95BAFB92A6F933496E409C249781 0200
724400013011230 89554000000130112303 3030 91677132 4787 17706998 CF3BA1AB7E6A2411 F585274CB8736C81138DBA742246F394 0001
724400013011231 89554000000130112311 3030 61587423 2864 62119792 91A2A4C1934D26A7 CE40B261EDEA3E131653615E8B171BBA 0002
724400013011232 89554000000130112329 3030 81685163 9763 03833254 D036473D6937EBBB 405868F6322940A30220E2EECCE4FEA4 0004
724400013011233 89554000000130112337 3030 01689698 6606 82156445 CC41EE9FD70AC3D0 D8986D556F0325E244A40B25A9507AC4 0008
724400013011234 89554000000130112345 3030 59212813 8502 71553144 E6E3A48E999E476F 93392A529B0E1EE431EC3AB704FCA1E3 0010
724400013011235 89554000000130112352 3030 66469982 0193 40688100 7E45F6B7396647E5 20B1C9EBB480599A9BF3A9141062207E 0020
724400013011236 89554000000130112360 3030 78370607 9667 13315233 87E1092AF44A0CF9 4C3AC2E27B343E1ABCB645444203460E 0040
724400013011237 89554000000130112378 3030 93515778 8165 23341903 D1B8C13AE03AAEF1 675B6335DCF47013F5B851929829F923 0080
724400013011238 89554000000130112386 3030 70289490 4573 56033215 9D81EDECD5CAC1D9 7000810AA032AF3B8093A894928A7EDB 0100
724400013011239 89554000000130112394 3030 77520129 0223 77040854 F7826FBF2365EC89 590A38E92F3AF259B99D7657E2375DBC 0200
724400013011240 89554000000130112402 3030 84181354 4453 21450870 9C5DC13B1D90EF3B 43D025EBA65EC6B1B8272FE6BD948407 0001
724400013011241 89554000000130112410 3030 56526945 5428 05894815 6A23DB3CD55641DB 78E289BAB1C4780FE04FC6E17806B699 0002
724400013011242 89554000000130112428 3030 80109095 4999 54503844 AB4C46D46116F03F 527D01F4CDE093B63055C82721161246 0004
724400013011243 89554000000130112436 3030 76417129 4616 06200903 864755D05FA7C2A9 AFF5DB43B83A378B59AF299DCDC7B395 0008
724400013011244 89554000000130112444 3030 70387398 4916 58137924 EBE022D23C920065 BB23C4C4ABCFCC6B75B48191467667C3 0010
724400013011245 89554000000130112451 3030 99636239 1759 19991555 A05C8EBB784B012C CC44D3512FC39561A8A5ED34AA31B01B 0020
724400013011246 89554000000130112469 3030 06240287 0717 33006250 24F89310D0DC802B 2273CC039CFD5AA06C1F10D95FB4559B 0040
724400013011247 89554000000130112477 3030 24099977 4183 10250144 A35393C7C70C2D58 65E6891709CE58B6DAB90F8A61FC4FB4 0080
